{
  "_format": "hh-sol-artifact-1",
  "contractName": "AnemonethV1",
  "sourceName": "contracts/anemonethV1.sol",
  "abi": [
    {
      "anonymous": false,
      "inputs": [
        {
          "indexed": true,
          "internalType": "address",
          "name": "owner",
          "type": "address"
        },
        {
          "indexed": true,
          "internalType": "address",
          "name": "spender",
          "type": "address"
        },
        {
          "indexed": false,
          "internalType": "uint256",
          "name": "value",
          "type": "uint256"
        }
      ],
      "name": "Approval",
      "type": "event"
    },
    {
      "anonymous": false,
      "inputs": [
        {
          "indexed": true,
          "internalType": "address",
          "name": "previousOwner",
          "type": "address"
        },
        {
          "indexed": true,
          "internalType": "address",
          "name": "newOwner",
          "type": "address"
        }
      ],
      "name": "OwnershipTransferred",
      "type": "event"
    },
    {
      "anonymous": false,
      "inputs": [
        {
          "indexed": true,
          "internalType": "address",
          "name": "from",
          "type": "address"
        },
        {
          "indexed": true,
          "internalType": "address",
          "name": "to",
          "type": "address"
        },
        {
          "indexed": false,
          "internalType": "uint256",
          "name": "value",
          "type": "uint256"
        }
      ],
      "name": "Transfer",
      "type": "event"
    },
    {
      "inputs": [],
      "name": "add",
      "outputs": [
        {
          "internalType": "uint256",
          "name": "",
          "type": "uint256"
        }
      ],
      "stateMutability": "view",
      "type": "function"
    },
    {
      "inputs": [
        {
          "internalType": "address",
          "name": "owner",
          "type": "address"
        },
        {
          "internalType": "address",
          "name": "spender",
          "type": "address"
        }
      ],
      "name": "allowance",
      "outputs": [
        {
          "internalType": "uint256",
          "name": "",
          "type": "uint256"
        }
      ],
      "stateMutability": "view",
      "type": "function"
    },
    {
      "inputs": [
        {
          "internalType": "address",
          "name": "spender",
          "type": "address"
        },
        {
          "internalType": "uint256",
          "name": "amount",
          "type": "uint256"
        }
      ],
      "name": "approve",
      "outputs": [
        {
          "internalType": "bool",
          "name": "",
          "type": "bool"
        }
      ],
      "stateMutability": "nonpayable",
      "type": "function"
    },
    {
      "inputs": [
        {
          "internalType": "address",
          "name": "account",
          "type": "address"
        }
      ],
      "name": "balanceOf",
      "outputs": [
        {
          "internalType": "uint256",
          "name": "",
          "type": "uint256"
        }
      ],
      "stateMutability": "view",
      "type": "function"
    },
    {
      "inputs": [],
      "name": "decimals",
      "outputs": [
        {
          "internalType": "uint8",
          "name": "",
          "type": "uint8"
        }
      ],
      "stateMutability": "view",
      "type": "function"
    },
    {
      "inputs": [
        {
          "internalType": "address",
          "name": "spender",
          "type": "address"
        },
        {
          "internalType": "uint256",
          "name": "subtractedValue",
          "type": "uint256"
        }
      ],
      "name": "decreaseAllowance",
      "outputs": [
        {
          "internalType": "bool",
          "name": "",
          "type": "bool"
        }
      ],
      "stateMutability": "nonpayable",
      "type": "function"
    },
    {
      "inputs": [
        {
          "internalType": "address",
          "name": "spender",
          "type": "address"
        },
        {
          "internalType": "uint256",
          "name": "addedValue",
          "type": "uint256"
        }
      ],
      "name": "increaseAllowance",
      "outputs": [
        {
          "internalType": "bool",
          "name": "",
          "type": "bool"
        }
      ],
      "stateMutability": "nonpayable",
      "type": "function"
    },
    {
      "inputs": [
        {
          "internalType": "uint256",
          "name": "_test1",
          "type": "uint256"
        },
        {
          "internalType": "uint256",
          "name": "_test2",
          "type": "uint256"
        }
      ],
      "name": "initialize",
      "outputs": [],
      "stateMutability": "nonpayable",
      "type": "function"
    },
    {
      "inputs": [
        {
          "internalType": "address",
          "name": "to",
          "type": "address"
        },
        {
          "internalType": "uint256",
          "name": "amount",
          "type": "uint256"
        }
      ],
      "name": "mint",
      "outputs": [],
      "stateMutability": "nonpayable",
      "type": "function"
    },
    {
      "inputs": [],
      "name": "name",
      "outputs": [
        {
          "internalType": "string",
          "name": "",
          "type": "string"
        }
      ],
      "stateMutability": "view",
      "type": "function"
    },
    {
      "inputs": [],
      "name": "owner",
      "outputs": [
        {
          "internalType": "address",
          "name": "",
          "type": "address"
        }
      ],
      "stateMutability": "view",
      "type": "function"
    },
    {
      "inputs": [],
      "name": "renounceOwnership",
      "outputs": [],
      "stateMutability": "nonpayable",
      "type": "function"
    },
    {
      "inputs": [],
      "name": "symbol",
      "outputs": [
        {
          "internalType": "string",
          "name": "",
          "type": "string"
        }
      ],
      "stateMutability": "view",
      "type": "function"
    },
    {
      "inputs": [],
      "name": "test1",
      "outputs": [
        {
          "internalType": "uint256",
          "name": "",
          "type": "uint256"
        }
      ],
      "stateMutability": "view",
      "type": "function"
    },
    {
      "inputs": [],
      "name": "test2",
      "outputs": [
        {
          "internalType": "uint256",
          "name": "",
          "type": "uint256"
        }
      ],
      "stateMutability": "view",
      "type": "function"
    },
    {
      "inputs": [],
      "name": "totalSupply",
      "outputs": [
        {
          "internalType": "uint256",
          "name": "",
          "type": "uint256"
        }
      ],
      "stateMutability": "view",
      "type": "function"
    },
    {
      "inputs": [
        {
          "internalType": "address",
          "name": "to",
          "type": "address"
        },
        {
          "internalType": "uint256",
          "name": "amount",
          "type": "uint256"
        }
      ],
      "name": "transfer",
      "outputs": [
        {
          "internalType": "bool",
          "name": "",
          "type": "bool"
        }
      ],
      "stateMutability": "nonpayable",
      "type": "function"
    },
    {
      "inputs": [
        {
          "internalType": "address",
          "name": "from",
          "type": "address"
        },
        {
          "internalType": "address",
          "name": "to",
          "type": "address"
        },
        {
          "internalType": "uint256",
          "name": "amount",
          "type": "uint256"
        }
      ],
      "name": "transferFrom",
      "outputs": [
        {
          "internalType": "bool",
          "name": "",
          "type": "bool"
        }
      ],
      "stateMutability": "nonpayable",
      "type": "function"
    },
    {
      "inputs": [
        {
          "internalType": "address",
          "name": "newOwner",
          "type": "address"
        }
      ],
      "name": "transferOwnership",
      "outputs": [],
      "stateMutability": "nonpayable",
      "type": "function"
    }
  ],
  "bytecode": "0x608060405234801561001057600080fd5b50611fdc806100206000396000f3fe608060405234801561001057600080fd5b50600436106101215760003560e01c80636b59084d116100ad578063a457c2d711610071578063a457c2d7146102fc578063a9059cbb1461032c578063dd62ed3e1461035c578063e4a301161461038c578063f2fde38b146103a857610121565b80636b59084d1461026857806370a0823114610286578063715018a6146102b65780638da5cb5b146102c057806395d89b41146102de57610121565b8063313ce567116100f4578063313ce567146101c257806339509351146101e057806340c10f19146102105780634f2be91f1461022c57806366e41cb71461024a57610121565b806306fdde0314610126578063095ea7b31461014457806318160ddd1461017457806323b872dd14610192575b600080fd5b61012e6103c4565b60405161013b91906118c3565b60405180910390f35b61015e600480360381019061015991906115fc565b610456565b60405161016b91906118a8565b60405180910390f35b61017c610479565b6040516101899190611a65565b60405180910390f35b6101ac60048036038101906101a791906115ad565b610483565b6040516101b991906118a8565b60405180910390f35b6101ca6104b2565b6040516101d79190611a80565b60405180910390f35b6101fa60048036038101906101f591906115fc565b6104bb565b60405161020791906118a8565b60405180910390f35b61022a600480360381019061022591906115fc565b610565565b005b6102346105ef565b6040516102419190611a65565b60405180910390f35b610252610606565b60405161025f9190611a65565b60405180910390f35b61027061060c565b60405161027d9190611a65565b60405180910390f35b6102a0600480360381019061029b9190611548565b610612565b6040516102ad9190611a65565b60405180910390f35b6102be61065b565b005b6102c86106e3565b6040516102d5919061188d565b60405180910390f35b6102e661070d565b6040516102f391906118c3565b60405180910390f35b610316600480360381019061031191906115fc565b61079f565b60405161032391906118a8565b60405180910390f35b610346600480360381019061034191906115fc565b610889565b60405161035391906118a8565b60405180910390f35b61037660048036038101906103719190611571565b6108ac565b6040516103839190611a65565b60405180910390f35b6103a660048036038101906103a19190611638565b610933565b005b6103c260048036038101906103bd9190611548565b610aa3565b005b6060603680546103d390611b95565b80601f01602080910402602001604051908101604052809291908181526020018280546103ff90611b95565b801561044c5780601f106104215761010080835404028352916020019161044c565b820191906000526020600020905b81548152906001019060200180831161042f57829003601f168201915b5050505050905090565b600080610461610b9b565b905061046e818585610ba3565b600191505092915050565b6000603554905090565b60008061048e610b9b565b905061049b858285610d6e565b6104a6858585610dfa565b60019150509392505050565b60006012905090565b6000806104c6610b9b565b905061055a818585603460008673ffffffffffffffffffffffffffffffffffffffff1673ffffffffffffffffffffffffffffffffffffffff16815260200190815260200160002060008973ffffffffffffffffffffffffffffffffffffffff1673ffffffffffffffffffffffffffffffffffffffff168152602001908152602001600020546105559190611ab7565b610ba3565b600191505092915050565b61056d610b9b565b73ffffffffffffffffffffffffffffffffffffffff1661058b6106e3565b73ffffffffffffffffffffffffffffffffffffffff16146105e1576040517f08c379a00000000000000000000000000000000000000000000000000000000081526004016105d8906119a5565b60405180910390fd5b6105eb828261107e565b5050565b60006098546097546106019190611ab7565b905090565b60985481565b60975481565b6000603360008373ffffffffffffffffffffffffffffffffffffffff1673ffffffffffffffffffffffffffffffffffffffff168152602001908152602001600020549050919050565b610663610b9b565b73ffffffffffffffffffffffffffffffffffffffff166106816106e3565b73ffffffffffffffffffffffffffffffffffffffff16146106d7576040517f08c379a00000000000000000000000000000000000000000000000000000000081526004016106ce906119a5565b60405180910390fd5b6106e160006111df565b565b6000606560009054906101000a900473ffffffffffffffffffffffffffffffffffffffff16905090565b60606037805461071c90611b95565b80601f016020809104026020016040519081016040528092919081815260200182805461074890611b95565b80156107955780601f1061076a57610100808354040283529160200191610795565b820191906000526020600020905b81548152906001019060200180831161077857829003601f168201915b5050505050905090565b6000806107aa610b9b565b90506000603460008373ffffffffffffffffffffffffffffffffffffffff1673ffffffffffffffffffffffffffffffffffffffff16815260200190815260200160002060008673ffffffffffffffffffffffffffffffffffffffff1673ffffffffffffffffffffffffffffffffffffffff16815260200190815260200160002054905083811015610870576040517f08c379a000000000000000000000000000000000000000000000000000000000815260040161086790611a25565b60405180910390fd5b61087d8286868403610ba3565b60019250505092915050565b600080610894610b9b565b90506108a1818585610dfa565b600191505092915050565b6000603460008473ffffffffffffffffffffffffffffffffffffffff1673ffffffffffffffffffffffffffffffffffffffff16815260200190815260200160002060008373ffffffffffffffffffffffffffffffffffffffff1673ffffffffffffffffffffffffffffffffffffffff16815260200190815260200160002054905092915050565b600060019054906101000a900460ff1661095b5760008054906101000a900460ff1615610964565b6109636112a5565b5b6109a3576040517f08c379a000000000000000000000000000000000000000000000000000000000815260040161099a90611985565b60405180910390fd5b60008060019054906101000a900460ff1615905080156109f3576001600060016101000a81548160ff02191690831515021790555060016000806101000a81548160ff0219169083151502179055505b610a676040518060400160405280600981526020017f416e656d6f6e45746800000000000000000000000000000000000000000000008152506040518060400160405280600381526020017f4e454d00000000000000000000000000000000000000000000000000000000008152506112b6565b610a6f611313565b82609781905550816098819055508015610a9e5760008060016101000a81548160ff0219169083151502179055505b505050565b610aab610b9b565b73ffffffffffffffffffffffffffffffffffffffff16610ac96106e3565b73ffffffffffffffffffffffffffffffffffffffff1614610b1f576040517f08c379a0000000000000000000000000000000000000000000000000000000008152600401610b16906119a5565b60405180910390fd5b600073ffffffffffffffffffffffffffffffffffffffff168173ffffffffffffffffffffffffffffffffffffffff161415610b8f576040517f08c379a0000000000000000000000000000000000000000000000000000000008152600401610b8690611905565b60405180910390fd5b610b98816111df565b50565b600033905090565b600073ffffffffffffffffffffffffffffffffffffffff168373ffffffffffffffffffffffffffffffffffffffff161415610c13576040517f08c379a0000000000000000000000000000000000000000000000000000000008152600401610c0a906119e5565b60405180910390fd5b600073ffffffffffffffffffffffffffffffffffffffff168273ffffffffffffffffffffffffffffffffffffffff161415610c83576040517f08c379a0000000000000000000000000000000000000000000000000000000008152600401610c7a90611925565b60405180910390fd5b80603460008573ffffffffffffffffffffffffffffffffffffffff1673ffffffffffffffffffffffffffffffffffffffff16815260200190815260200160002060008473ffffffffffffffffffffffffffffffffffffffff1673ffffffffffffffffffffffffffffffffffffffff168152602001908152602001600020819055508173ffffffffffffffffffffffffffffffffffffffff168373ffffffffffffffffffffffffffffffffffffffff167f8c5be1e5ebec7d5bd14f71427d1e84f3dd0314c0f7b2291e5b200ac8c7c3b92583604051610d619190611a65565b60405180910390a3505050565b6000610d7a84846108ac565b90507fffffffffffffffffffffffffffffffffffffffffffffffffffffffffffffffff8114610df45781811015610de6576040517f08c379a0000000000000000000000000000000000000000000000000000000008152600401610ddd90611945565b60405180910390fd5b610df38484848403610ba3565b5b50505050565b600073ffffffffffffffffffffffffffffffffffffffff168373ffffffffffffffffffffffffffffffffffffffff161415610e6a576040517f08c379a0000000000000000000000000000000000000000000000000000000008152600401610e61906119c5565b60405180910390fd5b600073ffffffffffffffffffffffffffffffffffffffff168273ffffffffffffffffffffffffffffffffffffffff161415610eda576040517f08c379a0000000000000000000000000000000000000000000000000000000008152600401610ed1906118e5565b60405180910390fd5b610ee583838361136c565b6000603360008573ffffffffffffffffffffffffffffffffffffffff1673ffffffffffffffffffffffffffffffffffffffff16815260200190815260200160002054905081811015610f6c576040517f08c379a0000000000000000000000000000000000000000000000000000000008152600401610f6390611965565b60405180910390fd5b818103603360008673ffffffffffffffffffffffffffffffffffffffff1673ffffffffffffffffffffffffffffffffffffffff1681526020019081526020016000208190555081603360008573ffffffffffffffffffffffffffffffffffffffff1673ffffffffffffffffffffffffffffffffffffffff16815260200190815260200160002060008282546110019190611ab7565b925050819055508273ffffffffffffffffffffffffffffffffffffffff168473ffffffffffffffffffffffffffffffffffffffff167fddf252ad1be2c89b69c2b068fc378daa952ba7f163c4a11628f55a4df523b3ef846040516110659190611a65565b60405180910390a3611078848484611371565b50505050565b600073ffffffffffffffffffffffffffffffffffffffff168273ffffffffffffffffffffffffffffffffffffffff1614156110ee576040517f08c379a00000000000000000000000000000000000000000000000000000000081526004016110e590611a45565b60405180910390fd5b6110fa6000838361136c565b806035600082825461110c9190611ab7565b9250508190555080603360008473ffffffffffffffffffffffffffffffffffffffff1673ffffffffffffffffffffffffffffffffffffffff16815260200190815260200160002060008282546111629190611ab7565b925050819055508173ffffffffffffffffffffffffffffffffffffffff16600073ffffffffffffffffffffffffffffffffffffffff167fddf252ad1be2c89b69c2b068fc378daa952ba7f163c4a11628f55a4df523b3ef836040516111c79190611a65565b60405180910390a36111db60008383611371565b5050565b6000606560009054906101000a900473ffffffffffffffffffffffffffffffffffffffff16905081606560006101000a81548173ffffffffffffffffffffffffffffffffffffffff021916908373ffffffffffffffffffffffffffffffffffffffff1602179055508173ffffffffffffffffffffffffffffffffffffffff168173ffffffffffffffffffffffffffffffffffffffff167f8be0079c531659141344cd1fd0a4f28419497f9722a3daafe3b4186f6b6457e060405160405180910390a35050565b60006112b030611376565b15905090565b600060019054906101000a900460ff16611305576040517f08c379a00000000000000000000000000000000000000000000000000000000081526004016112fc90611a05565b60405180910390fd5b61130f8282611399565b5050565b600060019054906101000a900460ff16611362576040517f08c379a000000000000000000000000000000000000000000000000000000000815260040161135990611a05565b60405180910390fd5b61136a61141a565b565b505050565b505050565b6000808273ffffffffffffffffffffffffffffffffffffffff163b119050919050565b600060019054906101000a900460ff166113e8576040517f08c379a00000000000000000000000000000000000000000000000000000000081526004016113df90611a05565b60405180910390fd5b81603690805190602001906113fe92919061147b565b50806037908051906020019061141592919061147b565b505050565b600060019054906101000a900460ff16611469576040517f08c379a000000000000000000000000000000000000000000000000000000000815260040161146090611a05565b60405180910390fd5b611479611474610b9b565b6111df565b565b82805461148790611b95565b90600052602060002090601f0160209004810192826114a957600085556114f0565b82601f106114c257805160ff19168380011785556114f0565b828001600101855582156114f0579182015b828111156114ef5782518255916020019190600101906114d4565b5b5090506114fd9190611501565b5090565b5b8082111561151a576000816000905550600101611502565b5090565b60008135905061152d81611f78565b92915050565b60008135905061154281611f8f565b92915050565b60006020828403121561155a57600080fd5b60006115688482850161151e565b91505092915050565b6000806040838503121561158457600080fd5b60006115928582860161151e565b92505060206115a38582860161151e565b9150509250929050565b6000806000606084860312156115c257600080fd5b60006115d08682870161151e565b93505060206115e18682870161151e565b92505060406115f286828701611533565b9150509250925092565b6000806040838503121561160f57600080fd5b600061161d8582860161151e565b925050602061162e85828601611533565b9150509250929050565b6000806040838503121561164b57600080fd5b600061165985828601611533565b925050602061166a85828601611533565b9150509250929050565b61167d81611b0d565b82525050565b61168c81611b1f565b82525050565b600061169d82611a9b565b6116a78185611aa6565b93506116b7818560208601611b62565b6116c081611c25565b840191505092915050565b60006116d8602383611aa6565b91506116e382611c36565b604082019050919050565b60006116fb602683611aa6565b915061170682611c85565b604082019050919050565b600061171e602283611aa6565b915061172982611cd4565b604082019050919050565b6000611741601d83611aa6565b915061174c82611d23565b602082019050919050565b6000611764602683611aa6565b915061176f82611d4c565b604082019050919050565b6000611787602e83611aa6565b915061179282611d9b565b604082019050919050565b60006117aa602083611aa6565b91506117b582611dea565b602082019050919050565b60006117cd602583611aa6565b91506117d882611e13565b604082019050919050565b60006117f0602483611aa6565b91506117fb82611e62565b604082019050919050565b6000611813602b83611aa6565b915061181e82611eb1565b604082019050919050565b6000611836602583611aa6565b915061184182611f00565b604082019050919050565b6000611859601f83611aa6565b915061186482611f4f565b602082019050919050565b61187881611b4b565b82525050565b61188781611b55565b82525050565b60006020820190506118a26000830184611674565b92915050565b60006020820190506118bd6000830184611683565b92915050565b600060208201905081810360008301526118dd8184611692565b905092915050565b600060208201905081810360008301526118fe816116cb565b9050919050565b6000602082019050818103600083015261191e816116ee565b9050919050565b6000602082019050818103600083015261193e81611711565b9050919050565b6000602082019050818103600083015261195e81611734565b9050919050565b6000602082019050818103600083015261197e81611757565b9050919050565b6000602082019050818103600083015261199e8161177a565b9050919050565b600060208201905081810360008301526119be8161179d565b9050919050565b600060208201905081810360008301526119de816117c0565b9050919050565b600060208201905081810360008301526119fe816117e3565b9050919050565b60006020820190508181036000830152611a1e81611806565b9050919050565b60006020820190508181036000830152611a3e81611829565b9050919050565b60006020820190508181036000830152611a5e8161184c565b9050919050565b6000602082019050611a7a600083018461186f565b92915050565b6000602082019050611a95600083018461187e565b92915050565b600081519050919050565b600082825260208201905092915050565b6000611ac282611b4b565b9150611acd83611b4b565b9250827fffffffffffffffffffffffffffffffffffffffffffffffffffffffffffffffff03821115611b0257611b01611bc7565b5b828201905092915050565b6000611b1882611b2b565b9050919050565b60008115159050919050565b600073ffffffffffffffffffffffffffffffffffffffff82169050919050565b6000819050919050565b600060ff82169050919050565b60005b83811015611b80578082015181840152602081019050611b65565b83811115611b8f576000848401525b50505050565b60006002820490506001821680611bad57607f821691505b60208210811415611bc157611bc0611bf6565b5b50919050565b7f4e487b7100000000000000000000000000000000000000000000000000000000600052601160045260246000fd5b7f4e487b7100000000000000000000000000000000000000000000000000000000600052602260045260246000fd5b6000601f19601f8301169050919050565b7f45524332303a207472616e7366657220746f20746865207a65726f206164647260008201527f6573730000000000000000000000000000000000000000000000000000000000602082015250565b7f4f776e61626c653a206e6577206f776e657220697320746865207a65726f206160008201527f6464726573730000000000000000000000000000000000000000000000000000602082015250565b7f45524332303a20617070726f766520746f20746865207a65726f20616464726560008201527f7373000000000000000000000000000000000000000000000000000000000000602082015250565b7f45524332303a20696e73756666696369656e7420616c6c6f77616e6365000000600082015250565b7f45524332303a207472616e7366657220616d6f756e742065786365656473206260008201527f616c616e63650000000000000000000000000000000000000000000000000000602082015250565b7f496e697469616c697a61626c653a20636f6e747261637420697320616c72656160008201527f647920696e697469616c697a6564000000000000000000000000000000000000602082015250565b7f4f776e61626c653a2063616c6c6572206973206e6f7420746865206f776e6572600082015250565b7f45524332303a207472616e736665722066726f6d20746865207a65726f20616460008201527f6472657373000000000000000000000000000000000000000000000000000000602082015250565b7f45524332303a20617070726f76652066726f6d20746865207a65726f2061646460008201527f7265737300000000000000000000000000000000000000000000000000000000602082015250565b7f496e697469616c697a61626c653a20636f6e7472616374206973206e6f74206960008201527f6e697469616c697a696e67000000000000000000000000000000000000000000602082015250565b7f45524332303a2064656372656173656420616c6c6f77616e63652062656c6f7760008201527f207a65726f000000000000000000000000000000000000000000000000000000602082015250565b7f45524332303a206d696e7420746f20746865207a65726f206164647265737300600082015250565b611f8181611b0d565b8114611f8c57600080fd5b50565b611f9881611b4b565b8114611fa357600080fd5b5056fea2646970667358221220d2488cd2abc6149dc61fec719453318188b6e07ec38980cc58be09324800088d64736f6c63430008040033",
  "linkReferences": {},
  "deployedLinkReferences": {}
}