{
  "_format": "hh-sol-artifact-1",
  "contractName": "AnemonethV1",
  "sourceName": "contracts/anemonethV1.sol",
  "abi": [
    {
      "anonymous": false,
      "inputs": [
        {
          "indexed": true,
          "internalType": "address",
          "name": "owner",
          "type": "address"
        },
        {
          "indexed": true,
          "internalType": "address",
          "name": "spender",
          "type": "address"
        },
        {
          "indexed": false,
          "internalType": "uint256",
          "name": "value",
          "type": "uint256"
        }
      ],
      "name": "Approval",
      "type": "event"
    },
    {
      "anonymous": false,
      "inputs": [
        {
          "indexed": true,
          "internalType": "address",
          "name": "_addr",
          "type": "address"
        },
        {
          "indexed": false,
          "internalType": "uint256",
          "name": "_amount",
          "type": "uint256"
        }
      ],
      "name": "Distribution",
      "type": "event"
    },
    {
      "anonymous": false,
      "inputs": [
        {
          "indexed": true,
          "internalType": "address",
          "name": "previousOwner",
          "type": "address"
        },
        {
          "indexed": true,
          "internalType": "address",
          "name": "newOwner",
          "type": "address"
        }
      ],
      "name": "OwnershipTransferred",
      "type": "event"
    },
    {
      "anonymous": false,
      "inputs": [
        {
          "indexed": true,
          "internalType": "address",
          "name": "from",
          "type": "address"
        },
        {
          "indexed": true,
          "internalType": "address",
          "name": "to",
          "type": "address"
        },
        {
          "indexed": false,
          "internalType": "uint256",
          "name": "value",
          "type": "uint256"
        }
      ],
      "name": "Transfer",
      "type": "event"
    },
    {
      "inputs": [
        {
          "internalType": "address",
          "name": "owner",
          "type": "address"
        },
        {
          "internalType": "address",
          "name": "spender",
          "type": "address"
        }
      ],
      "name": "allowance",
      "outputs": [
        {
          "internalType": "uint256",
          "name": "",
          "type": "uint256"
        }
      ],
      "stateMutability": "view",
      "type": "function"
    },
    {
      "inputs": [
        {
          "internalType": "address",
          "name": "spender",
          "type": "address"
        },
        {
          "internalType": "uint256",
          "name": "amount",
          "type": "uint256"
        }
      ],
      "name": "approve",
      "outputs": [
        {
          "internalType": "bool",
          "name": "",
          "type": "bool"
        }
      ],
      "stateMutability": "nonpayable",
      "type": "function"
    },
    {
      "inputs": [
        {
          "internalType": "address",
          "name": "account",
          "type": "address"
        }
      ],
      "name": "balanceOf",
      "outputs": [
        {
          "internalType": "uint256",
          "name": "",
          "type": "uint256"
        }
      ],
      "stateMutability": "view",
      "type": "function"
    },
    {
      "inputs": [],
      "name": "cap",
      "outputs": [
        {
          "internalType": "uint256",
          "name": "",
          "type": "uint256"
        }
      ],
      "stateMutability": "view",
      "type": "function"
    },
    {
      "inputs": [],
      "name": "decimals",
      "outputs": [
        {
          "internalType": "uint8",
          "name": "",
          "type": "uint8"
        }
      ],
      "stateMutability": "view",
      "type": "function"
    },
    {
      "inputs": [
        {
          "internalType": "address",
          "name": "spender",
          "type": "address"
        },
        {
          "internalType": "uint256",
          "name": "subtractedValue",
          "type": "uint256"
        }
      ],
      "name": "decreaseAllowance",
      "outputs": [
        {
          "internalType": "bool",
          "name": "",
          "type": "bool"
        }
      ],
      "stateMutability": "nonpayable",
      "type": "function"
    },
    {
      "inputs": [
        {
          "internalType": "address",
          "name": "spender",
          "type": "address"
        },
        {
          "internalType": "uint256",
          "name": "addedValue",
          "type": "uint256"
        }
      ],
      "name": "increaseAllowance",
      "outputs": [
        {
          "internalType": "bool",
          "name": "",
          "type": "bool"
        }
      ],
      "stateMutability": "nonpayable",
      "type": "function"
    },
    {
      "inputs": [
        {
          "internalType": "string",
          "name": "name_",
          "type": "string"
        },
        {
          "internalType": "string",
          "name": "symbol_",
          "type": "string"
        },
        {
          "internalType": "uint256",
          "name": "cap_",
          "type": "uint256"
        },
        {
          "internalType": "uint256",
          "name": "initSupply",
          "type": "uint256"
        }
      ],
      "name": "initialize",
      "outputs": [],
      "stateMutability": "nonpayable",
      "type": "function"
    },
    {
      "inputs": [],
      "name": "name",
      "outputs": [
        {
          "internalType": "string",
          "name": "",
          "type": "string"
        }
      ],
      "stateMutability": "view",
      "type": "function"
    },
    {
      "inputs": [],
      "name": "owner",
      "outputs": [
        {
          "internalType": "address",
          "name": "",
          "type": "address"
        }
      ],
      "stateMutability": "view",
      "type": "function"
    },
    {
      "inputs": [
        {
          "internalType": "string",
          "name": "_username",
          "type": "string"
        }
      ],
      "name": "register",
      "outputs": [],
      "stateMutability": "nonpayable",
      "type": "function"
    },
    {
      "inputs": [],
      "name": "renounceOwnership",
      "outputs": [],
      "stateMutability": "nonpayable",
      "type": "function"
    },
    {
      "inputs": [],
      "name": "symbol",
      "outputs": [
        {
          "internalType": "string",
          "name": "",
          "type": "string"
        }
      ],
      "stateMutability": "view",
      "type": "function"
    },
    {
      "inputs": [],
      "name": "totalSupply",
      "outputs": [
        {
          "internalType": "uint256",
          "name": "",
          "type": "uint256"
        }
      ],
      "stateMutability": "view",
      "type": "function"
    },
    {
      "inputs": [
        {
          "internalType": "address",
          "name": "to",
          "type": "address"
        },
        {
          "internalType": "uint256",
          "name": "amount",
          "type": "uint256"
        }
      ],
      "name": "transfer",
      "outputs": [
        {
          "internalType": "bool",
          "name": "",
          "type": "bool"
        }
      ],
      "stateMutability": "nonpayable",
      "type": "function"
    },
    {
      "inputs": [
        {
          "internalType": "address",
          "name": "from",
          "type": "address"
        },
        {
          "internalType": "address",
          "name": "to",
          "type": "address"
        },
        {
          "internalType": "uint256",
          "name": "amount",
          "type": "uint256"
        }
      ],
      "name": "transferFrom",
      "outputs": [
        {
          "internalType": "bool",
          "name": "",
          "type": "bool"
        }
      ],
      "stateMutability": "nonpayable",
      "type": "function"
    },
    {
      "inputs": [
        {
          "internalType": "address",
          "name": "newOwner",
          "type": "address"
        }
      ],
      "name": "transferOwnership",
      "outputs": [],
      "stateMutability": "nonpayable",
      "type": "function"
    },
    {
      "inputs": [],
      "name": "weeklyEarnings",
      "outputs": [],
      "stateMutability": "nonpayable",
      "type": "function"
    }
  ],
  "bytecode": "0x608060405234801561001057600080fd5b506125f4806100206000396000f3fe608060405234801561001057600080fd5b50600436106101165760003560e01c8063715018a6116100a2578063a9059cbb11610071578063a9059cbb146102e5578063dd62ed3e14610315578063e700d81214610345578063f2c298be1461034f578063f2fde38b1461036b57610116565b8063715018a61461026f5780638da5cb5b1461027957806395d89b4114610297578063a457c2d7146102b557610116565b8063313ce567116100e9578063313ce567146101b7578063355274ea146101d557806339509351146101f35780636fe0e3951461022357806370a082311461023f57610116565b806306fdde031461011b578063095ea7b31461013957806318160ddd1461016957806323b872dd14610187575b600080fd5b610123610387565b6040516101309190611d07565b60405180910390f35b610153600480360381019061014e9190611962565b610419565b6040516101609190611cec565b60405180910390f35b61017161043c565b60405161017e9190611ee9565b60405180910390f35b6101a1600480360381019061019c9190611913565b610446565b6040516101ae9190611cec565b60405180910390f35b6101bf610475565b6040516101cc9190611f04565b60405180910390f35b6101dd61047e565b6040516101ea9190611ee9565b60405180910390f35b61020d60048036038101906102089190611962565b610488565b60405161021a9190611cec565b60405180910390f35b61023d600480360381019061023891906119df565b610532565b005b610259600480360381019061025491906118ae565b61063f565b6040516102669190611ee9565b60405180910390f35b610277610688565b005b610281610710565b60405161028e9190611cd1565b60405180910390f35b61029f61073a565b6040516102ac9190611d07565b60405180910390f35b6102cf60048036038101906102ca9190611962565b6107cc565b6040516102dc9190611cec565b60405180910390f35b6102ff60048036038101906102fa9190611962565b6108b6565b60405161030c9190611cec565b60405180910390f35b61032f600480360381019061032a91906118d7565b6108d9565b60405161033c9190611ee9565b60405180910390f35b61034d610960565b005b6103696004803603810190610364919061199e565b610b71565b005b610385600480360381019061038091906118ae565b610c40565b005b606060368054610396906120b2565b80601f01602080910402602001604051908101604052809291908181526020018280546103c2906120b2565b801561040f5780601f106103e45761010080835404028352916020019161040f565b820191906000526020600020905b8154815290600101906020018083116103f257829003601f168201915b5050505050905090565b600080610424610d38565b9050610431818585610d40565b600191505092915050565b6000603554905090565b600080610451610d38565b905061045e858285610f0b565b610469858585610f97565b60019150509392505050565b60006012905090565b6000606554905090565b600080610493610d38565b9050610527818585603460008673ffffffffffffffffffffffffffffffffffffffff1673ffffffffffffffffffffffffffffffffffffffff16815260200190815260200160002060008973ffffffffffffffffffffffffffffffffffffffff1673ffffffffffffffffffffffffffffffffffffffff168152602001908152602001600020546105229190611f91565b610d40565b600191505092915050565b600060019054906101000a900460ff1661055a5760008054906101000a900460ff1615610563565b61056261121b565b5b6105a2576040517f08c379a000000000000000000000000000000000000000000000000000000000815260040161059990611de9565b60405180910390fd5b60008060019054906101000a900460ff1615905080156105f2576001600060016101000a81548160ff02191690831515021790555060016000806101000a81548160ff0219169083151502179055505b6105fb8361122c565b6106058585611287565b61060d6112e4565b610617308361133d565b80156106385760008060016101000a81548160ff0219169083151502179055505b5050505050565b6000603360008373ffffffffffffffffffffffffffffffffffffffff1673ffffffffffffffffffffffffffffffffffffffff168152602001908152602001600020549050919050565b610690610d38565b73ffffffffffffffffffffffffffffffffffffffff166106ae610710565b73ffffffffffffffffffffffffffffffffffffffff1614610704576040517f08c379a00000000000000000000000000000000000000000000000000000000081526004016106fb90611e09565b60405180910390fd5b61070e60006113a7565b565b6000609860009054906101000a900473ffffffffffffffffffffffffffffffffffffffff16905090565b606060378054610749906120b2565b80601f0160208091040260200160405190810160405280929190818152602001828054610775906120b2565b80156107c25780601f10610797576101008083540402835291602001916107c2565b820191906000526020600020905b8154815290600101906020018083116107a557829003601f168201915b5050505050905090565b6000806107d7610d38565b90506000603460008373ffffffffffffffffffffffffffffffffffffffff1673ffffffffffffffffffffffffffffffffffffffff16815260200190815260200160002060008673ffffffffffffffffffffffffffffffffffffffff1673ffffffffffffffffffffffffffffffffffffffff1681526020019081526020016000205490508381101561089d576040517f08c379a000000000000000000000000000000000000000000000000000000000815260040161089490611ea9565b60405180910390fd5b6108aa8286868403610d40565b60019250505092915050565b6000806108c1610d38565b90506108ce818585610f97565b600191505092915050565b6000603460008473ffffffffffffffffffffffffffffffffffffffff1673ffffffffffffffffffffffffffffffffffffffff16815260200190815260200160002060008373ffffffffffffffffffffffffffffffffffffffff1673ffffffffffffffffffffffffffffffffffffffff16815260200190815260200160002054905092915050565b610968610d38565b73ffffffffffffffffffffffffffffffffffffffff16610986610710565b73ffffffffffffffffffffffffffffffffffffffff16146109dc576040517f08c379a00000000000000000000000000000000000000000000000000000000081526004016109d390611e09565b60405180910390fd5b6000604051806040016040528060cc8054905081526020016103e8815250905060005b60ca80549050811015610aeb57600060ca8281548110610a48577f4e487b7100000000000000000000000000000000000000000000000000000000600052603260045260246000fd5b906000526020600020906003020160000160009054906101000a900473ffffffffffffffffffffffffffffffffffffffff1690506103e860cb60008373ffffffffffffffffffffffffffffffffffffffff1673ffffffffffffffffffffffffffffffffffffffff16815260200190815260200160002060008560000151815260200190815260200160002081905550508080610ae390612115565b9150506109ff565b5062093a80600160cc80549050610b029190611fe7565b610b0c9190611f91565b8160000151101580610b235750600060cc80549050145b610b2c57600080fd5b60cc8190806001815401808255809150506001900390600052602060002090600202016000909190919091506000820151816000015560208201518160010155505050565b60ca60405180606001604052803373ffffffffffffffffffffffffffffffffffffffff16815260200183815260200142815250908060018154018082558091505060019003906000526020600020906003020160009091909190915060008201518160000160006101000a81548173ffffffffffffffffffffffffffffffffffffffff021916908373ffffffffffffffffffffffffffffffffffffffff1602179055506020820151816001019080519060200190610c30929190611779565b5060408201518160020155505050565b610c48610d38565b73ffffffffffffffffffffffffffffffffffffffff16610c66610710565b73ffffffffffffffffffffffffffffffffffffffff1614610cbc576040517f08c379a0000000000000000000000000000000000000000000000000000000008152600401610cb390611e09565b60405180910390fd5b600073ffffffffffffffffffffffffffffffffffffffff168173ffffffffffffffffffffffffffffffffffffffff161415610d2c576040517f08c379a0000000000000000000000000000000000000000000000000000000008152600401610d2390611d69565b60405180910390fd5b610d35816113a7565b50565b600033905090565b600073ffffffffffffffffffffffffffffffffffffffff168373ffffffffffffffffffffffffffffffffffffffff161415610db0576040517f08c379a0000000000000000000000000000000000000000000000000000000008152600401610da790611e69565b60405180910390fd5b600073ffffffffffffffffffffffffffffffffffffffff168273ffffffffffffffffffffffffffffffffffffffff161415610e20576040517f08c379a0000000000000000000000000000000000000000000000000000000008152600401610e1790611d89565b60405180910390fd5b80603460008573ffffffffffffffffffffffffffffffffffffffff1673ffffffffffffffffffffffffffffffffffffffff16815260200190815260200160002060008473ffffffffffffffffffffffffffffffffffffffff1673ffffffffffffffffffffffffffffffffffffffff168152602001908152602001600020819055508173ffffffffffffffffffffffffffffffffffffffff168373ffffffffffffffffffffffffffffffffffffffff167f8c5be1e5ebec7d5bd14f71427d1e84f3dd0314c0f7b2291e5b200ac8c7c3b92583604051610efe9190611ee9565b60405180910390a3505050565b6000610f1784846108d9565b90507fffffffffffffffffffffffffffffffffffffffffffffffffffffffffffffffff8114610f915781811015610f83576040517f08c379a0000000000000000000000000000000000000000000000000000000008152600401610f7a90611da9565b60405180910390fd5b610f908484848403610d40565b5b50505050565b600073ffffffffffffffffffffffffffffffffffffffff168373ffffffffffffffffffffffffffffffffffffffff161415611007576040517f08c379a0000000000000000000000000000000000000000000000000000000008152600401610ffe90611e29565b60405180910390fd5b600073ffffffffffffffffffffffffffffffffffffffff168273ffffffffffffffffffffffffffffffffffffffff161415611077576040517f08c379a000000000000000000000000000000000000000000000000000000000815260040161106e90611d29565b60405180910390fd5b61108283838361146d565b6000603360008573ffffffffffffffffffffffffffffffffffffffff1673ffffffffffffffffffffffffffffffffffffffff16815260200190815260200160002054905081811015611109576040517f08c379a000000000000000000000000000000000000000000000000000000000815260040161110090611dc9565b60405180910390fd5b818103603360008673ffffffffffffffffffffffffffffffffffffffff1673ffffffffffffffffffffffffffffffffffffffff1681526020019081526020016000208190555081603360008573ffffffffffffffffffffffffffffffffffffffff1673ffffffffffffffffffffffffffffffffffffffff168152602001908152602001600020600082825461119e9190611f91565b925050819055508273ffffffffffffffffffffffffffffffffffffffff168473ffffffffffffffffffffffffffffffffffffffff167fddf252ad1be2c89b69c2b068fc378daa952ba7f163c4a11628f55a4df523b3ef846040516112029190611ee9565b60405180910390a3611215848484611472565b50505050565b600061122630611477565b15905090565b600060019054906101000a900460ff1661127b576040517f08c379a000000000000000000000000000000000000000000000000000000000815260040161127290611e89565b60405180910390fd5b6112848161149a565b50565b600060019054906101000a900460ff166112d6576040517f08c379a00000000000000000000000000000000000000000000000000000000081526004016112cd90611e89565b60405180910390fd5b6112e08282611536565b5050565b600060019054906101000a900460ff16611333576040517f08c379a000000000000000000000000000000000000000000000000000000000815260040161132a90611e89565b60405180910390fd5b61133b6115b7565b565b61134561047e565b8161134e61043c565b6113589190611f91565b1115611399576040517f08c379a000000000000000000000000000000000000000000000000000000000815260040161139090611e49565b60405180910390fd5b6113a38282611618565b5050565b6000609860009054906101000a900473ffffffffffffffffffffffffffffffffffffffff16905081609860006101000a81548173ffffffffffffffffffffffffffffffffffffffff021916908373ffffffffffffffffffffffffffffffffffffffff1602179055508173ffffffffffffffffffffffffffffffffffffffff168173ffffffffffffffffffffffffffffffffffffffff167f8be0079c531659141344cd1fd0a4f28419497f9722a3daafe3b4186f6b6457e060405160405180910390a35050565b505050565b505050565b6000808273ffffffffffffffffffffffffffffffffffffffff163b119050919050565b600060019054906101000a900460ff166114e9576040517f08c379a00000000000000000000000000000000000000000000000000000000081526004016114e090611e89565b60405180910390fd5b6000811161152c576040517f08c379a000000000000000000000000000000000000000000000000000000000815260040161152390611d49565b60405180910390fd5b8060658190555050565b600060019054906101000a900460ff16611585576040517f08c379a000000000000000000000000000000000000000000000000000000000815260040161157c90611e89565b60405180910390fd5b816036908051906020019061159b929190611779565b5080603790805190602001906115b2929190611779565b505050565b600060019054906101000a900460ff16611606576040517f08c379a00000000000000000000000000000000000000000000000000000000081526004016115fd90611e89565b60405180910390fd5b611616611611610d38565b6113a7565b565b600073ffffffffffffffffffffffffffffffffffffffff168273ffffffffffffffffffffffffffffffffffffffff161415611688576040517f08c379a000000000000000000000000000000000000000000000000000000000815260040161167f90611ec9565b60405180910390fd5b6116946000838361146d565b80603560008282546116a69190611f91565b9250508190555080603360008473ffffffffffffffffffffffffffffffffffffffff1673ffffffffffffffffffffffffffffffffffffffff16815260200190815260200160002060008282546116fc9190611f91565b925050819055508173ffffffffffffffffffffffffffffffffffffffff16600073ffffffffffffffffffffffffffffffffffffffff167fddf252ad1be2c89b69c2b068fc378daa952ba7f163c4a11628f55a4df523b3ef836040516117619190611ee9565b60405180910390a361177560008383611472565b5050565b828054611785906120b2565b90600052602060002090601f0160209004810192826117a757600085556117ee565b82601f106117c057805160ff19168380011785556117ee565b828001600101855582156117ee579182015b828111156117ed5782518255916020019190600101906117d2565b5b5090506117fb91906117ff565b5090565b5b80821115611818576000816000905550600101611800565b5090565b600061182f61182a84611f44565b611f1f565b90508281526020810184848401111561184757600080fd5b611852848285612070565b509392505050565b60008135905061186981612590565b92915050565b600082601f83011261188057600080fd5b813561189084826020860161181c565b91505092915050565b6000813590506118a8816125a7565b92915050565b6000602082840312156118c057600080fd5b60006118ce8482850161185a565b91505092915050565b600080604083850312156118ea57600080fd5b60006118f88582860161185a565b92505060206119098582860161185a565b9150509250929050565b60008060006060848603121561192857600080fd5b60006119368682870161185a565b93505060206119478682870161185a565b925050604061195886828701611899565b9150509250925092565b6000806040838503121561197557600080fd5b60006119838582860161185a565b925050602061199485828601611899565b9150509250929050565b6000602082840312156119b057600080fd5b600082013567ffffffffffffffff8111156119ca57600080fd5b6119d68482850161186f565b91505092915050565b600080600080608085870312156119f557600080fd5b600085013567ffffffffffffffff811115611a0f57600080fd5b611a1b8782880161186f565b945050602085013567ffffffffffffffff811115611a3857600080fd5b611a448782880161186f565b9350506040611a5587828801611899565b9250506060611a6687828801611899565b91505092959194509250565b611a7b8161201b565b82525050565b611a8a8161202d565b82525050565b6000611a9b82611f75565b611aa58185611f80565b9350611ab581856020860161207f565b611abe816121eb565b840191505092915050565b6000611ad6602383611f80565b9150611ae1826121fc565b604082019050919050565b6000611af9601583611f80565b9150611b048261224b565b602082019050919050565b6000611b1c602683611f80565b9150611b2782612274565b604082019050919050565b6000611b3f602283611f80565b9150611b4a826122c3565b604082019050919050565b6000611b62601d83611f80565b9150611b6d82612312565b602082019050919050565b6000611b85602683611f80565b9150611b908261233b565b604082019050919050565b6000611ba8602e83611f80565b9150611bb38261238a565b604082019050919050565b6000611bcb602083611f80565b9150611bd6826123d9565b602082019050919050565b6000611bee602583611f80565b9150611bf982612402565b604082019050919050565b6000611c11601983611f80565b9150611c1c82612451565b602082019050919050565b6000611c34602483611f80565b9150611c3f8261247a565b604082019050919050565b6000611c57602b83611f80565b9150611c62826124c9565b604082019050919050565b6000611c7a602583611f80565b9150611c8582612518565b604082019050919050565b6000611c9d601f83611f80565b9150611ca882612567565b602082019050919050565b611cbc81612059565b82525050565b611ccb81612063565b82525050565b6000602082019050611ce66000830184611a72565b92915050565b6000602082019050611d016000830184611a81565b92915050565b60006020820190508181036000830152611d218184611a90565b905092915050565b60006020820190508181036000830152611d4281611ac9565b9050919050565b60006020820190508181036000830152611d6281611aec565b9050919050565b60006020820190508181036000830152611d8281611b0f565b9050919050565b60006020820190508181036000830152611da281611b32565b9050919050565b60006020820190508181036000830152611dc281611b55565b9050919050565b60006020820190508181036000830152611de281611b78565b9050919050565b60006020820190508181036000830152611e0281611b9b565b9050919050565b60006020820190508181036000830152611e2281611bbe565b9050919050565b60006020820190508181036000830152611e4281611be1565b9050919050565b60006020820190508181036000830152611e6281611c04565b9050919050565b60006020820190508181036000830152611e8281611c27565b9050919050565b60006020820190508181036000830152611ea281611c4a565b9050919050565b60006020820190508181036000830152611ec281611c6d565b9050919050565b60006020820190508181036000830152611ee281611c90565b9050919050565b6000602082019050611efe6000830184611cb3565b92915050565b6000602082019050611f196000830184611cc2565b92915050565b6000611f29611f3a565b9050611f3582826120e4565b919050565b6000604051905090565b600067ffffffffffffffff821115611f5f57611f5e6121bc565b5b611f68826121eb565b9050602081019050919050565b600081519050919050565b600082825260208201905092915050565b6000611f9c82612059565b9150611fa783612059565b9250827fffffffffffffffffffffffffffffffffffffffffffffffffffffffffffffffff03821115611fdc57611fdb61215e565b5b828201905092915050565b6000611ff282612059565b9150611ffd83612059565b9250828210156120105761200f61215e565b5b828203905092915050565b600061202682612039565b9050919050565b60008115159050919050565b600073ffffffffffffffffffffffffffffffffffffffff82169050919050565b6000819050919050565b600060ff82169050919050565b82818337600083830152505050565b60005b8381101561209d578082015181840152602081019050612082565b838111156120ac576000848401525b50505050565b600060028204905060018216806120ca57607f821691505b602082108114156120de576120dd61218d565b5b50919050565b6120ed826121eb565b810181811067ffffffffffffffff8211171561210c5761210b6121bc565b5b80604052505050565b600061212082612059565b91507fffffffffffffffffffffffffffffffffffffffffffffffffffffffffffffffff8214156121535761215261215e565b5b600182019050919050565b7f4e487b7100000000000000000000000000000000000000000000000000000000600052601160045260246000fd5b7f4e487b7100000000000000000000000000000000000000000000000000000000600052602260045260246000fd5b7f4e487b7100000000000000000000000000000000000000000000000000000000600052604160045260246000fd5b6000601f19601f8301169050919050565b7f45524332303a207472616e7366657220746f20746865207a65726f206164647260008201527f6573730000000000000000000000000000000000000000000000000000000000602082015250565b7f45524332304361707065643a2063617020697320300000000000000000000000600082015250565b7f4f776e61626c653a206e6577206f776e657220697320746865207a65726f206160008201527f6464726573730000000000000000000000000000000000000000000000000000602082015250565b7f45524332303a20617070726f766520746f20746865207a65726f20616464726560008201527f7373000000000000000000000000000000000000000000000000000000000000602082015250565b7f45524332303a20696e73756666696369656e7420616c6c6f77616e6365000000600082015250565b7f45524332303a207472616e7366657220616d6f756e742065786365656473206260008201527f616c616e63650000000000000000000000000000000000000000000000000000602082015250565b7f496e697469616c697a61626c653a20636f6e747261637420697320616c72656160008201527f647920696e697469616c697a6564000000000000000000000000000000000000602082015250565b7f4f776e61626c653a2063616c6c6572206973206e6f7420746865206f776e6572600082015250565b7f45524332303a207472616e736665722066726f6d20746865207a65726f20616460008201527f6472657373000000000000000000000000000000000000000000000000000000602082015250565b7f45524332304361707065643a2063617020657863656564656400000000000000600082015250565b7f45524332303a20617070726f76652066726f6d20746865207a65726f2061646460008201527f7265737300000000000000000000000000000000000000000000000000000000602082015250565b7f496e697469616c697a61626c653a20636f6e7472616374206973206e6f74206960008201527f6e697469616c697a696e67000000000000000000000000000000000000000000602082015250565b7f45524332303a2064656372656173656420616c6c6f77616e63652062656c6f7760008201527f207a65726f000000000000000000000000000000000000000000000000000000602082015250565b7f45524332303a206d696e7420746f20746865207a65726f206164647265737300600082015250565b6125998161201b565b81146125a457600080fd5b50565b6125b081612059565b81146125bb57600080fd5b5056fea26469706673582212201825f73aa17fdba1198b529ed17a70e03cdc2b2dcc81f25a70bc43e56f689c0264736f6c63430008040033",
  "linkReferences": {},
  "deployedLinkReferences": {}
}