{
  "_format": "hh-sol-artifact-1",
  "contractName": "AnemonethV1",
  "sourceName": "contracts/anemonethV1.sol",
  "abi": [
    {
      "anonymous": false,
      "inputs": [
        {
          "indexed": true,
          "internalType": "address",
          "name": "owner",
          "type": "address"
        },
        {
          "indexed": true,
          "internalType": "address",
          "name": "spender",
          "type": "address"
        },
        {
          "indexed": false,
          "internalType": "uint256",
          "name": "value",
          "type": "uint256"
        }
      ],
      "name": "Approval",
      "type": "event"
    },
    {
      "anonymous": false,
      "inputs": [
        {
          "indexed": true,
          "internalType": "address",
          "name": "_addr",
          "type": "address"
        },
        {
          "indexed": false,
          "internalType": "uint256",
          "name": "_amount",
          "type": "uint256"
        }
      ],
      "name": "Distribution",
      "type": "event"
    },
    {
      "anonymous": false,
      "inputs": [
        {
          "indexed": true,
          "internalType": "address",
          "name": "previousOwner",
          "type": "address"
        },
        {
          "indexed": true,
          "internalType": "address",
          "name": "newOwner",
          "type": "address"
        }
      ],
      "name": "OwnershipTransferred",
      "type": "event"
    },
    {
      "anonymous": false,
      "inputs": [
        {
          "indexed": true,
          "internalType": "address",
          "name": "from",
          "type": "address"
        },
        {
          "indexed": true,
          "internalType": "address",
          "name": "to",
          "type": "address"
        },
        {
          "indexed": false,
          "internalType": "uint256",
          "name": "value",
          "type": "uint256"
        }
      ],
      "name": "Transfer",
      "type": "event"
    },
    {
      "stateMutability": "payable",
      "type": "fallback"
    },
    {
      "inputs": [
        {
          "internalType": "address",
          "name": "owner",
          "type": "address"
        },
        {
          "internalType": "address",
          "name": "spender",
          "type": "address"
        }
      ],
      "name": "allowance",
      "outputs": [
        {
          "internalType": "uint256",
          "name": "",
          "type": "uint256"
        }
      ],
      "stateMutability": "view",
      "type": "function"
    },
    {
      "inputs": [
        {
          "internalType": "address",
          "name": "spender",
          "type": "address"
        },
        {
          "internalType": "uint256",
          "name": "amount",
          "type": "uint256"
        }
      ],
      "name": "approve",
      "outputs": [
        {
          "internalType": "bool",
          "name": "",
          "type": "bool"
        }
      ],
      "stateMutability": "nonpayable",
      "type": "function"
    },
    {
      "inputs": [
        {
          "internalType": "address",
          "name": "account",
          "type": "address"
        }
      ],
      "name": "balanceOf",
      "outputs": [
        {
          "internalType": "uint256",
          "name": "",
          "type": "uint256"
        }
      ],
      "stateMutability": "view",
      "type": "function"
    },
    {
      "inputs": [],
      "name": "cap",
      "outputs": [
        {
          "internalType": "uint256",
          "name": "",
          "type": "uint256"
        }
      ],
      "stateMutability": "view",
      "type": "function"
    },
    {
      "inputs": [],
      "name": "decimals",
      "outputs": [
        {
          "internalType": "uint8",
          "name": "",
          "type": "uint8"
        }
      ],
      "stateMutability": "view",
      "type": "function"
    },
    {
      "inputs": [
        {
          "internalType": "address",
          "name": "spender",
          "type": "address"
        },
        {
          "internalType": "uint256",
          "name": "subtractedValue",
          "type": "uint256"
        }
      ],
      "name": "decreaseAllowance",
      "outputs": [
        {
          "internalType": "bool",
          "name": "",
          "type": "bool"
        }
      ],
      "stateMutability": "nonpayable",
      "type": "function"
    },
    {
      "inputs": [
        {
          "internalType": "address",
          "name": "spender",
          "type": "address"
        },
        {
          "internalType": "uint256",
          "name": "addedValue",
          "type": "uint256"
        }
      ],
      "name": "increaseAllowance",
      "outputs": [
        {
          "internalType": "bool",
          "name": "",
          "type": "bool"
        }
      ],
      "stateMutability": "nonpayable",
      "type": "function"
    },
    {
      "inputs": [
        {
          "internalType": "string",
          "name": "name_",
          "type": "string"
        },
        {
          "internalType": "string",
          "name": "symbol_",
          "type": "string"
        },
        {
          "internalType": "uint256",
          "name": "cap_",
          "type": "uint256"
        },
        {
          "internalType": "uint256",
          "name": "initSupply",
          "type": "uint256"
        }
      ],
      "name": "initialize",
      "outputs": [],
      "stateMutability": "nonpayable",
      "type": "function"
    },
    {
      "inputs": [],
      "name": "name",
      "outputs": [
        {
          "internalType": "string",
          "name": "",
          "type": "string"
        }
      ],
      "stateMutability": "view",
      "type": "function"
    },
    {
      "inputs": [],
      "name": "owner",
      "outputs": [
        {
          "internalType": "address",
          "name": "",
          "type": "address"
        }
      ],
      "stateMutability": "view",
      "type": "function"
    },
    {
      "inputs": [
        {
          "internalType": "string",
          "name": "_username",
          "type": "string"
        }
      ],
      "name": "register",
      "outputs": [],
      "stateMutability": "nonpayable",
      "type": "function"
    },
    {
      "inputs": [],
      "name": "renounceOwnership",
      "outputs": [],
      "stateMutability": "nonpayable",
      "type": "function"
    },
    {
      "inputs": [],
      "name": "settleUP",
      "outputs": [],
      "stateMutability": "nonpayable",
      "type": "function"
    },
    {
      "inputs": [],
      "name": "symbol",
      "outputs": [
        {
          "internalType": "string",
          "name": "",
          "type": "string"
        }
      ],
      "stateMutability": "view",
      "type": "function"
    },
    {
      "inputs": [],
      "name": "totalSupply",
      "outputs": [
        {
          "internalType": "uint256",
          "name": "",
          "type": "uint256"
        }
      ],
      "stateMutability": "view",
      "type": "function"
    },
    {
      "inputs": [
        {
          "internalType": "address",
          "name": "to",
          "type": "address"
        },
        {
          "internalType": "uint256",
          "name": "amount",
          "type": "uint256"
        }
      ],
      "name": "transfer",
      "outputs": [
        {
          "internalType": "bool",
          "name": "",
          "type": "bool"
        }
      ],
      "stateMutability": "nonpayable",
      "type": "function"
    },
    {
      "inputs": [
        {
          "internalType": "address",
          "name": "from",
          "type": "address"
        },
        {
          "internalType": "address",
          "name": "to",
          "type": "address"
        },
        {
          "internalType": "uint256",
          "name": "amount",
          "type": "uint256"
        }
      ],
      "name": "transferFrom",
      "outputs": [
        {
          "internalType": "bool",
          "name": "",
          "type": "bool"
        }
      ],
      "stateMutability": "nonpayable",
      "type": "function"
    },
    {
      "inputs": [
        {
          "internalType": "address",
          "name": "newOwner",
          "type": "address"
        }
      ],
      "name": "transferOwnership",
      "outputs": [],
      "stateMutability": "nonpayable",
      "type": "function"
    },
    {
      "stateMutability": "payable",
      "type": "receive"
    }
  ],
  "bytecode": "0x608060405234801561001057600080fd5b50612929806100206000396000f3fe60806040526004361061010d5760003560e01c806370a0823111610095578063a457c2d711610064578063a457c2d714610363578063a9059cbb146103a0578063dd62ed3e146103dd578063f2c298be1461041a578063f2fde38b1461044357610114565b806370a08231146102b9578063715018a6146102f65780638da5cb5b1461030d57806395d89b411461033857610114565b8063313ce567116100dc578063313ce567146101e6578063355274ea14610211578063395093511461023c5780635bb92c17146102795780636fe0e3951461029057610114565b806306fdde0314610116578063095ea7b31461014157806318160ddd1461017e57806323b872dd146101a957610114565b3661011457005b005b34801561012257600080fd5b5061012b61046c565b604051610138919061203c565b60405180910390f35b34801561014d57600080fd5b5061016860048036038101906101639190611c97565b6104fe565b6040516101759190612021565b60405180910390f35b34801561018a57600080fd5b50610193610521565b6040516101a0919061221e565b60405180910390f35b3480156101b557600080fd5b506101d060048036038101906101cb9190611c48565b61052b565b6040516101dd9190612021565b60405180910390f35b3480156101f257600080fd5b506101fb61055a565b6040516102089190612239565b60405180910390f35b34801561021d57600080fd5b50610226610563565b604051610233919061221e565b60405180910390f35b34801561024857600080fd5b50610263600480360381019061025e9190611c97565b61056d565b6040516102709190612021565b60405180910390f35b34801561028557600080fd5b5061028e610617565b005b34801561029c57600080fd5b506102b760048036038101906102b29190611d14565b6106ad565b005b3480156102c557600080fd5b506102e060048036038101906102db9190611be3565b6107ba565b6040516102ed919061221e565b60405180910390f35b34801561030257600080fd5b5061030b610803565b005b34801561031957600080fd5b5061032261088b565b60405161032f9190612006565b60405180910390f35b34801561034457600080fd5b5061034d6108b5565b60405161035a919061203c565b60405180910390f35b34801561036f57600080fd5b5061038a60048036038101906103859190611c97565b610947565b6040516103979190612021565b60405180910390f35b3480156103ac57600080fd5b506103c760048036038101906103c29190611c97565b610a31565b6040516103d49190612021565b60405180910390f35b3480156103e957600080fd5b5061040460048036038101906103ff9190611c0c565b610a54565b604051610411919061221e565b60405180910390f35b34801561042657600080fd5b50610441600480360381019061043c9190611cd3565b610adb565b005b34801561044f57600080fd5b5061046a60048036038101906104659190611be3565b610baa565b005b60606036805461047b906123e7565b80601f01602080910402602001604051908101604052809291908181526020018280546104a7906123e7565b80156104f45780601f106104c9576101008083540402835291602001916104f4565b820191906000526020600020905b8154815290600101906020018083116104d757829003601f168201915b5050505050905090565b600080610509610ca2565b9050610516818585610caa565b600191505092915050565b6000603554905090565b600080610536610ca2565b9050610543858285610e75565b61054e858585610f01565b60019150509392505050565b60006012905090565b6000606554905090565b600080610578610ca2565b905061060c818585603460008673ffffffffffffffffffffffffffffffffffffffff1673ffffffffffffffffffffffffffffffffffffffff16815260200190815260200160002060008973ffffffffffffffffffffffffffffffffffffffff1673ffffffffffffffffffffffffffffffffffffffff1681526020019081526020016000205461060791906122c6565b610caa565b600191505092915050565b61061f610ca2565b73ffffffffffffffffffffffffffffffffffffffff1661063d61088b565b73ffffffffffffffffffffffffffffffffffffffff1614610693576040517f08c379a000000000000000000000000000000000000000000000000000000000815260040161068a9061213e565b60405180910390fd5b61069b611185565b6106a361133d565b6106ab611398565b565b600060019054906101000a900460ff166106d55760008054906101000a900460ff16156106de565b6106dd611550565b5b61071d576040517f08c379a00000000000000000000000000000000000000000000000000000000081526004016107149061211e565b60405180910390fd5b60008060019054906101000a900460ff16159050801561076d576001600060016101000a81548160ff02191690831515021790555060016000806101000a81548160ff0219169083151502179055505b61077683611561565b61078085856115bc565b610788611619565b6107923083611672565b80156107b35760008060016101000a81548160ff0219169083151502179055505b5050505050565b6000603360008373ffffffffffffffffffffffffffffffffffffffff1673ffffffffffffffffffffffffffffffffffffffff168152602001908152602001600020549050919050565b61080b610ca2565b73ffffffffffffffffffffffffffffffffffffffff1661082961088b565b73ffffffffffffffffffffffffffffffffffffffff161461087f576040517f08c379a00000000000000000000000000000000000000000000000000000000081526004016108769061213e565b60405180910390fd5b61088960006116dc565b565b6000609860009054906101000a900473ffffffffffffffffffffffffffffffffffffffff16905090565b6060603780546108c4906123e7565b80601f01602080910402602001604051908101604052809291908181526020018280546108f0906123e7565b801561093d5780601f106109125761010080835404028352916020019161093d565b820191906000526020600020905b81548152906001019060200180831161092057829003601f168201915b5050505050905090565b600080610952610ca2565b90506000603460008373ffffffffffffffffffffffffffffffffffffffff1673ffffffffffffffffffffffffffffffffffffffff16815260200190815260200160002060008673ffffffffffffffffffffffffffffffffffffffff1673ffffffffffffffffffffffffffffffffffffffff16815260200190815260200160002054905083811015610a18576040517f08c379a0000000000000000000000000000000000000000000000000000000008152600401610a0f906121de565b60405180910390fd5b610a258286868403610caa565b60019250505092915050565b600080610a3c610ca2565b9050610a49818585610f01565b600191505092915050565b6000603460008473ffffffffffffffffffffffffffffffffffffffff1673ffffffffffffffffffffffffffffffffffffffff16815260200190815260200160002060008373ffffffffffffffffffffffffffffffffffffffff1673ffffffffffffffffffffffffffffffffffffffff16815260200190815260200160002054905092915050565b60ca60405180606001604052803373ffffffffffffffffffffffffffffffffffffffff16815260200183815260200142815250908060018154018082558091505060019003906000526020600020906003020160009091909190915060008201518160000160006101000a81548173ffffffffffffffffffffffffffffffffffffffff021916908373ffffffffffffffffffffffffffffffffffffffff1602179055506020820151816001019080519060200190610b9a929190611aae565b5060408201518160020155505050565b610bb2610ca2565b73ffffffffffffffffffffffffffffffffffffffff16610bd061088b565b73ffffffffffffffffffffffffffffffffffffffff1614610c26576040517f08c379a0000000000000000000000000000000000000000000000000000000008152600401610c1d9061213e565b60405180910390fd5b600073ffffffffffffffffffffffffffffffffffffffff168173ffffffffffffffffffffffffffffffffffffffff161415610c96576040517f08c379a0000000000000000000000000000000000000000000000000000000008152600401610c8d9061209e565b60405180910390fd5b610c9f816116dc565b50565b600033905090565b600073ffffffffffffffffffffffffffffffffffffffff168373ffffffffffffffffffffffffffffffffffffffff161415610d1a576040517f08c379a0000000000000000000000000000000000000000000000000000000008152600401610d119061219e565b60405180910390fd5b600073ffffffffffffffffffffffffffffffffffffffff168273ffffffffffffffffffffffffffffffffffffffff161415610d8a576040517f08c379a0000000000000000000000000000000000000000000000000000000008152600401610d81906120be565b60405180910390fd5b80603460008573ffffffffffffffffffffffffffffffffffffffff1673ffffffffffffffffffffffffffffffffffffffff16815260200190815260200160002060008473ffffffffffffffffffffffffffffffffffffffff1673ffffffffffffffffffffffffffffffffffffffff168152602001908152602001600020819055508173ffffffffffffffffffffffffffffffffffffffff168373ffffffffffffffffffffffffffffffffffffffff167f8c5be1e5ebec7d5bd14f71427d1e84f3dd0314c0f7b2291e5b200ac8c7c3b92583604051610e68919061221e565b60405180910390a3505050565b6000610e818484610a54565b90507fffffffffffffffffffffffffffffffffffffffffffffffffffffffffffffffff8114610efb5781811015610eed576040517f08c379a0000000000000000000000000000000000000000000000000000000008152600401610ee4906120de565b60405180910390fd5b610efa8484848403610caa565b5b50505050565b600073ffffffffffffffffffffffffffffffffffffffff168373ffffffffffffffffffffffffffffffffffffffff161415610f71576040517f08c379a0000000000000000000000000000000000000000000000000000000008152600401610f689061215e565b60405180910390fd5b600073ffffffffffffffffffffffffffffffffffffffff168273ffffffffffffffffffffffffffffffffffffffff161415610fe1576040517f08c379a0000000000000000000000000000000000000000000000000000000008152600401610fd89061205e565b60405180910390fd5b610fec8383836117a2565b6000603360008573ffffffffffffffffffffffffffffffffffffffff1673ffffffffffffffffffffffffffffffffffffffff16815260200190815260200160002054905081811015611073576040517f08c379a000000000000000000000000000000000000000000000000000000000815260040161106a906120fe565b60405180910390fd5b818103603360008673ffffffffffffffffffffffffffffffffffffffff1673ffffffffffffffffffffffffffffffffffffffff1681526020019081526020016000208190555081603360008573ffffffffffffffffffffffffffffffffffffffff1673ffffffffffffffffffffffffffffffffffffffff168152602001908152602001600020600082825461110891906122c6565b925050819055508273ffffffffffffffffffffffffffffffffffffffff168473ffffffffffffffffffffffffffffffffffffffff167fddf252ad1be2c89b69c2b068fc378daa952ba7f163c4a11628f55a4df523b3ef8460405161116c919061221e565b60405180910390a361117f8484846117a7565b50505050565b6000604051806040016040528060cc80549050815260200160008152509050600080600090505b60ca805490508110156112ac57600060ca82815481106111f5577f4e487b7100000000000000000000000000000000000000000000000000000000600052603260045260246000fd5b906000526020600020906003020160000160009054906101000a900473ffffffffffffffffffffffffffffffffffffffff16905060006103e890508060cb60008473ffffffffffffffffffffffffffffffffffffffff1673ffffffffffffffffffffffffffffffffffffffff16815260200190815260200160002060008760000151815260200190815260200160002081905550808461129591906122c6565b9350505080806112a49061244a565b9150506111ac565b508082602001818152505062093a80600160cc805490506112cd919061231c565b6112d791906122c6565b82600001511015806112ee5750600060cc80549050145b6112f757600080fd5b60cc829080600181540180825580915050600190039060005260206000209060020201600090919091909150600082015181600001556020820151816001015550505050565b6113963060cc80805490508154811061137f577f4e487b7100000000000000000000000000000000000000000000000000000000600052603260045260246000fd5b906000526020600020906002020160010154611672565b565b60005b60ca8054905081101561154d57600060ca82815481106113e4577f4e487b7100000000000000000000000000000000000000000000000000000000600052603260045260246000fd5b906000526020600020906003020160000160009054906101000a900473ffffffffffffffffffffffffffffffffffffffff169050600060cc808054905081548110611458577f4e487b7100000000000000000000000000000000000000000000000000000000600052603260045260246000fd5b9060005260206000209060020201600001549050600060cb600060ca86815481106114ac577f4e487b7100000000000000000000000000000000000000000000000000000000600052603260045260246000fd5b906000526020600020906003020160000160009054906101000a900473ffffffffffffffffffffffffffffffffffffffff1673ffffffffffffffffffffffffffffffffffffffff1673ffffffffffffffffffffffffffffffffffffffff1681526020019081526020016000206000838152602001908152602001600020549050611537308483610f01565b50505080806115459061244a565b91505061139b565b50565b600061155b306117ac565b15905090565b600060019054906101000a900460ff166115b0576040517f08c379a00000000000000000000000000000000000000000000000000000000081526004016115a7906121be565b60405180910390fd5b6115b9816117cf565b50565b600060019054906101000a900460ff1661160b576040517f08c379a0000000000000000000000000000000000000000000000000000000008152600401611602906121be565b60405180910390fd5b611615828261186b565b5050565b600060019054906101000a900460ff16611668576040517f08c379a000000000000000000000000000000000000000000000000000000000815260040161165f906121be565b60405180910390fd5b6116706118ec565b565b61167a610563565b81611683610521565b61168d91906122c6565b11156116ce576040517f08c379a00000000000000000000000000000000000000000000000000000000081526004016116c59061217e565b60405180910390fd5b6116d8828261194d565b5050565b6000609860009054906101000a900473ffffffffffffffffffffffffffffffffffffffff16905081609860006101000a81548173ffffffffffffffffffffffffffffffffffffffff021916908373ffffffffffffffffffffffffffffffffffffffff1602179055508173ffffffffffffffffffffffffffffffffffffffff168173ffffffffffffffffffffffffffffffffffffffff167f8be0079c531659141344cd1fd0a4f28419497f9722a3daafe3b4186f6b6457e060405160405180910390a35050565b505050565b505050565b6000808273ffffffffffffffffffffffffffffffffffffffff163b119050919050565b600060019054906101000a900460ff1661181e576040517f08c379a0000000000000000000000000000000000000000000000000000000008152600401611815906121be565b60405180910390fd5b60008111611861576040517f08c379a00000000000000000000000000000000000000000000000000000000081526004016118589061207e565b60405180910390fd5b8060658190555050565b600060019054906101000a900460ff166118ba576040517f08c379a00000000000000000000000000000000000000000000000000000000081526004016118b1906121be565b60405180910390fd5b81603690805190602001906118d0929190611aae565b5080603790805190602001906118e7929190611aae565b505050565b600060019054906101000a900460ff1661193b576040517f08c379a0000000000000000000000000000000000000000000000000000000008152600401611932906121be565b60405180910390fd5b61194b611946610ca2565b6116dc565b565b600073ffffffffffffffffffffffffffffffffffffffff168273ffffffffffffffffffffffffffffffffffffffff1614156119bd576040517f08c379a00000000000000000000000000000000000000000000000000000000081526004016119b4906121fe565b60405180910390fd5b6119c9600083836117a2565b80603560008282546119db91906122c6565b9250508190555080603360008473ffffffffffffffffffffffffffffffffffffffff1673ffffffffffffffffffffffffffffffffffffffff1681526020019081526020016000206000828254611a3191906122c6565b925050819055508173ffffffffffffffffffffffffffffffffffffffff16600073ffffffffffffffffffffffffffffffffffffffff167fddf252ad1be2c89b69c2b068fc378daa952ba7f163c4a11628f55a4df523b3ef83604051611a96919061221e565b60405180910390a3611aaa600083836117a7565b5050565b828054611aba906123e7565b90600052602060002090601f016020900481019282611adc5760008555611b23565b82601f10611af557805160ff1916838001178555611b23565b82800160010185558215611b23579182015b82811115611b22578251825591602001919060010190611b07565b5b509050611b309190611b34565b5090565b5b80821115611b4d576000816000905550600101611b35565b5090565b6000611b64611b5f84612279565b612254565b905082815260208101848484011115611b7c57600080fd5b611b878482856123a5565b509392505050565b600081359050611b9e816128c5565b92915050565b600082601f830112611bb557600080fd5b8135611bc5848260208601611b51565b91505092915050565b600081359050611bdd816128dc565b92915050565b600060208284031215611bf557600080fd5b6000611c0384828501611b8f565b91505092915050565b60008060408385031215611c1f57600080fd5b6000611c2d85828601611b8f565b9250506020611c3e85828601611b8f565b9150509250929050565b600080600060608486031215611c5d57600080fd5b6000611c6b86828701611b8f565b9350506020611c7c86828701611b8f565b9250506040611c8d86828701611bce565b9150509250925092565b60008060408385031215611caa57600080fd5b6000611cb885828601611b8f565b9250506020611cc985828601611bce565b9150509250929050565b600060208284031215611ce557600080fd5b600082013567ffffffffffffffff811115611cff57600080fd5b611d0b84828501611ba4565b91505092915050565b60008060008060808587031215611d2a57600080fd5b600085013567ffffffffffffffff811115611d4457600080fd5b611d5087828801611ba4565b945050602085013567ffffffffffffffff811115611d6d57600080fd5b611d7987828801611ba4565b9350506040611d8a87828801611bce565b9250506060611d9b87828801611bce565b91505092959194509250565b611db081612350565b82525050565b611dbf81612362565b82525050565b6000611dd0826122aa565b611dda81856122b5565b9350611dea8185602086016123b4565b611df381612520565b840191505092915050565b6000611e0b6023836122b5565b9150611e1682612531565b604082019050919050565b6000611e2e6015836122b5565b9150611e3982612580565b602082019050919050565b6000611e516026836122b5565b9150611e5c826125a9565b604082019050919050565b6000611e746022836122b5565b9150611e7f826125f8565b604082019050919050565b6000611e97601d836122b5565b9150611ea282612647565b602082019050919050565b6000611eba6026836122b5565b9150611ec582612670565b604082019050919050565b6000611edd602e836122b5565b9150611ee8826126bf565b604082019050919050565b6000611f006020836122b5565b9150611f0b8261270e565b602082019050919050565b6000611f236025836122b5565b9150611f2e82612737565b604082019050919050565b6000611f466019836122b5565b9150611f5182612786565b602082019050919050565b6000611f696024836122b5565b9150611f74826127af565b604082019050919050565b6000611f8c602b836122b5565b9150611f97826127fe565b604082019050919050565b6000611faf6025836122b5565b9150611fba8261284d565b604082019050919050565b6000611fd2601f836122b5565b9150611fdd8261289c565b602082019050919050565b611ff18161238e565b82525050565b61200081612398565b82525050565b600060208201905061201b6000830184611da7565b92915050565b60006020820190506120366000830184611db6565b92915050565b600060208201905081810360008301526120568184611dc5565b905092915050565b6000602082019050818103600083015261207781611dfe565b9050919050565b6000602082019050818103600083015261209781611e21565b9050919050565b600060208201905081810360008301526120b781611e44565b9050919050565b600060208201905081810360008301526120d781611e67565b9050919050565b600060208201905081810360008301526120f781611e8a565b9050919050565b6000602082019050818103600083015261211781611ead565b9050919050565b6000602082019050818103600083015261213781611ed0565b9050919050565b6000602082019050818103600083015261215781611ef3565b9050919050565b6000602082019050818103600083015261217781611f16565b9050919050565b6000602082019050818103600083015261219781611f39565b9050919050565b600060208201905081810360008301526121b781611f5c565b9050919050565b600060208201905081810360008301526121d781611f7f565b9050919050565b600060208201905081810360008301526121f781611fa2565b9050919050565b6000602082019050818103600083015261221781611fc5565b9050919050565b60006020820190506122336000830184611fe8565b92915050565b600060208201905061224e6000830184611ff7565b92915050565b600061225e61226f565b905061226a8282612419565b919050565b6000604051905090565b600067ffffffffffffffff821115612294576122936124f1565b5b61229d82612520565b9050602081019050919050565b600081519050919050565b600082825260208201905092915050565b60006122d18261238e565b91506122dc8361238e565b9250827fffffffffffffffffffffffffffffffffffffffffffffffffffffffffffffffff0382111561231157612310612493565b5b828201905092915050565b60006123278261238e565b91506123328361238e565b92508282101561234557612344612493565b5b828203905092915050565b600061235b8261236e565b9050919050565b60008115159050919050565b600073ffffffffffffffffffffffffffffffffffffffff82169050919050565b6000819050919050565b600060ff82169050919050565b82818337600083830152505050565b60005b838110156123d25780820151818401526020810190506123b7565b838111156123e1576000848401525b50505050565b600060028204905060018216806123ff57607f821691505b60208210811415612413576124126124c2565b5b50919050565b61242282612520565b810181811067ffffffffffffffff82111715612441576124406124f1565b5b80604052505050565b60006124558261238e565b91507fffffffffffffffffffffffffffffffffffffffffffffffffffffffffffffffff82141561248857612487612493565b5b600182019050919050565b7f4e487b7100000000000000000000000000000000000000000000000000000000600052601160045260246000fd5b7f4e487b7100000000000000000000000000000000000000000000000000000000600052602260045260246000fd5b7f4e487b7100000000000000000000000000000000000000000000000000000000600052604160045260246000fd5b6000601f19601f8301169050919050565b7f45524332303a207472616e7366657220746f20746865207a65726f206164647260008201527f6573730000000000000000000000000000000000000000000000000000000000602082015250565b7f45524332304361707065643a2063617020697320300000000000000000000000600082015250565b7f4f776e61626c653a206e6577206f776e657220697320746865207a65726f206160008201527f6464726573730000000000000000000000000000000000000000000000000000602082015250565b7f45524332303a20617070726f766520746f20746865207a65726f20616464726560008201527f7373000000000000000000000000000000000000000000000000000000000000602082015250565b7f45524332303a20696e73756666696369656e7420616c6c6f77616e6365000000600082015250565b7f45524332303a207472616e7366657220616d6f756e742065786365656473206260008201527f616c616e63650000000000000000000000000000000000000000000000000000602082015250565b7f496e697469616c697a61626c653a20636f6e747261637420697320616c72656160008201527f647920696e697469616c697a6564000000000000000000000000000000000000602082015250565b7f4f776e61626c653a2063616c6c6572206973206e6f7420746865206f776e6572600082015250565b7f45524332303a207472616e736665722066726f6d20746865207a65726f20616460008201527f6472657373000000000000000000000000000000000000000000000000000000602082015250565b7f45524332304361707065643a2063617020657863656564656400000000000000600082015250565b7f45524332303a20617070726f76652066726f6d20746865207a65726f2061646460008201527f7265737300000000000000000000000000000000000000000000000000000000602082015250565b7f496e697469616c697a61626c653a20636f6e7472616374206973206e6f74206960008201527f6e697469616c697a696e67000000000000000000000000000000000000000000602082015250565b7f45524332303a2064656372656173656420616c6c6f77616e63652062656c6f7760008201527f207a65726f000000000000000000000000000000000000000000000000000000602082015250565b7f45524332303a206d696e7420746f20746865207a65726f206164647265737300600082015250565b6128ce81612350565b81146128d957600080fd5b50565b6128e58161238e565b81146128f057600080fd5b5056fea2646970667358221220d732e09dd5d44d614bf094a5d7349537320780f0981a461567c53ce9bb7e71d264736f6c63430008040033",
  "linkReferences": {},
  "deployedLinkReferences": {}
}