{
  "_format": "hh-sol-artifact-1",
  "contractName": "AnemonethV1",
  "sourceName": "contracts/anemonethV1.sol",
  "abi": [
    {
      "anonymous": false,
      "inputs": [
        {
          "indexed": true,
          "internalType": "address",
          "name": "owner",
          "type": "address"
        },
        {
          "indexed": true,
          "internalType": "address",
          "name": "spender",
          "type": "address"
        },
        {
          "indexed": false,
          "internalType": "uint256",
          "name": "value",
          "type": "uint256"
        }
      ],
      "name": "Approval",
      "type": "event"
    },
    {
      "anonymous": false,
      "inputs": [
        {
          "indexed": true,
          "internalType": "address",
          "name": "_addr",
          "type": "address"
        },
        {
          "indexed": false,
          "internalType": "uint256",
          "name": "_amount",
          "type": "uint256"
        }
      ],
      "name": "Distribution",
      "type": "event"
    },
    {
      "anonymous": false,
      "inputs": [
        {
          "indexed": true,
          "internalType": "address",
          "name": "previousOwner",
          "type": "address"
        },
        {
          "indexed": true,
          "internalType": "address",
          "name": "newOwner",
          "type": "address"
        }
      ],
      "name": "OwnershipTransferred",
      "type": "event"
    },
    {
      "anonymous": false,
      "inputs": [
        {
          "indexed": true,
          "internalType": "address",
          "name": "from",
          "type": "address"
        },
        {
          "indexed": true,
          "internalType": "address",
          "name": "to",
          "type": "address"
        },
        {
          "indexed": false,
          "internalType": "uint256",
          "name": "value",
          "type": "uint256"
        }
      ],
      "name": "Transfer",
      "type": "event"
    },
    {
      "inputs": [
        {
          "internalType": "address",
          "name": "owner",
          "type": "address"
        },
        {
          "internalType": "address",
          "name": "spender",
          "type": "address"
        }
      ],
      "name": "allowance",
      "outputs": [
        {
          "internalType": "uint256",
          "name": "",
          "type": "uint256"
        }
      ],
      "stateMutability": "view",
      "type": "function"
    },
    {
      "inputs": [
        {
          "internalType": "address",
          "name": "spender",
          "type": "address"
        },
        {
          "internalType": "uint256",
          "name": "amount",
          "type": "uint256"
        }
      ],
      "name": "approve",
      "outputs": [
        {
          "internalType": "bool",
          "name": "",
          "type": "bool"
        }
      ],
      "stateMutability": "nonpayable",
      "type": "function"
    },
    {
      "inputs": [
        {
          "internalType": "address",
          "name": "account",
          "type": "address"
        }
      ],
      "name": "balanceOf",
      "outputs": [
        {
          "internalType": "uint256",
          "name": "",
          "type": "uint256"
        }
      ],
      "stateMutability": "view",
      "type": "function"
    },
    {
      "inputs": [],
      "name": "cap",
      "outputs": [
        {
          "internalType": "uint256",
          "name": "",
          "type": "uint256"
        }
      ],
      "stateMutability": "view",
      "type": "function"
    },
    {
      "inputs": [],
      "name": "decimals",
      "outputs": [
        {
          "internalType": "uint8",
          "name": "",
          "type": "uint8"
        }
      ],
      "stateMutability": "view",
      "type": "function"
    },
    {
      "inputs": [
        {
          "internalType": "address",
          "name": "spender",
          "type": "address"
        },
        {
          "internalType": "uint256",
          "name": "subtractedValue",
          "type": "uint256"
        }
      ],
      "name": "decreaseAllowance",
      "outputs": [
        {
          "internalType": "bool",
          "name": "",
          "type": "bool"
        }
      ],
      "stateMutability": "nonpayable",
      "type": "function"
    },
    {
      "inputs": [
        {
          "internalType": "address",
          "name": "spender",
          "type": "address"
        },
        {
          "internalType": "uint256",
          "name": "addedValue",
          "type": "uint256"
        }
      ],
      "name": "increaseAllowance",
      "outputs": [
        {
          "internalType": "bool",
          "name": "",
          "type": "bool"
        }
      ],
      "stateMutability": "nonpayable",
      "type": "function"
    },
    {
      "inputs": [
        {
          "internalType": "string",
          "name": "name_",
          "type": "string"
        },
        {
          "internalType": "string",
          "name": "symbol_",
          "type": "string"
        },
        {
          "internalType": "uint256",
          "name": "cap_",
          "type": "uint256"
        },
        {
          "internalType": "uint256",
          "name": "initSupply",
          "type": "uint256"
        }
      ],
      "name": "initialize",
      "outputs": [],
      "stateMutability": "nonpayable",
      "type": "function"
    },
    {
      "inputs": [],
      "name": "name",
      "outputs": [
        {
          "internalType": "string",
          "name": "",
          "type": "string"
        }
      ],
      "stateMutability": "view",
      "type": "function"
    },
    {
      "inputs": [],
      "name": "owner",
      "outputs": [
        {
          "internalType": "address",
          "name": "",
          "type": "address"
        }
      ],
      "stateMutability": "view",
      "type": "function"
    },
    {
      "inputs": [
        {
          "internalType": "string",
          "name": "_username",
          "type": "string"
        }
      ],
      "name": "register",
      "outputs": [],
      "stateMutability": "nonpayable",
      "type": "function"
    },
    {
      "inputs": [],
      "name": "renounceOwnership",
      "outputs": [],
      "stateMutability": "nonpayable",
      "type": "function"
    },
    {
      "inputs": [],
      "name": "symbol",
      "outputs": [
        {
          "internalType": "string",
          "name": "",
          "type": "string"
        }
      ],
      "stateMutability": "view",
      "type": "function"
    },
    {
      "inputs": [],
      "name": "totalSupply",
      "outputs": [
        {
          "internalType": "uint256",
          "name": "",
          "type": "uint256"
        }
      ],
      "stateMutability": "view",
      "type": "function"
    },
    {
      "inputs": [
        {
          "internalType": "address",
          "name": "to",
          "type": "address"
        },
        {
          "internalType": "uint256",
          "name": "amount",
          "type": "uint256"
        }
      ],
      "name": "transfer",
      "outputs": [
        {
          "internalType": "bool",
          "name": "",
          "type": "bool"
        }
      ],
      "stateMutability": "nonpayable",
      "type": "function"
    },
    {
      "inputs": [
        {
          "internalType": "address",
          "name": "from",
          "type": "address"
        },
        {
          "internalType": "address",
          "name": "to",
          "type": "address"
        },
        {
          "internalType": "uint256",
          "name": "amount",
          "type": "uint256"
        }
      ],
      "name": "transferFrom",
      "outputs": [
        {
          "internalType": "bool",
          "name": "",
          "type": "bool"
        }
      ],
      "stateMutability": "nonpayable",
      "type": "function"
    },
    {
      "inputs": [
        {
          "internalType": "address",
          "name": "newOwner",
          "type": "address"
        }
      ],
      "name": "transferOwnership",
      "outputs": [],
      "stateMutability": "nonpayable",
      "type": "function"
    },
    {
      "inputs": [],
      "name": "weeklyEarnings",
      "outputs": [],
      "stateMutability": "nonpayable",
      "type": "function"
    }
  ],
  "bytecode": "0x608060405234801561001057600080fd5b50612617806100206000396000f3fe608060405234801561001057600080fd5b50600436106101165760003560e01c8063715018a6116100a2578063a9059cbb11610071578063a9059cbb146102e5578063dd62ed3e14610315578063e700d81214610345578063f2c298be1461034f578063f2fde38b1461036b57610116565b8063715018a61461026f5780638da5cb5b1461027957806395d89b4114610297578063a457c2d7146102b557610116565b8063313ce567116100e9578063313ce567146101b7578063355274ea146101d557806339509351146101f35780636fe0e3951461022357806370a082311461023f57610116565b806306fdde031461011b578063095ea7b31461013957806318160ddd1461016957806323b872dd14610187575b600080fd5b610123610387565b6040516101309190611d2a565b60405180910390f35b610153600480360381019061014e9190611985565b610419565b6040516101609190611d0f565b60405180910390f35b61017161043c565b60405161017e9190611f0c565b60405180910390f35b6101a1600480360381019061019c9190611936565b610446565b6040516101ae9190611d0f565b60405180910390f35b6101bf610475565b6040516101cc9190611f27565b60405180910390f35b6101dd61047e565b6040516101ea9190611f0c565b60405180910390f35b61020d60048036038101906102089190611985565b610488565b60405161021a9190611d0f565b60405180910390f35b61023d60048036038101906102389190611a02565b610532565b005b610259600480360381019061025491906118d1565b61063f565b6040516102669190611f0c565b60405180910390f35b610277610688565b005b610281610710565b60405161028e9190611cf4565b60405180910390f35b61029f61073a565b6040516102ac9190611d2a565b60405180910390f35b6102cf60048036038101906102ca9190611985565b6107cc565b6040516102dc9190611d0f565b60405180910390f35b6102ff60048036038101906102fa9190611985565b6108b6565b60405161030c9190611d0f565b60405180910390f35b61032f600480360381019061032a91906118fa565b6108d9565b60405161033c9190611f0c565b60405180910390f35b61034d610960565b005b610369600480360381019061036491906119c1565b610b94565b005b610385600480360381019061038091906118d1565b610c63565b005b606060368054610396906120d5565b80601f01602080910402602001604051908101604052809291908181526020018280546103c2906120d5565b801561040f5780601f106103e45761010080835404028352916020019161040f565b820191906000526020600020905b8154815290600101906020018083116103f257829003601f168201915b5050505050905090565b600080610424610d5b565b9050610431818585610d63565b600191505092915050565b6000603554905090565b600080610451610d5b565b905061045e858285610f2e565b610469858585610fba565b60019150509392505050565b60006012905090565b6000606554905090565b600080610493610d5b565b9050610527818585603460008673ffffffffffffffffffffffffffffffffffffffff1673ffffffffffffffffffffffffffffffffffffffff16815260200190815260200160002060008973ffffffffffffffffffffffffffffffffffffffff1673ffffffffffffffffffffffffffffffffffffffff168152602001908152602001600020546105229190611fb4565b610d63565b600191505092915050565b600060019054906101000a900460ff1661055a5760008054906101000a900460ff1615610563565b61056261123e565b5b6105a2576040517f08c379a000000000000000000000000000000000000000000000000000000000815260040161059990611e0c565b60405180910390fd5b60008060019054906101000a900460ff1615905080156105f2576001600060016101000a81548160ff02191690831515021790555060016000806101000a81548160ff0219169083151502179055505b6105fb8361124f565b61060585856112aa565b61060d611307565b6106173083611360565b80156106385760008060016101000a81548160ff0219169083151502179055505b5050505050565b6000603360008373ffffffffffffffffffffffffffffffffffffffff1673ffffffffffffffffffffffffffffffffffffffff168152602001908152602001600020549050919050565b610690610d5b565b73ffffffffffffffffffffffffffffffffffffffff166106ae610710565b73ffffffffffffffffffffffffffffffffffffffff1614610704576040517f08c379a00000000000000000000000000000000000000000000000000000000081526004016106fb90611e2c565b60405180910390fd5b61070e60006113ca565b565b6000609860009054906101000a900473ffffffffffffffffffffffffffffffffffffffff16905090565b606060378054610749906120d5565b80601f0160208091040260200160405190810160405280929190818152602001828054610775906120d5565b80156107c25780601f10610797576101008083540402835291602001916107c2565b820191906000526020600020905b8154815290600101906020018083116107a557829003601f168201915b5050505050905090565b6000806107d7610d5b565b90506000603460008373ffffffffffffffffffffffffffffffffffffffff1673ffffffffffffffffffffffffffffffffffffffff16815260200190815260200160002060008673ffffffffffffffffffffffffffffffffffffffff1673ffffffffffffffffffffffffffffffffffffffff1681526020019081526020016000205490508381101561089d576040517f08c379a000000000000000000000000000000000000000000000000000000000815260040161089490611ecc565b60405180910390fd5b6108aa8286868403610d63565b60019250505092915050565b6000806108c1610d5b565b90506108ce818585610fba565b600191505092915050565b6000603460008473ffffffffffffffffffffffffffffffffffffffff1673ffffffffffffffffffffffffffffffffffffffff16815260200190815260200160002060008373ffffffffffffffffffffffffffffffffffffffff1673ffffffffffffffffffffffffffffffffffffffff16815260200190815260200160002054905092915050565b610968610d5b565b73ffffffffffffffffffffffffffffffffffffffff16610986610710565b73ffffffffffffffffffffffffffffffffffffffff16146109dc576040517f08c379a00000000000000000000000000000000000000000000000000000000081526004016109d390611e2c565b60405180910390fd5b6000604051806040016040528060cc80549050815260200160008152509050600080600090505b60ca80549050811015610b0357600060ca8281548110610a4c577f4e487b7100000000000000000000000000000000000000000000000000000000600052603260045260246000fd5b906000526020600020906003020160000160009054906101000a900473ffffffffffffffffffffffffffffffffffffffff16905060006103e890508060cb60008473ffffffffffffffffffffffffffffffffffffffff1673ffffffffffffffffffffffffffffffffffffffff168152602001908152602001600020600087600001518152602001908152602001600020819055508084610aec9190611fb4565b935050508080610afb90612138565b915050610a03565b508082602001818152505062093a80600160cc80549050610b24919061200a565b610b2e9190611fb4565b8260000151101580610b455750600060cc80549050145b610b4e57600080fd5b60cc829080600181540180825580915050600190039060005260206000209060020201600090919091909150600082015181600001556020820151816001015550505050565b60ca60405180606001604052803373ffffffffffffffffffffffffffffffffffffffff16815260200183815260200142815250908060018154018082558091505060019003906000526020600020906003020160009091909190915060008201518160000160006101000a81548173ffffffffffffffffffffffffffffffffffffffff021916908373ffffffffffffffffffffffffffffffffffffffff1602179055506020820151816001019080519060200190610c5392919061179c565b5060408201518160020155505050565b610c6b610d5b565b73ffffffffffffffffffffffffffffffffffffffff16610c89610710565b73ffffffffffffffffffffffffffffffffffffffff1614610cdf576040517f08c379a0000000000000000000000000000000000000000000000000000000008152600401610cd690611e2c565b60405180910390fd5b600073ffffffffffffffffffffffffffffffffffffffff168173ffffffffffffffffffffffffffffffffffffffff161415610d4f576040517f08c379a0000000000000000000000000000000000000000000000000000000008152600401610d4690611d8c565b60405180910390fd5b610d58816113ca565b50565b600033905090565b600073ffffffffffffffffffffffffffffffffffffffff168373ffffffffffffffffffffffffffffffffffffffff161415610dd3576040517f08c379a0000000000000000000000000000000000000000000000000000000008152600401610dca90611e8c565b60405180910390fd5b600073ffffffffffffffffffffffffffffffffffffffff168273ffffffffffffffffffffffffffffffffffffffff161415610e43576040517f08c379a0000000000000000000000000000000000000000000000000000000008152600401610e3a90611dac565b60405180910390fd5b80603460008573ffffffffffffffffffffffffffffffffffffffff1673ffffffffffffffffffffffffffffffffffffffff16815260200190815260200160002060008473ffffffffffffffffffffffffffffffffffffffff1673ffffffffffffffffffffffffffffffffffffffff168152602001908152602001600020819055508173ffffffffffffffffffffffffffffffffffffffff168373ffffffffffffffffffffffffffffffffffffffff167f8c5be1e5ebec7d5bd14f71427d1e84f3dd0314c0f7b2291e5b200ac8c7c3b92583604051610f219190611f0c565b60405180910390a3505050565b6000610f3a84846108d9565b90507fffffffffffffffffffffffffffffffffffffffffffffffffffffffffffffffff8114610fb45781811015610fa6576040517f08c379a0000000000000000000000000000000000000000000000000000000008152600401610f9d90611dcc565b60405180910390fd5b610fb38484848403610d63565b5b50505050565b600073ffffffffffffffffffffffffffffffffffffffff168373ffffffffffffffffffffffffffffffffffffffff16141561102a576040517f08c379a000000000000000000000000000000000000000000000000000000000815260040161102190611e4c565b60405180910390fd5b600073ffffffffffffffffffffffffffffffffffffffff168273ffffffffffffffffffffffffffffffffffffffff16141561109a576040517f08c379a000000000000000000000000000000000000000000000000000000000815260040161109190611d4c565b60405180910390fd5b6110a5838383611490565b6000603360008573ffffffffffffffffffffffffffffffffffffffff1673ffffffffffffffffffffffffffffffffffffffff1681526020019081526020016000205490508181101561112c576040517f08c379a000000000000000000000000000000000000000000000000000000000815260040161112390611dec565b60405180910390fd5b818103603360008673ffffffffffffffffffffffffffffffffffffffff1673ffffffffffffffffffffffffffffffffffffffff1681526020019081526020016000208190555081603360008573ffffffffffffffffffffffffffffffffffffffff1673ffffffffffffffffffffffffffffffffffffffff16815260200190815260200160002060008282546111c19190611fb4565b925050819055508273ffffffffffffffffffffffffffffffffffffffff168473ffffffffffffffffffffffffffffffffffffffff167fddf252ad1be2c89b69c2b068fc378daa952ba7f163c4a11628f55a4df523b3ef846040516112259190611f0c565b60405180910390a3611238848484611495565b50505050565b60006112493061149a565b15905090565b600060019054906101000a900460ff1661129e576040517f08c379a000000000000000000000000000000000000000000000000000000000815260040161129590611eac565b60405180910390fd5b6112a7816114bd565b50565b600060019054906101000a900460ff166112f9576040517f08c379a00000000000000000000000000000000000000000000000000000000081526004016112f090611eac565b60405180910390fd5b6113038282611559565b5050565b600060019054906101000a900460ff16611356576040517f08c379a000000000000000000000000000000000000000000000000000000000815260040161134d90611eac565b60405180910390fd5b61135e6115da565b565b61136861047e565b8161137161043c565b61137b9190611fb4565b11156113bc576040517f08c379a00000000000000000000000000000000000000000000000000000000081526004016113b390611e6c565b60405180910390fd5b6113c6828261163b565b5050565b6000609860009054906101000a900473ffffffffffffffffffffffffffffffffffffffff16905081609860006101000a81548173ffffffffffffffffffffffffffffffffffffffff021916908373ffffffffffffffffffffffffffffffffffffffff1602179055508173ffffffffffffffffffffffffffffffffffffffff168173ffffffffffffffffffffffffffffffffffffffff167f8be0079c531659141344cd1fd0a4f28419497f9722a3daafe3b4186f6b6457e060405160405180910390a35050565b505050565b505050565b6000808273ffffffffffffffffffffffffffffffffffffffff163b119050919050565b600060019054906101000a900460ff1661150c576040517f08c379a000000000000000000000000000000000000000000000000000000000815260040161150390611eac565b60405180910390fd5b6000811161154f576040517f08c379a000000000000000000000000000000000000000000000000000000000815260040161154690611d6c565b60405180910390fd5b8060658190555050565b600060019054906101000a900460ff166115a8576040517f08c379a000000000000000000000000000000000000000000000000000000000815260040161159f90611eac565b60405180910390fd5b81603690805190602001906115be92919061179c565b5080603790805190602001906115d592919061179c565b505050565b600060019054906101000a900460ff16611629576040517f08c379a000000000000000000000000000000000000000000000000000000000815260040161162090611eac565b60405180910390fd5b611639611634610d5b565b6113ca565b565b600073ffffffffffffffffffffffffffffffffffffffff168273ffffffffffffffffffffffffffffffffffffffff1614156116ab576040517f08c379a00000000000000000000000000000000000000000000000000000000081526004016116a290611eec565b60405180910390fd5b6116b760008383611490565b80603560008282546116c99190611fb4565b9250508190555080603360008473ffffffffffffffffffffffffffffffffffffffff1673ffffffffffffffffffffffffffffffffffffffff168152602001908152602001600020600082825461171f9190611fb4565b925050819055508173ffffffffffffffffffffffffffffffffffffffff16600073ffffffffffffffffffffffffffffffffffffffff167fddf252ad1be2c89b69c2b068fc378daa952ba7f163c4a11628f55a4df523b3ef836040516117849190611f0c565b60405180910390a361179860008383611495565b5050565b8280546117a8906120d5565b90600052602060002090601f0160209004810192826117ca5760008555611811565b82601f106117e357805160ff1916838001178555611811565b82800160010185558215611811579182015b828111156118105782518255916020019190600101906117f5565b5b50905061181e9190611822565b5090565b5b8082111561183b576000816000905550600101611823565b5090565b600061185261184d84611f67565b611f42565b90508281526020810184848401111561186a57600080fd5b611875848285612093565b509392505050565b60008135905061188c816125b3565b92915050565b600082601f8301126118a357600080fd5b81356118b384826020860161183f565b91505092915050565b6000813590506118cb816125ca565b92915050565b6000602082840312156118e357600080fd5b60006118f18482850161187d565b91505092915050565b6000806040838503121561190d57600080fd5b600061191b8582860161187d565b925050602061192c8582860161187d565b9150509250929050565b60008060006060848603121561194b57600080fd5b60006119598682870161187d565b935050602061196a8682870161187d565b925050604061197b868287016118bc565b9150509250925092565b6000806040838503121561199857600080fd5b60006119a68582860161187d565b92505060206119b7858286016118bc565b9150509250929050565b6000602082840312156119d357600080fd5b600082013567ffffffffffffffff8111156119ed57600080fd5b6119f984828501611892565b91505092915050565b60008060008060808587031215611a1857600080fd5b600085013567ffffffffffffffff811115611a3257600080fd5b611a3e87828801611892565b945050602085013567ffffffffffffffff811115611a5b57600080fd5b611a6787828801611892565b9350506040611a78878288016118bc565b9250506060611a89878288016118bc565b91505092959194509250565b611a9e8161203e565b82525050565b611aad81612050565b82525050565b6000611abe82611f98565b611ac88185611fa3565b9350611ad88185602086016120a2565b611ae18161220e565b840191505092915050565b6000611af9602383611fa3565b9150611b048261221f565b604082019050919050565b6000611b1c601583611fa3565b9150611b278261226e565b602082019050919050565b6000611b3f602683611fa3565b9150611b4a82612297565b604082019050919050565b6000611b62602283611fa3565b9150611b6d826122e6565b604082019050919050565b6000611b85601d83611fa3565b9150611b9082612335565b602082019050919050565b6000611ba8602683611fa3565b9150611bb38261235e565b604082019050919050565b6000611bcb602e83611fa3565b9150611bd6826123ad565b604082019050919050565b6000611bee602083611fa3565b9150611bf9826123fc565b602082019050919050565b6000611c11602583611fa3565b9150611c1c82612425565b604082019050919050565b6000611c34601983611fa3565b9150611c3f82612474565b602082019050919050565b6000611c57602483611fa3565b9150611c628261249d565b604082019050919050565b6000611c7a602b83611fa3565b9150611c85826124ec565b604082019050919050565b6000611c9d602583611fa3565b9150611ca88261253b565b604082019050919050565b6000611cc0601f83611fa3565b9150611ccb8261258a565b602082019050919050565b611cdf8161207c565b82525050565b611cee81612086565b82525050565b6000602082019050611d096000830184611a95565b92915050565b6000602082019050611d246000830184611aa4565b92915050565b60006020820190508181036000830152611d448184611ab3565b905092915050565b60006020820190508181036000830152611d6581611aec565b9050919050565b60006020820190508181036000830152611d8581611b0f565b9050919050565b60006020820190508181036000830152611da581611b32565b9050919050565b60006020820190508181036000830152611dc581611b55565b9050919050565b60006020820190508181036000830152611de581611b78565b9050919050565b60006020820190508181036000830152611e0581611b9b565b9050919050565b60006020820190508181036000830152611e2581611bbe565b9050919050565b60006020820190508181036000830152611e4581611be1565b9050919050565b60006020820190508181036000830152611e6581611c04565b9050919050565b60006020820190508181036000830152611e8581611c27565b9050919050565b60006020820190508181036000830152611ea581611c4a565b9050919050565b60006020820190508181036000830152611ec581611c6d565b9050919050565b60006020820190508181036000830152611ee581611c90565b9050919050565b60006020820190508181036000830152611f0581611cb3565b9050919050565b6000602082019050611f216000830184611cd6565b92915050565b6000602082019050611f3c6000830184611ce5565b92915050565b6000611f4c611f5d565b9050611f588282612107565b919050565b6000604051905090565b600067ffffffffffffffff821115611f8257611f816121df565b5b611f8b8261220e565b9050602081019050919050565b600081519050919050565b600082825260208201905092915050565b6000611fbf8261207c565b9150611fca8361207c565b9250827fffffffffffffffffffffffffffffffffffffffffffffffffffffffffffffffff03821115611fff57611ffe612181565b5b828201905092915050565b60006120158261207c565b91506120208361207c565b92508282101561203357612032612181565b5b828203905092915050565b60006120498261205c565b9050919050565b60008115159050919050565b600073ffffffffffffffffffffffffffffffffffffffff82169050919050565b6000819050919050565b600060ff82169050919050565b82818337600083830152505050565b60005b838110156120c05780820151818401526020810190506120a5565b838111156120cf576000848401525b50505050565b600060028204905060018216806120ed57607f821691505b60208210811415612101576121006121b0565b5b50919050565b6121108261220e565b810181811067ffffffffffffffff8211171561212f5761212e6121df565b5b80604052505050565b60006121438261207c565b91507fffffffffffffffffffffffffffffffffffffffffffffffffffffffffffffffff82141561217657612175612181565b5b600182019050919050565b7f4e487b7100000000000000000000000000000000000000000000000000000000600052601160045260246000fd5b7f4e487b7100000000000000000000000000000000000000000000000000000000600052602260045260246000fd5b7f4e487b7100000000000000000000000000000000000000000000000000000000600052604160045260246000fd5b6000601f19601f8301169050919050565b7f45524332303a207472616e7366657220746f20746865207a65726f206164647260008201527f6573730000000000000000000000000000000000000000000000000000000000602082015250565b7f45524332304361707065643a2063617020697320300000000000000000000000600082015250565b7f4f776e61626c653a206e6577206f776e657220697320746865207a65726f206160008201527f6464726573730000000000000000000000000000000000000000000000000000602082015250565b7f45524332303a20617070726f766520746f20746865207a65726f20616464726560008201527f7373000000000000000000000000000000000000000000000000000000000000602082015250565b7f45524332303a20696e73756666696369656e7420616c6c6f77616e6365000000600082015250565b7f45524332303a207472616e7366657220616d6f756e742065786365656473206260008201527f616c616e63650000000000000000000000000000000000000000000000000000602082015250565b7f496e697469616c697a61626c653a20636f6e747261637420697320616c72656160008201527f647920696e697469616c697a6564000000000000000000000000000000000000602082015250565b7f4f776e61626c653a2063616c6c6572206973206e6f7420746865206f776e6572600082015250565b7f45524332303a207472616e736665722066726f6d20746865207a65726f20616460008201527f6472657373000000000000000000000000000000000000000000000000000000602082015250565b7f45524332304361707065643a2063617020657863656564656400000000000000600082015250565b7f45524332303a20617070726f76652066726f6d20746865207a65726f2061646460008201527f7265737300000000000000000000000000000000000000000000000000000000602082015250565b7f496e697469616c697a61626c653a20636f6e7472616374206973206e6f74206960008201527f6e697469616c697a696e67000000000000000000000000000000000000000000602082015250565b7f45524332303a2064656372656173656420616c6c6f77616e63652062656c6f7760008201527f207a65726f000000000000000000000000000000000000000000000000000000602082015250565b7f45524332303a206d696e7420746f20746865207a65726f206164647265737300600082015250565b6125bc8161203e565b81146125c757600080fd5b50565b6125d38161207c565b81146125de57600080fd5b5056fea26469706673582212207192419172e0e48fc357ade2b8a305424aaeb77871cbf41f8462c623b06cb22564736f6c63430008040033",
  "linkReferences": {},
  "deployedLinkReferences": {}
}