{
    "_format": "hh-sol-artifact-1",
    "contractName": "AnemonethV1",
    "sourceName": "contracts/anemonethV1.sol",
    "abi": [
        {
            "anonymous": false,
            "inputs": [
                {
                    "indexed": true,
                    "internalType": "address",
                    "name": "owner",
                    "type": "address"
                },
                {
                    "indexed": true,
                    "internalType": "address",
                    "name": "spender",
                    "type": "address"
                },
                {
                    "indexed": false,
                    "internalType": "uint256",
                    "name": "value",
                    "type": "uint256"
                }
            ],
            "name": "Approval",
            "type": "event"
        },
        {
            "anonymous": false,
            "inputs": [
                {
                    "indexed": true,
                    "internalType": "address",
                    "name": "_addr",
                    "type": "address"
                },
                {
                    "indexed": false,
                    "internalType": "uint256",
                    "name": "_amount",
                    "type": "uint256"
                }
            ],
            "name": "Distribution",
            "type": "event"
        },
        {
            "anonymous": false,
            "inputs": [
                {
                    "indexed": true,
                    "internalType": "address",
                    "name": "previousOwner",
                    "type": "address"
                },
                {
                    "indexed": true,
                    "internalType": "address",
                    "name": "newOwner",
                    "type": "address"
                }
            ],
            "name": "OwnershipTransferred",
            "type": "event"
        },
        {
            "anonymous": false,
            "inputs": [
                {
                    "indexed": true,
                    "internalType": "address",
                    "name": "from",
                    "type": "address"
                },
                {
                    "indexed": true,
                    "internalType": "address",
                    "name": "to",
                    "type": "address"
                },
                {
                    "indexed": false,
                    "internalType": "uint256",
                    "name": "value",
                    "type": "uint256"
                }
            ],
            "name": "Transfer",
            "type": "event"
        },
        {
            "stateMutability": "payable",
            "type": "fallback"
        },
        {
            "inputs": [
                {
                    "internalType": "address",
                    "name": "owner",
                    "type": "address"
                },
                {
                    "internalType": "address",
                    "name": "spender",
                    "type": "address"
                }
            ],
            "name": "allowance",
            "outputs": [
                {
                    "internalType": "uint256",
                    "name": "",
                    "type": "uint256"
                }
            ],
            "stateMutability": "view",
            "type": "function"
        },
        {
            "inputs": [
                {
                    "internalType": "address",
                    "name": "spender",
                    "type": "address"
                },
                {
                    "internalType": "uint256",
                    "name": "amount",
                    "type": "uint256"
                }
            ],
            "name": "approve",
            "outputs": [
                {
                    "internalType": "bool",
                    "name": "",
                    "type": "bool"
                }
            ],
            "stateMutability": "nonpayable",
            "type": "function"
        },
        {
            "inputs": [
                {
                    "internalType": "address",
                    "name": "account",
                    "type": "address"
                }
            ],
            "name": "balanceOf",
            "outputs": [
                {
                    "internalType": "uint256",
                    "name": "",
                    "type": "uint256"
                }
            ],
            "stateMutability": "view",
            "type": "function"
        },
        {
            "inputs": [],
            "name": "cap",
            "outputs": [
                {
                    "internalType": "uint256",
                    "name": "",
                    "type": "uint256"
                }
            ],
            "stateMutability": "view",
            "type": "function"
        },
        {
            "inputs": [],
            "name": "decimals",
            "outputs": [
                {
                    "internalType": "uint8",
                    "name": "",
                    "type": "uint8"
                }
            ],
            "stateMutability": "view",
            "type": "function"
        },
        {
            "inputs": [
                {
                    "internalType": "address",
                    "name": "spender",
                    "type": "address"
                },
                {
                    "internalType": "uint256",
                    "name": "subtractedValue",
                    "type": "uint256"
                }
            ],
            "name": "decreaseAllowance",
            "outputs": [
                {
                    "internalType": "bool",
                    "name": "",
                    "type": "bool"
                }
            ],
            "stateMutability": "nonpayable",
            "type": "function"
        },
        {
            "inputs": [
                {
                    "internalType": "address",
                    "name": "spender",
                    "type": "address"
                },
                {
                    "internalType": "uint256",
                    "name": "addedValue",
                    "type": "uint256"
                }
            ],
            "name": "increaseAllowance",
            "outputs": [
                {
                    "internalType": "bool",
                    "name": "",
                    "type": "bool"
                }
            ],
            "stateMutability": "nonpayable",
            "type": "function"
        },
        {
            "inputs": [
                {
                    "internalType": "string",
                    "name": "name_",
                    "type": "string"
                },
                {
                    "internalType": "string",
                    "name": "symbol_",
                    "type": "string"
                },
                {
                    "internalType": "uint256",
                    "name": "cap_",
                    "type": "uint256"
                },
                {
                    "internalType": "uint256",
                    "name": "initSupply",
                    "type": "uint256"
                }
            ],
            "name": "initialize",
            "outputs": [],
            "stateMutability": "nonpayable",
            "type": "function"
        },
        {
            "inputs": [],
            "name": "name",
            "outputs": [
                {
                    "internalType": "string",
                    "name": "",
                    "type": "string"
                }
            ],
            "stateMutability": "view",
            "type": "function"
        },
        {
            "inputs": [],
            "name": "owner",
            "outputs": [
                {
                    "internalType": "address",
                    "name": "",
                    "type": "address"
                }
            ],
            "stateMutability": "view",
            "type": "function"
        },
        {
            "inputs": [
                {
                    "internalType": "string",
                    "name": "_username",
                    "type": "string"
                }
            ],
            "name": "register",
            "outputs": [],
            "stateMutability": "payable",
            "type": "function"
        },
        {
            "inputs": [],
            "name": "renounceOwnership",
            "outputs": [],
            "stateMutability": "nonpayable",
            "type": "function"
        },
        {
            "inputs": [],
            "name": "settleUP",
            "outputs": [],
            "stateMutability": "nonpayable",
            "type": "function"
        },
        {
            "inputs": [],
            "name": "symbol",
            "outputs": [
                {
                    "internalType": "string",
                    "name": "",
                    "type": "string"
                }
            ],
            "stateMutability": "view",
            "type": "function"
        },
        {
            "inputs": [],
            "name": "totalSupply",
            "outputs": [
                {
                    "internalType": "uint256",
                    "name": "",
                    "type": "uint256"
                }
            ],
            "stateMutability": "view",
            "type": "function"
        },
        {
            "inputs": [
                {
                    "internalType": "address",
                    "name": "to",
                    "type": "address"
                },
                {
                    "internalType": "uint256",
                    "name": "amount",
                    "type": "uint256"
                }
            ],
            "name": "transfer",
            "outputs": [
                {
                    "internalType": "bool",
                    "name": "",
                    "type": "bool"
                }
            ],
            "stateMutability": "nonpayable",
            "type": "function"
        },
        {
            "inputs": [
                {
                    "internalType": "address",
                    "name": "from",
                    "type": "address"
                },
                {
                    "internalType": "address",
                    "name": "to",
                    "type": "address"
                },
                {
                    "internalType": "uint256",
                    "name": "amount",
                    "type": "uint256"
                }
            ],
            "name": "transferFrom",
            "outputs": [
                {
                    "internalType": "bool",
                    "name": "",
                    "type": "bool"
                }
            ],
            "stateMutability": "nonpayable",
            "type": "function"
        },
        {
            "inputs": [
                {
                    "internalType": "address",
                    "name": "newOwner",
                    "type": "address"
                }
            ],
            "name": "transferOwnership",
            "outputs": [],
            "stateMutability": "nonpayable",
            "type": "function"
        },
        {
            "stateMutability": "payable",
            "type": "receive"
        }
    ],
    "bytecode": "0x608060405234801561001057600080fd5b506129ae806100206000396000f3fe60806040526004361061010d5760003560e01c806370a0823111610095578063a457c2d711610064578063a457c2d714610363578063a9059cbb146103a0578063dd62ed3e146103dd578063f2c298be1461041a578063f2fde38b1461043657610114565b806370a08231146102b9578063715018a6146102f65780638da5cb5b1461030d57806395d89b411461033857610114565b8063313ce567116100dc578063313ce567146101e6578063355274ea14610211578063395093511461023c5780635bb92c17146102795780636fe0e3951461029057610114565b806306fdde0314610116578063095ea7b31461014157806318160ddd1461017e57806323b872dd146101a957610114565b3661011457005b005b34801561012257600080fd5b5061012b61045f565b6040516101389190612067565b60405180910390f35b34801561014d57600080fd5b5061016860048036038101906101639190611cc2565b6104f1565b604051610175919061204c565b60405180910390f35b34801561018a57600080fd5b50610193610514565b6040516101a09190612249565b60405180910390f35b3480156101b557600080fd5b506101d060048036038101906101cb9190611c73565b61051e565b6040516101dd919061204c565b60405180910390f35b3480156101f257600080fd5b506101fb61054d565b6040516102089190612264565b60405180910390f35b34801561021d57600080fd5b50610226610556565b6040516102339190612249565b60405180910390f35b34801561024857600080fd5b50610263600480360381019061025e9190611cc2565b610560565b604051610270919061204c565b60405180910390f35b34801561028557600080fd5b5061028e61060a565b005b34801561029c57600080fd5b506102b760048036038101906102b29190611d3f565b6106a0565b005b3480156102c557600080fd5b506102e060048036038101906102db9190611c0e565b6107ad565b6040516102ed9190612249565b60405180910390f35b34801561030257600080fd5b5061030b6107f6565b005b34801561031957600080fd5b5061032261087e565b60405161032f9190612031565b60405180910390f35b34801561034457600080fd5b5061034d6108a8565b60405161035a9190612067565b60405180910390f35b34801561036f57600080fd5b5061038a60048036038101906103859190611cc2565b61093a565b604051610397919061204c565b60405180910390f35b3480156103ac57600080fd5b506103c760048036038101906103c29190611cc2565b610a24565b6040516103d4919061204c565b60405180910390f35b3480156103e957600080fd5b5061040460048036038101906103ff9190611c37565b610a47565b6040516104119190612249565b60405180910390f35b610434600480360381019061042f9190611cfe565b610ace565b005b34801561044257600080fd5b5061045d60048036038101906104589190611c0e565b610bd5565b005b60606036805461046e9061246c565b80601f016020809104026020016040519081016040528092919081815260200182805461049a9061246c565b80156104e75780601f106104bc576101008083540402835291602001916104e7565b820191906000526020600020905b8154815290600101906020018083116104ca57829003601f168201915b5050505050905090565b6000806104fc610ccd565b9050610509818585610cd5565b600191505092915050565b6000603554905090565b600080610529610ccd565b9050610536858285610ea0565b610541858585610f2c565b60019150509392505050565b60006012905090565b6000606554905090565b60008061056b610ccd565b90506105ff818585603460008673ffffffffffffffffffffffffffffffffffffffff1673ffffffffffffffffffffffffffffffffffffffff16815260200190815260200160002060008973ffffffffffffffffffffffffffffffffffffffff1673ffffffffffffffffffffffffffffffffffffffff168152602001908152602001600020546105fa91906122f1565b610cd5565b600191505092915050565b610612610ccd565b73ffffffffffffffffffffffffffffffffffffffff1661063061087e565b73ffffffffffffffffffffffffffffffffffffffff1614610686576040517f08c379a000000000000000000000000000000000000000000000000000000000815260040161067d90612169565b60405180910390fd5b61068e6111b0565b610696611368565b61069e6113c3565b565b600060019054906101000a900460ff166106c85760008054906101000a900460ff16156106d1565b6106d061157b565b5b610710576040517f08c379a000000000000000000000000000000000000000000000000000000000815260040161070790612149565b60405180910390fd5b60008060019054906101000a900460ff161590508015610760576001600060016101000a81548160ff02191690831515021790555060016000806101000a81548160ff0219169083151502179055505b6107698361158c565b61077385856115e7565b61077b611644565b610785308361169d565b80156107a65760008060016101000a81548160ff0219169083151502179055505b5050505050565b6000603360008373ffffffffffffffffffffffffffffffffffffffff1673ffffffffffffffffffffffffffffffffffffffff168152602001908152602001600020549050919050565b6107fe610ccd565b73ffffffffffffffffffffffffffffffffffffffff1661081c61087e565b73ffffffffffffffffffffffffffffffffffffffff1614610872576040517f08c379a000000000000000000000000000000000000000000000000000000000815260040161086990612169565b60405180910390fd5b61087c6000611707565b565b6000609860009054906101000a900473ffffffffffffffffffffffffffffffffffffffff16905090565b6060603780546108b79061246c565b80601f01602080910402602001604051908101604052809291908181526020018280546108e39061246c565b80156109305780601f1061090557610100808354040283529160200191610930565b820191906000526020600020905b81548152906001019060200180831161091357829003601f168201915b5050505050905090565b600080610945610ccd565b90506000603460008373ffffffffffffffffffffffffffffffffffffffff1673ffffffffffffffffffffffffffffffffffffffff16815260200190815260200160002060008673ffffffffffffffffffffffffffffffffffffffff1673ffffffffffffffffffffffffffffffffffffffff16815260200190815260200160002054905083811015610a0b576040517f08c379a0000000000000000000000000000000000000000000000000000000008152600401610a0290612209565b60405180910390fd5b610a188286868403610cd5565b60019250505092915050565b600080610a2f610ccd565b9050610a3c818585610f2c565b600191505092915050565b6000603460008473ffffffffffffffffffffffffffffffffffffffff1673ffffffffffffffffffffffffffffffffffffffff16815260200190815260200160002060008373ffffffffffffffffffffffffffffffffffffffff1673ffffffffffffffffffffffffffffffffffffffff16815260200190815260200160002054905092915050565b633b9aca00341015610adf57600080fd5b600069021e19e0c9bab240000034610af79190612347565b9050610b0430338361051e565b5060ca60405180606001604052803373ffffffffffffffffffffffffffffffffffffffff16815260200184815260200142815250908060018154018082558091505060019003906000526020600020906003020160009091909190915060008201518160000160006101000a81548173ffffffffffffffffffffffffffffffffffffffff021916908373ffffffffffffffffffffffffffffffffffffffff1602179055506020820151816001019080519060200190610bc4929190611ad9565b506040820151816002015550505050565b610bdd610ccd565b73ffffffffffffffffffffffffffffffffffffffff16610bfb61087e565b73ffffffffffffffffffffffffffffffffffffffff1614610c51576040517f08c379a0000000000000000000000000000000000000000000000000000000008152600401610c4890612169565b60405180910390fd5b600073ffffffffffffffffffffffffffffffffffffffff168173ffffffffffffffffffffffffffffffffffffffff161415610cc1576040517f08c379a0000000000000000000000000000000000000000000000000000000008152600401610cb8906120c9565b60405180910390fd5b610cca81611707565b50565b600033905090565b600073ffffffffffffffffffffffffffffffffffffffff168373ffffffffffffffffffffffffffffffffffffffff161415610d45576040517f08c379a0000000000000000000000000000000000000000000000000000000008152600401610d3c906121c9565b60405180910390fd5b600073ffffffffffffffffffffffffffffffffffffffff168273ffffffffffffffffffffffffffffffffffffffff161415610db5576040517f08c379a0000000000000000000000000000000000000000000000000000000008152600401610dac906120e9565b60405180910390fd5b80603460008573ffffffffffffffffffffffffffffffffffffffff1673ffffffffffffffffffffffffffffffffffffffff16815260200190815260200160002060008473ffffffffffffffffffffffffffffffffffffffff1673ffffffffffffffffffffffffffffffffffffffff168152602001908152602001600020819055508173ffffffffffffffffffffffffffffffffffffffff168373ffffffffffffffffffffffffffffffffffffffff167f8c5be1e5ebec7d5bd14f71427d1e84f3dd0314c0f7b2291e5b200ac8c7c3b92583604051610e939190612249565b60405180910390a3505050565b6000610eac8484610a47565b90507fffffffffffffffffffffffffffffffffffffffffffffffffffffffffffffffff8114610f265781811015610f18576040517f08c379a0000000000000000000000000000000000000000000000000000000008152600401610f0f90612109565b60405180910390fd5b610f258484848403610cd5565b5b50505050565b600073ffffffffffffffffffffffffffffffffffffffff168373ffffffffffffffffffffffffffffffffffffffff161415610f9c576040517f08c379a0000000000000000000000000000000000000000000000000000000008152600401610f9390612189565b60405180910390fd5b600073ffffffffffffffffffffffffffffffffffffffff168273ffffffffffffffffffffffffffffffffffffffff16141561100c576040517f08c379a000000000000000000000000000000000000000000000000000000000815260040161100390612089565b60405180910390fd5b6110178383836117cd565b6000603360008573ffffffffffffffffffffffffffffffffffffffff1673ffffffffffffffffffffffffffffffffffffffff1681526020019081526020016000205490508181101561109e576040517f08c379a000000000000000000000000000000000000000000000000000000000815260040161109590612129565b60405180910390fd5b818103603360008673ffffffffffffffffffffffffffffffffffffffff1673ffffffffffffffffffffffffffffffffffffffff1681526020019081526020016000208190555081603360008573ffffffffffffffffffffffffffffffffffffffff1673ffffffffffffffffffffffffffffffffffffffff168152602001908152602001600020600082825461113391906122f1565b925050819055508273ffffffffffffffffffffffffffffffffffffffff168473ffffffffffffffffffffffffffffffffffffffff167fddf252ad1be2c89b69c2b068fc378daa952ba7f163c4a11628f55a4df523b3ef846040516111979190612249565b60405180910390a36111aa8484846117d2565b50505050565b6000604051806040016040528060cc80549050815260200160008152509050600080600090505b60ca805490508110156112d757600060ca8281548110611220577f4e487b7100000000000000000000000000000000000000000000000000000000600052603260045260246000fd5b906000526020600020906003020160000160009054906101000a900473ffffffffffffffffffffffffffffffffffffffff16905060006103e890508060cb60008473ffffffffffffffffffffffffffffffffffffffff1673ffffffffffffffffffffffffffffffffffffffff1681526020019081526020016000206000876000015181526020019081526020016000208190555080846112c091906122f1565b9350505080806112cf906124cf565b9150506111d7565b508082602001818152505062093a80600160cc805490506112f891906123a1565b61130291906122f1565b82600001511015806113195750600060cc80549050145b61132257600080fd5b60cc829080600181540180825580915050600190039060005260206000209060020201600090919091909150600082015181600001556020820151816001015550505050565b6113c13060cc8080549050815481106113aa577f4e487b7100000000000000000000000000000000000000000000000000000000600052603260045260246000fd5b90600052602060002090600202016001015461169d565b565b60005b60ca8054905081101561157857600060ca828154811061140f577f4e487b7100000000000000000000000000000000000000000000000000000000600052603260045260246000fd5b906000526020600020906003020160000160009054906101000a900473ffffffffffffffffffffffffffffffffffffffff169050600060cc808054905081548110611483577f4e487b7100000000000000000000000000000000000000000000000000000000600052603260045260246000fd5b9060005260206000209060020201600001549050600060cb600060ca86815481106114d7577f4e487b7100000000000000000000000000000000000000000000000000000000600052603260045260246000fd5b906000526020600020906003020160000160009054906101000a900473ffffffffffffffffffffffffffffffffffffffff1673ffffffffffffffffffffffffffffffffffffffff1673ffffffffffffffffffffffffffffffffffffffff1681526020019081526020016000206000838152602001908152602001600020549050611562308483610f2c565b5050508080611570906124cf565b9150506113c6565b50565b6000611586306117d7565b15905090565b600060019054906101000a900460ff166115db576040517f08c379a00000000000000000000000000000000000000000000000000000000081526004016115d2906121e9565b60405180910390fd5b6115e4816117fa565b50565b600060019054906101000a900460ff16611636576040517f08c379a000000000000000000000000000000000000000000000000000000000815260040161162d906121e9565b60405180910390fd5b6116408282611896565b5050565b600060019054906101000a900460ff16611693576040517f08c379a000000000000000000000000000000000000000000000000000000000815260040161168a906121e9565b60405180910390fd5b61169b611917565b565b6116a5610556565b816116ae610514565b6116b891906122f1565b11156116f9576040517f08c379a00000000000000000000000000000000000000000000000000000000081526004016116f0906121a9565b60405180910390fd5b6117038282611978565b5050565b6000609860009054906101000a900473ffffffffffffffffffffffffffffffffffffffff16905081609860006101000a81548173ffffffffffffffffffffffffffffffffffffffff021916908373ffffffffffffffffffffffffffffffffffffffff1602179055508173ffffffffffffffffffffffffffffffffffffffff168173ffffffffffffffffffffffffffffffffffffffff167f8be0079c531659141344cd1fd0a4f28419497f9722a3daafe3b4186f6b6457e060405160405180910390a35050565b505050565b505050565b6000808273ffffffffffffffffffffffffffffffffffffffff163b119050919050565b600060019054906101000a900460ff16611849576040517f08c379a0000000000000000000000000000000000000000000000000000000008152600401611840906121e9565b60405180910390fd5b6000811161188c576040517f08c379a0000000000000000000000000000000000000000000000000000000008152600401611883906120a9565b60405180910390fd5b8060658190555050565b600060019054906101000a900460ff166118e5576040517f08c379a00000000000000000000000000000000000000000000000000000000081526004016118dc906121e9565b60405180910390fd5b81603690805190602001906118fb929190611ad9565b508060379080519060200190611912929190611ad9565b505050565b600060019054906101000a900460ff16611966576040517f08c379a000000000000000000000000000000000000000000000000000000000815260040161195d906121e9565b60405180910390fd5b611976611971610ccd565b611707565b565b600073ffffffffffffffffffffffffffffffffffffffff168273ffffffffffffffffffffffffffffffffffffffff1614156119e8576040517f08c379a00000000000000000000000000000000000000000000000000000000081526004016119df90612229565b60405180910390fd5b6119f4600083836117cd565b8060356000828254611a0691906122f1565b9250508190555080603360008473ffffffffffffffffffffffffffffffffffffffff1673ffffffffffffffffffffffffffffffffffffffff1681526020019081526020016000206000828254611a5c91906122f1565b925050819055508173ffffffffffffffffffffffffffffffffffffffff16600073ffffffffffffffffffffffffffffffffffffffff167fddf252ad1be2c89b69c2b068fc378daa952ba7f163c4a11628f55a4df523b3ef83604051611ac19190612249565b60405180910390a3611ad5600083836117d2565b5050565b828054611ae59061246c565b90600052602060002090601f016020900481019282611b075760008555611b4e565b82601f10611b2057805160ff1916838001178555611b4e565b82800160010185558215611b4e579182015b82811115611b4d578251825591602001919060010190611b32565b5b509050611b5b9190611b5f565b5090565b5b80821115611b78576000816000905550600101611b60565b5090565b6000611b8f611b8a846122a4565b61227f565b905082815260208101848484011115611ba757600080fd5b611bb284828561242a565b509392505050565b600081359050611bc98161294a565b92915050565b600082601f830112611be057600080fd5b8135611bf0848260208601611b7c565b91505092915050565b600081359050611c0881612961565b92915050565b600060208284031215611c2057600080fd5b6000611c2e84828501611bba565b91505092915050565b60008060408385031215611c4a57600080fd5b6000611c5885828601611bba565b9250506020611c6985828601611bba565b9150509250929050565b600080600060608486031215611c8857600080fd5b6000611c9686828701611bba565b9350506020611ca786828701611bba565b9250506040611cb886828701611bf9565b9150509250925092565b60008060408385031215611cd557600080fd5b6000611ce385828601611bba565b9250506020611cf485828601611bf9565b9150509250929050565b600060208284031215611d1057600080fd5b600082013567ffffffffffffffff811115611d2a57600080fd5b611d3684828501611bcf565b91505092915050565b60008060008060808587031215611d5557600080fd5b600085013567ffffffffffffffff811115611d6f57600080fd5b611d7b87828801611bcf565b945050602085013567ffffffffffffffff811115611d9857600080fd5b611da487828801611bcf565b9350506040611db587828801611bf9565b9250506060611dc687828801611bf9565b91505092959194509250565b611ddb816123d5565b82525050565b611dea816123e7565b82525050565b6000611dfb826122d5565b611e0581856122e0565b9350611e15818560208601612439565b611e1e816125a5565b840191505092915050565b6000611e366023836122e0565b9150611e41826125b6565b604082019050919050565b6000611e596015836122e0565b9150611e6482612605565b602082019050919050565b6000611e7c6026836122e0565b9150611e878261262e565b604082019050919050565b6000611e9f6022836122e0565b9150611eaa8261267d565b604082019050919050565b6000611ec2601d836122e0565b9150611ecd826126cc565b602082019050919050565b6000611ee56026836122e0565b9150611ef0826126f5565b604082019050919050565b6000611f08602e836122e0565b9150611f1382612744565b604082019050919050565b6000611f2b6020836122e0565b9150611f3682612793565b602082019050919050565b6000611f4e6025836122e0565b9150611f59826127bc565b604082019050919050565b6000611f716019836122e0565b9150611f7c8261280b565b602082019050919050565b6000611f946024836122e0565b9150611f9f82612834565b604082019050919050565b6000611fb7602b836122e0565b9150611fc282612883565b604082019050919050565b6000611fda6025836122e0565b9150611fe5826128d2565b604082019050919050565b6000611ffd601f836122e0565b915061200882612921565b602082019050919050565b61201c81612413565b82525050565b61202b8161241d565b82525050565b60006020820190506120466000830184611dd2565b92915050565b60006020820190506120616000830184611de1565b92915050565b600060208201905081810360008301526120818184611df0565b905092915050565b600060208201905081810360008301526120a281611e29565b9050919050565b600060208201905081810360008301526120c281611e4c565b9050919050565b600060208201905081810360008301526120e281611e6f565b9050919050565b6000602082019050818103600083015261210281611e92565b9050919050565b6000602082019050818103600083015261212281611eb5565b9050919050565b6000602082019050818103600083015261214281611ed8565b9050919050565b6000602082019050818103600083015261216281611efb565b9050919050565b6000602082019050818103600083015261218281611f1e565b9050919050565b600060208201905081810360008301526121a281611f41565b9050919050565b600060208201905081810360008301526121c281611f64565b9050919050565b600060208201905081810360008301526121e281611f87565b9050919050565b6000602082019050818103600083015261220281611faa565b9050919050565b6000602082019050818103600083015261222281611fcd565b9050919050565b6000602082019050818103600083015261224281611ff0565b9050919050565b600060208201905061225e6000830184612013565b92915050565b60006020820190506122796000830184612022565b92915050565b600061228961229a565b9050612295828261249e565b919050565b6000604051905090565b600067ffffffffffffffff8211156122bf576122be612576565b5b6122c8826125a5565b9050602081019050919050565b600081519050919050565b600082825260208201905092915050565b60006122fc82612413565b915061230783612413565b9250827fffffffffffffffffffffffffffffffffffffffffffffffffffffffffffffffff0382111561233c5761233b612518565b5b828201905092915050565b600061235282612413565b915061235d83612413565b9250817fffffffffffffffffffffffffffffffffffffffffffffffffffffffffffffffff048311821515161561239657612395612518565b5b828202905092915050565b60006123ac82612413565b91506123b783612413565b9250828210156123ca576123c9612518565b5b828203905092915050565b60006123e0826123f3565b9050919050565b60008115159050919050565b600073ffffffffffffffffffffffffffffffffffffffff82169050919050565b6000819050919050565b600060ff82169050919050565b82818337600083830152505050565b60005b8381101561245757808201518184015260208101905061243c565b83811115612466576000848401525b50505050565b6000600282049050600182168061248457607f821691505b6020821081141561249857612497612547565b5b50919050565b6124a7826125a5565b810181811067ffffffffffffffff821117156124c6576124c5612576565b5b80604052505050565b60006124da82612413565b91507fffffffffffffffffffffffffffffffffffffffffffffffffffffffffffffffff82141561250d5761250c612518565b5b600182019050919050565b7f4e487b7100000000000000000000000000000000000000000000000000000000600052601160045260246000fd5b7f4e487b7100000000000000000000000000000000000000000000000000000000600052602260045260246000fd5b7f4e487b7100000000000000000000000000000000000000000000000000000000600052604160045260246000fd5b6000601f19601f8301169050919050565b7f45524332303a207472616e7366657220746f20746865207a65726f206164647260008201527f6573730000000000000000000000000000000000000000000000000000000000602082015250565b7f45524332304361707065643a2063617020697320300000000000000000000000600082015250565b7f4f776e61626c653a206e6577206f776e657220697320746865207a65726f206160008201527f6464726573730000000000000000000000000000000000000000000000000000602082015250565b7f45524332303a20617070726f766520746f20746865207a65726f20616464726560008201527f7373000000000000000000000000000000000000000000000000000000000000602082015250565b7f45524332303a20696e73756666696369656e7420616c6c6f77616e6365000000600082015250565b7f45524332303a207472616e7366657220616d6f756e742065786365656473206260008201527f616c616e63650000000000000000000000000000000000000000000000000000602082015250565b7f496e697469616c697a61626c653a20636f6e747261637420697320616c72656160008201527f647920696e697469616c697a6564000000000000000000000000000000000000602082015250565b7f4f776e61626c653a2063616c6c6572206973206e6f7420746865206f776e6572600082015250565b7f45524332303a207472616e736665722066726f6d20746865207a65726f20616460008201527f6472657373000000000000000000000000000000000000000000000000000000602082015250565b7f45524332304361707065643a2063617020657863656564656400000000000000600082015250565b7f45524332303a20617070726f76652066726f6d20746865207a65726f2061646460008201527f7265737300000000000000000000000000000000000000000000000000000000602082015250565b7f496e697469616c697a61626c653a20636f6e7472616374206973206e6f74206960008201527f6e697469616c697a696e67000000000000000000000000000000000000000000602082015250565b7f45524332303a2064656372656173656420616c6c6f77616e63652062656c6f7760008201527f207a65726f000000000000000000000000000000000000000000000000000000602082015250565b7f45524332303a206d696e7420746f20746865207a65726f206164647265737300600082015250565b612953816123d5565b811461295e57600080fd5b50565b61296a81612413565b811461297557600080fd5b5056fea2646970667358221220aa2bab027e2f419ca152b7ac0567cc35b96e754941f15cd1cca2d799b476ecbe64736f6c63430008040033",
    "linkReferences": {},
    "deployedLinkReferences": {}
}