{
  "_format": "hh-sol-artifact-1",
  "contractName": "AnemonethV1",
  "sourceName": "contracts/anemonethV1.sol",
  "abi": [
    {
      "anonymous": false,
      "inputs": [
        {
          "indexed": true,
          "internalType": "address",
          "name": "owner",
          "type": "address"
        },
        {
          "indexed": true,
          "internalType": "address",
          "name": "spender",
          "type": "address"
        },
        {
          "indexed": false,
          "internalType": "uint256",
          "name": "value",
          "type": "uint256"
        }
      ],
      "name": "Approval",
      "type": "event"
    },
    {
      "anonymous": false,
      "inputs": [
        {
          "indexed": true,
          "internalType": "address",
          "name": "_addr",
          "type": "address"
        },
        {
          "indexed": false,
          "internalType": "uint256",
          "name": "_amount",
          "type": "uint256"
        }
      ],
      "name": "Distribution",
      "type": "event"
    },
    {
      "anonymous": false,
      "inputs": [
        {
          "indexed": true,
          "internalType": "address",
          "name": "previousOwner",
          "type": "address"
        },
        {
          "indexed": true,
          "internalType": "address",
          "name": "newOwner",
          "type": "address"
        }
      ],
      "name": "OwnershipTransferred",
      "type": "event"
    },
    {
      "anonymous": false,
      "inputs": [
        {
          "indexed": true,
          "internalType": "address",
          "name": "from",
          "type": "address"
        },
        {
          "indexed": true,
          "internalType": "address",
          "name": "to",
          "type": "address"
        },
        {
          "indexed": false,
          "internalType": "uint256",
          "name": "value",
          "type": "uint256"
        }
      ],
      "name": "Transfer",
      "type": "event"
    },
    {
      "stateMutability": "payable",
      "type": "fallback"
    },
    {
      "inputs": [
        {
          "internalType": "address",
          "name": "owner",
          "type": "address"
        },
        {
          "internalType": "address",
          "name": "spender",
          "type": "address"
        }
      ],
      "name": "allowance",
      "outputs": [
        {
          "internalType": "uint256",
          "name": "",
          "type": "uint256"
        }
      ],
      "stateMutability": "view",
      "type": "function"
    },
    {
      "inputs": [
        {
          "internalType": "address",
          "name": "spender",
          "type": "address"
        },
        {
          "internalType": "uint256",
          "name": "amount",
          "type": "uint256"
        }
      ],
      "name": "approve",
      "outputs": [
        {
          "internalType": "bool",
          "name": "",
          "type": "bool"
        }
      ],
      "stateMutability": "nonpayable",
      "type": "function"
    },
    {
      "inputs": [
        {
          "internalType": "address",
          "name": "account",
          "type": "address"
        }
      ],
      "name": "balanceOf",
      "outputs": [
        {
          "internalType": "uint256",
          "name": "",
          "type": "uint256"
        }
      ],
      "stateMutability": "view",
      "type": "function"
    },
    {
      "inputs": [],
      "name": "cap",
      "outputs": [
        {
          "internalType": "uint256",
          "name": "",
          "type": "uint256"
        }
      ],
      "stateMutability": "view",
      "type": "function"
    },
    {
      "inputs": [],
      "name": "decimals",
      "outputs": [
        {
          "internalType": "uint8",
          "name": "",
          "type": "uint8"
        }
      ],
      "stateMutability": "view",
      "type": "function"
    },
    {
      "inputs": [
        {
          "internalType": "address",
          "name": "spender",
          "type": "address"
        },
        {
          "internalType": "uint256",
          "name": "subtractedValue",
          "type": "uint256"
        }
      ],
      "name": "decreaseAllowance",
      "outputs": [
        {
          "internalType": "bool",
          "name": "",
          "type": "bool"
        }
      ],
      "stateMutability": "nonpayable",
      "type": "function"
    },
    {
      "inputs": [
        {
          "internalType": "uint256",
          "name": "index",
          "type": "uint256"
        }
      ],
      "name": "getUser",
      "outputs": [
        {
          "internalType": "address",
          "name": "",
          "type": "address"
        }
      ],
      "stateMutability": "view",
      "type": "function"
    },
    {
      "inputs": [],
      "name": "getUserCount",
      "outputs": [
        {
          "internalType": "uint256",
          "name": "",
          "type": "uint256"
        }
      ],
      "stateMutability": "view",
      "type": "function"
    },
    {
      "inputs": [
        {
          "internalType": "address",
          "name": "_addr",
          "type": "address"
        }
      ],
      "name": "getUserName",
      "outputs": [
        {
          "internalType": "string",
          "name": "",
          "type": "string"
        }
      ],
      "stateMutability": "view",
      "type": "function"
    },
    {
      "inputs": [],
      "name": "getWeeklyEarnersCount",
      "outputs": [
        {
          "internalType": "uint256",
          "name": "",
          "type": "uint256"
        }
      ],
      "stateMutability": "view",
      "type": "function"
    },
    {
      "inputs": [],
      "name": "getWeeklyInfoArrLength",
      "outputs": [
        {
          "internalType": "uint256",
          "name": "",
          "type": "uint256"
        }
      ],
      "stateMutability": "view",
      "type": "function"
    },
    {
      "inputs": [
        {
          "internalType": "uint256",
          "name": "_week",
          "type": "uint256"
        },
        {
          "internalType": "address",
          "name": "_addr",
          "type": "address"
        }
      ],
      "name": "gethistoricalEarnings",
      "outputs": [
        {
          "internalType": "uint256",
          "name": "",
          "type": "uint256"
        }
      ],
      "stateMutability": "view",
      "type": "function"
    },
    {
      "inputs": [
        {
          "internalType": "address",
          "name": "spender",
          "type": "address"
        },
        {
          "internalType": "uint256",
          "name": "addedValue",
          "type": "uint256"
        }
      ],
      "name": "increaseAllowance",
      "outputs": [
        {
          "internalType": "bool",
          "name": "",
          "type": "bool"
        }
      ],
      "stateMutability": "nonpayable",
      "type": "function"
    },
    {
      "inputs": [
        {
          "internalType": "string",
          "name": "name_",
          "type": "string"
        },
        {
          "internalType": "string",
          "name": "symbol_",
          "type": "string"
        },
        {
          "internalType": "uint256",
          "name": "cap_",
          "type": "uint256"
        },
        {
          "internalType": "uint256",
          "name": "initSupply",
          "type": "uint256"
        }
      ],
      "name": "initialize",
      "outputs": [],
      "stateMutability": "nonpayable",
      "type": "function"
    },
    {
      "inputs": [
        {
          "internalType": "address",
          "name": "addr",
          "type": "address"
        }
      ],
      "name": "isRegistered",
      "outputs": [
        {
          "internalType": "bool",
          "name": "",
          "type": "bool"
        }
      ],
      "stateMutability": "view",
      "type": "function"
    },
    {
      "inputs": [
        {
          "internalType": "uint256",
          "name": "_num",
          "type": "uint256"
        }
      ],
      "name": "mintViaOwner",
      "outputs": [],
      "stateMutability": "nonpayable",
      "type": "function"
    },
    {
      "inputs": [],
      "name": "name",
      "outputs": [
        {
          "internalType": "string",
          "name": "",
          "type": "string"
        }
      ],
      "stateMutability": "view",
      "type": "function"
    },
    {
      "inputs": [],
      "name": "owner",
      "outputs": [
        {
          "internalType": "address",
          "name": "",
          "type": "address"
        }
      ],
      "stateMutability": "view",
      "type": "function"
    },
    {
      "inputs": [
        {
          "internalType": "string",
          "name": "_username",
          "type": "string"
        }
      ],
      "name": "register",
      "outputs": [],
      "stateMutability": "payable",
      "type": "function"
    },
    {
      "inputs": [],
      "name": "renounceOwnership",
      "outputs": [],
      "stateMutability": "nonpayable",
      "type": "function"
    },
    {
      "inputs": [
        {
          "internalType": "address[]",
          "name": "_weeksLowEarners",
          "type": "address[]"
        },
        {
          "internalType": "address[]",
          "name": "_weeksMidEarners",
          "type": "address[]"
        },
        {
          "internalType": "address[]",
          "name": "_weeksHighEarners",
          "type": "address[]"
        },
        {
          "internalType": "address[]",
          "name": "_allEarners",
          "type": "address[]"
        }
      ],
      "name": "settleUp",
      "outputs": [],
      "stateMutability": "nonpayable",
      "type": "function"
    },
    {
      "inputs": [],
      "name": "symbol",
      "outputs": [
        {
          "internalType": "string",
          "name": "",
          "type": "string"
        }
      ],
      "stateMutability": "view",
      "type": "function"
    },
    {
      "inputs": [],
      "name": "totalSupply",
      "outputs": [
        {
          "internalType": "uint256",
          "name": "",
          "type": "uint256"
        }
      ],
      "stateMutability": "view",
      "type": "function"
    },
    {
      "inputs": [
        {
          "internalType": "address",
          "name": "to",
          "type": "address"
        },
        {
          "internalType": "uint256",
          "name": "amount",
          "type": "uint256"
        }
      ],
      "name": "transfer",
      "outputs": [
        {
          "internalType": "bool",
          "name": "",
          "type": "bool"
        }
      ],
      "stateMutability": "nonpayable",
      "type": "function"
    },
    {
      "inputs": [
        {
          "internalType": "address",
          "name": "from",
          "type": "address"
        },
        {
          "internalType": "address",
          "name": "to",
          "type": "address"
        },
        {
          "internalType": "uint256",
          "name": "amount",
          "type": "uint256"
        }
      ],
      "name": "transferFrom",
      "outputs": [
        {
          "internalType": "bool",
          "name": "",
          "type": "bool"
        }
      ],
      "stateMutability": "nonpayable",
      "type": "function"
    },
    {
      "inputs": [
        {
          "internalType": "address",
          "name": "newOwner",
          "type": "address"
        }
      ],
      "name": "transferOwnership",
      "outputs": [],
      "stateMutability": "nonpayable",
      "type": "function"
    },
    {
      "stateMutability": "payable",
      "type": "receive"
    }
  ],
  "bytecode": "0x608060405234801561001057600080fd5b5061346b806100206000396000f3fe6080604052600436106101855760003560e01c80638a0a1831116100d1578063b5cb15f71161008a578063d84f55ee11610064578063d84f55ee146105c8578063dd62ed3e14610605578063f2c298be14610642578063f2fde38b1461065e5761018c565b8063b5cb15f714610537578063bf1960be14610562578063c3c5a5471461058b5761018c565b80638a0a1831146103ed5780638da5cb5b1461042a57806395d89b4114610455578063a457c2d714610480578063a9059cbb146104bd578063b0467deb146104fa5761018c565b8063355274ea1161013e5780636fe0e395116101185780636fe0e3951461034757806370a0823114610370578063715018a6146103ad5780637adc2813146103c45761018c565b8063355274ea146102b457806339509351146102df5780636a0962c91461031c5761018c565b806306fdde031461018e578063095ea7b3146101b957806318160ddd146101f657806323b872dd1461022157806323f4aa571461025e578063313ce567146102895761018c565b3661018c57005b005b34801561019a57600080fd5b506101a3610687565b6040516101b09190612b09565b60405180910390f35b3480156101c557600080fd5b506101e060048036038101906101db9190612619565b610719565b6040516101ed9190612aee565b60405180910390f35b34801561020257600080fd5b5061020b61073c565b6040516102189190612d0b565b60405180910390f35b34801561022d57600080fd5b50610248600480360381019061024391906125ca565b610746565b6040516102559190612aee565b60405180910390f35b34801561026a57600080fd5b50610273610775565b6040516102809190612d0b565b60405180910390f35b34801561029557600080fd5b5061029e610782565b6040516102ab9190612d26565b60405180910390f35b3480156102c057600080fd5b506102c961078b565b6040516102d69190612d0b565b60405180910390f35b3480156102eb57600080fd5b5061030660048036038101906103019190612619565b610795565b6040516103139190612aee565b60405180910390f35b34801561032857600080fd5b5061033161083f565b60405161033e9190612d0b565b60405180910390f35b34801561035357600080fd5b5061036e60048036038101906103699190612759565b6108a6565b005b34801561037c57600080fd5b5061039760048036038101906103929190612565565b6109b3565b6040516103a49190612d0b565b60405180910390f35b3480156103b957600080fd5b506103c26109fc565b005b3480156103d057600080fd5b506103eb60048036038101906103e691906127ec565b610a84565b005b3480156103f957600080fd5b50610414600480360381019061040f9190612815565b610b0d565b6040516104219190612d0b565b60405180910390f35b34801561043657600080fd5b5061043f610b68565b60405161044c9190612ad3565b60405180910390f35b34801561046157600080fd5b5061046a610b92565b6040516104779190612b09565b60405180910390f35b34801561048c57600080fd5b506104a760048036038101906104a29190612619565b610c24565b6040516104b49190612aee565b60405180910390f35b3480156104c957600080fd5b506104e460048036038101906104df9190612619565b610d0e565b6040516104f19190612aee565b60405180910390f35b34801561050657600080fd5b50610521600480360381019061051c91906127ec565b610d31565b60405161052e9190612ad3565b60405180910390f35b34801561054357600080fd5b5061054c610da6565b6040516105599190612d0b565b60405180910390f35b34801561056e57600080fd5b5061058960048036038101906105849190612655565b610db3565b005b34801561059757600080fd5b506105b260048036038101906105ad9190612565565b610e51565b6040516105bf9190612aee565b60405180910390f35b3480156105d457600080fd5b506105ef60048036038101906105ea9190612565565b610eaa565b6040516105fc9190612b09565b60405180910390f35b34801561061157600080fd5b5061062c6004803603810190610627919061258e565b610f7e565b6040516106399190612d0b565b60405180910390f35b61065c60048036038101906106579190612718565b611005565b005b34801561066a57600080fd5b5061068560048036038101906106809190612565565b611286565b005b60606036805461069690612f00565b80601f01602080910402602001604051908101604052809291908181526020018280546106c290612f00565b801561070f5780601f106106e45761010080835404028352916020019161070f565b820191906000526020600020905b8154815290600101906020018083116106f257829003601f168201915b5050505050905090565b60008061072461137e565b9050610731818585611386565b600191505092915050565b6000603554905090565b60008061075161137e565b905061075e858285611551565b6107698585856115dd565b60019150509392505050565b600060cd80549050905090565b60006012905090565b6000606554905090565b6000806107a061137e565b9050610834818585603460008673ffffffffffffffffffffffffffffffffffffffff1673ffffffffffffffffffffffffffffffffffffffff16815260200190815260200160002060008973ffffffffffffffffffffffffffffffffffffffff1673ffffffffffffffffffffffffffffffffffffffff1681526020019081526020016000205461082f9190612ddf565b611386565b600191505092915050565b600060cd600160cd805490506108559190612e35565b8154811061088c577f4e487b7100000000000000000000000000000000000000000000000000000000600052603260045260246000fd5b906000526020600020906004020160030180549050905090565b600060019054906101000a900460ff166108ce5760008054906101000a900460ff16156108d7565b6108d6611861565b5b610916576040517f08c379a000000000000000000000000000000000000000000000000000000000815260040161090d90612c0b565b60405180910390fd5b60008060019054906101000a900460ff161590508015610966576001600060016101000a81548160ff02191690831515021790555060016000806101000a81548160ff0219169083151502179055505b61096f83611872565b61097985856118cd565b61098161192a565b61098b3083611983565b80156109ac5760008060016101000a81548160ff0219169083151502179055505b5050505050565b6000603360008373ffffffffffffffffffffffffffffffffffffffff1673ffffffffffffffffffffffffffffffffffffffff168152602001908152602001600020549050919050565b610a0461137e565b73ffffffffffffffffffffffffffffffffffffffff16610a22610b68565b73ffffffffffffffffffffffffffffffffffffffff1614610a78576040517f08c379a0000000000000000000000000000000000000000000000000000000008152600401610a6f90612c2b565b60405180910390fd5b610a8260006119ed565b565b610a8c61137e565b73ffffffffffffffffffffffffffffffffffffffff16610aaa610b68565b73ffffffffffffffffffffffffffffffffffffffff1614610b00576040517f08c379a0000000000000000000000000000000000000000000000000000000008152600401610af790612c2b565b60405180910390fd5b610b0a3082611983565b50565b600060cc600084815260200190815260200160002060008373ffffffffffffffffffffffffffffffffffffffff1673ffffffffffffffffffffffffffffffffffffffff16815260200190815260200160002054905092915050565b6000609860009054906101000a900473ffffffffffffffffffffffffffffffffffffffff16905090565b606060378054610ba190612f00565b80601f0160208091040260200160405190810160405280929190818152602001828054610bcd90612f00565b8015610c1a5780601f10610bef57610100808354040283529160200191610c1a565b820191906000526020600020905b815481529060010190602001808311610bfd57829003601f168201915b5050505050905090565b600080610c2f61137e565b90506000603460008373ffffffffffffffffffffffffffffffffffffffff1673ffffffffffffffffffffffffffffffffffffffff16815260200190815260200160002060008673ffffffffffffffffffffffffffffffffffffffff1673ffffffffffffffffffffffffffffffffffffffff16815260200190815260200160002054905083811015610cf5576040517f08c379a0000000000000000000000000000000000000000000000000000000008152600401610cec90612ccb565b60405180910390fd5b610d028286868403611386565b60019250505092915050565b600080610d1961137e565b9050610d268185856115dd565b600191505092915050565b600060ca8281548110610d6d577f4e487b7100000000000000000000000000000000000000000000000000000000600052603260045260246000fd5b906000526020600020906004020160000160009054906101000a900473ffffffffffffffffffffffffffffffffffffffff169050919050565b600060ca80549050905090565b610dbb61137e565b73ffffffffffffffffffffffffffffffffffffffff16610dd9610b68565b73ffffffffffffffffffffffffffffffffffffffff1614610e2f576040517f08c379a0000000000000000000000000000000000000000000000000000000008152600401610e2690612c2b565b60405180910390fd5b610e3b84848484611ab3565b610e43611db2565b610e4b611e1a565b50505050565b600060cb60008373ffffffffffffffffffffffffffffffffffffffff1673ffffffffffffffffffffffffffffffffffffffff16815260200190815260200160002060030160009054906101000a900460ff169050919050565b606060cb60008373ffffffffffffffffffffffffffffffffffffffff1673ffffffffffffffffffffffffffffffffffffffff1681526020019081526020016000206001018054610ef990612f00565b80601f0160208091040260200160405190810160405280929190818152602001828054610f2590612f00565b8015610f725780601f10610f4757610100808354040283529160200191610f72565b820191906000526020600020905b815481529060010190602001808311610f5557829003601f168201915b50505050509050919050565b6000603460008473ffffffffffffffffffffffffffffffffffffffff1673ffffffffffffffffffffffffffffffffffffffff16815260200190815260200160002060008373ffffffffffffffffffffffffffffffffffffffff1673ffffffffffffffffffffffffffffffffffffffff16815260200190815260200160002054905092915050565b633b9aca00341461101557600080fd5b6000151560cb60003373ffffffffffffffffffffffffffffffffffffffff1673ffffffffffffffffffffffffffffffffffffffff16815260200190815260200160002060030160009054906101000a900460ff161515146110ab576040517f08c379a00000000000000000000000000000000000000000000000000000000081526004016110a290612beb565b60405180910390fd5b6110b7303360016115dd565b600060405180608001604052803373ffffffffffffffffffffffffffffffffffffffff16815260200183815260200142815260200160011515815250905060ca81908060018154018082558091505060019003906000526020600020906004020160009091909190915060008201518160000160006101000a81548173ffffffffffffffffffffffffffffffffffffffff021916908373ffffffffffffffffffffffffffffffffffffffff1602179055506020820151816001019080519060200190611184929190612310565b506040820151816002015560608201518160030160006101000a81548160ff02191690831515021790555050508060cb60003373ffffffffffffffffffffffffffffffffffffffff1673ffffffffffffffffffffffffffffffffffffffff16815260200190815260200160002060008201518160000160006101000a81548173ffffffffffffffffffffffffffffffffffffffff021916908373ffffffffffffffffffffffffffffffffffffffff1602179055506020820151816001019080519060200190611254929190612310565b506040820151816002015560608201518160030160006101000a81548160ff0219169083151502179055509050505050565b61128e61137e565b73ffffffffffffffffffffffffffffffffffffffff166112ac610b68565b73ffffffffffffffffffffffffffffffffffffffff1614611302576040517f08c379a00000000000000000000000000000000000000000000000000000000081526004016112f990612c2b565b60405180910390fd5b600073ffffffffffffffffffffffffffffffffffffffff168173ffffffffffffffffffffffffffffffffffffffff161415611372576040517f08c379a000000000000000000000000000000000000000000000000000000000815260040161136990612b6b565b60405180910390fd5b61137b816119ed565b50565b600033905090565b600073ffffffffffffffffffffffffffffffffffffffff168373ffffffffffffffffffffffffffffffffffffffff1614156113f6576040517f08c379a00000000000000000000000000000000000000000000000000000000081526004016113ed90612c8b565b60405180910390fd5b600073ffffffffffffffffffffffffffffffffffffffff168273ffffffffffffffffffffffffffffffffffffffff161415611466576040517f08c379a000000000000000000000000000000000000000000000000000000000815260040161145d90612b8b565b60405180910390fd5b80603460008573ffffffffffffffffffffffffffffffffffffffff1673ffffffffffffffffffffffffffffffffffffffff16815260200190815260200160002060008473ffffffffffffffffffffffffffffffffffffffff1673ffffffffffffffffffffffffffffffffffffffff168152602001908152602001600020819055508173ffffffffffffffffffffffffffffffffffffffff168373ffffffffffffffffffffffffffffffffffffffff167f8c5be1e5ebec7d5bd14f71427d1e84f3dd0314c0f7b2291e5b200ac8c7c3b925836040516115449190612d0b565b60405180910390a3505050565b600061155d8484610f7e565b90507fffffffffffffffffffffffffffffffffffffffffffffffffffffffffffffffff81146115d757818110156115c9576040517f08c379a00000000000000000000000000000000000000000000000000000000081526004016115c090612bab565b60405180910390fd5b6115d68484848403611386565b5b50505050565b600073ffffffffffffffffffffffffffffffffffffffff168373ffffffffffffffffffffffffffffffffffffffff16141561164d576040517f08c379a000000000000000000000000000000000000000000000000000000000815260040161164490612c4b565b60405180910390fd5b600073ffffffffffffffffffffffffffffffffffffffff168273ffffffffffffffffffffffffffffffffffffffff1614156116bd576040517f08c379a00000000000000000000000000000000000000000000000000000000081526004016116b490612b2b565b60405180910390fd5b6116c8838383612004565b6000603360008573ffffffffffffffffffffffffffffffffffffffff1673ffffffffffffffffffffffffffffffffffffffff1681526020019081526020016000205490508181101561174f576040517f08c379a000000000000000000000000000000000000000000000000000000000815260040161174690612bcb565b60405180910390fd5b818103603360008673ffffffffffffffffffffffffffffffffffffffff1673ffffffffffffffffffffffffffffffffffffffff1681526020019081526020016000208190555081603360008573ffffffffffffffffffffffffffffffffffffffff1673ffffffffffffffffffffffffffffffffffffffff16815260200190815260200160002060008282546117e49190612ddf565b925050819055508273ffffffffffffffffffffffffffffffffffffffff168473ffffffffffffffffffffffffffffffffffffffff167fddf252ad1be2c89b69c2b068fc378daa952ba7f163c4a11628f55a4df523b3ef846040516118489190612d0b565b60405180910390a361185b848484612009565b50505050565b600061186c3061200e565b15905090565b600060019054906101000a900460ff166118c1576040517f08c379a00000000000000000000000000000000000000000000000000000000081526004016118b890612cab565b60405180910390fd5b6118ca81612031565b50565b600060019054906101000a900460ff1661191c576040517f08c379a000000000000000000000000000000000000000000000000000000000815260040161191390612cab565b60405180910390fd5b61192682826120cd565b5050565b600060019054906101000a900460ff16611979576040517f08c379a000000000000000000000000000000000000000000000000000000000815260040161197090612cab565b60405180910390fd5b61198161214e565b565b61198b61078b565b8161199461073c565b61199e9190612ddf565b11156119df576040517f08c379a00000000000000000000000000000000000000000000000000000000081526004016119d690612c6b565b60405180910390fd5b6119e982826121af565b5050565b6000609860009054906101000a900473ffffffffffffffffffffffffffffffffffffffff16905081609860006101000a81548173ffffffffffffffffffffffffffffffffffffffff021916908373ffffffffffffffffffffffffffffffffffffffff1602179055508173ffffffffffffffffffffffffffffffffffffffff168173ffffffffffffffffffffffffffffffffffffffff167f8be0079c531659141344cd1fd0a4f28419497f9722a3daafe3b4186f6b6457e060405160405180910390a35050565b600080600090505b8551811015611b8157600160cc600060cd8054905081526020019081526020016000206000888481518110611b19577f4e487b7100000000000000000000000000000000000000000000000000000000600052603260045260246000fd5b602002602001015173ffffffffffffffffffffffffffffffffffffffff1673ffffffffffffffffffffffffffffffffffffffff16815260200190815260200160002081905550600182611b6c9190612ddf565b91508080611b7990612f63565b915050611abb565b5060005b8451811015611c4b57600260cc600060cd8054905081526020019081526020016000206000878481518110611be3577f4e487b7100000000000000000000000000000000000000000000000000000000600052603260045260246000fd5b602002602001015173ffffffffffffffffffffffffffffffffffffffff1673ffffffffffffffffffffffffffffffffffffffff16815260200190815260200160002081905550600282611c369190612ddf565b91508080611c4390612f63565b915050611b85565b5060005b8351811015611d1557600360cc600060cd8054905081526020019081526020016000206000868481518110611cad577f4e487b7100000000000000000000000000000000000000000000000000000000600052603260045260246000fd5b602002602001015173ffffffffffffffffffffffffffffffffffffffff1673ffffffffffffffffffffffffffffffffffffffff16815260200190815260200160002081905550600382611d009190612ddf565b91508080611d0d90612f63565b915050611c4f565b506000604051806080016040528060cd8054905081526020018451815260200183815260200184815250905060cd8190806001815401808255809150506001900390600052602060002090600402016000909190919091506000820151816000015560208201518160010155604082015181600201556060820151816003019080519060200190611da7929190612396565b505050505050505050565b611e183060cd600160cd80549050611dca9190612e35565b81548110611e01577f4e487b7100000000000000000000000000000000000000000000000000000000600052603260045260246000fd5b906000526020600020906004020160020154611983565b565b600060cd600160cd80549050611e309190612e35565b81548110611e67577f4e487b7100000000000000000000000000000000000000000000000000000000600052603260045260246000fd5b906000526020600020906004020160405180608001604052908160008201548152602001600182015481526020016002820154815260200160038201805480602002602001604051908101604052809291908181526020018280548015611f2357602002820191906000526020600020905b8160009054906101000a900473ffffffffffffffffffffffffffffffffffffffff1673ffffffffffffffffffffffffffffffffffffffff1681526020019060010190808311611ed9575b505050505081525050905060005b81606001515181101561200057600082606001518281518110611f7d577f4e487b7100000000000000000000000000000000000000000000000000000000600052603260045260246000fd5b60200260200101519050600060cc60008560000151815260200190815260200160002060008373ffffffffffffffffffffffffffffffffffffffff1673ffffffffffffffffffffffffffffffffffffffff168152602001908152602001600020549050611feb3083836115dd565b50508080611ff890612f63565b915050611f31565b5050565b505050565b505050565b6000808273ffffffffffffffffffffffffffffffffffffffff163b119050919050565b600060019054906101000a900460ff16612080576040517f08c379a000000000000000000000000000000000000000000000000000000000815260040161207790612cab565b60405180910390fd5b600081116120c3576040517f08c379a00000000000000000000000000000000000000000000000000000000081526004016120ba90612b4b565b60405180910390fd5b8060658190555050565b600060019054906101000a900460ff1661211c576040517f08c379a000000000000000000000000000000000000000000000000000000000815260040161211390612cab565b60405180910390fd5b8160369080519060200190612132929190612310565b508060379080519060200190612149929190612310565b505050565b600060019054906101000a900460ff1661219d576040517f08c379a000000000000000000000000000000000000000000000000000000000815260040161219490612cab565b60405180910390fd5b6121ad6121a861137e565b6119ed565b565b600073ffffffffffffffffffffffffffffffffffffffff168273ffffffffffffffffffffffffffffffffffffffff16141561221f576040517f08c379a000000000000000000000000000000000000000000000000000000000815260040161221690612ceb565b60405180910390fd5b61222b60008383612004565b806035600082825461223d9190612ddf565b9250508190555080603360008473ffffffffffffffffffffffffffffffffffffffff1673ffffffffffffffffffffffffffffffffffffffff16815260200190815260200160002060008282546122939190612ddf565b925050819055508173ffffffffffffffffffffffffffffffffffffffff16600073ffffffffffffffffffffffffffffffffffffffff167fddf252ad1be2c89b69c2b068fc378daa952ba7f163c4a11628f55a4df523b3ef836040516122f89190612d0b565b60405180910390a361230c60008383612009565b5050565b82805461231c90612f00565b90600052602060002090601f01602090048101928261233e5760008555612385565b82601f1061235757805160ff1916838001178555612385565b82800160010185558215612385579182015b82811115612384578251825591602001919060010190612369565b5b5090506123929190612420565b5090565b82805482825590600052602060002090810192821561240f579160200282015b8281111561240e5782518260006101000a81548173ffffffffffffffffffffffffffffffffffffffff021916908373ffffffffffffffffffffffffffffffffffffffff160217905550916020019190600101906123b6565b5b50905061241c9190612420565b5090565b5b80821115612439576000816000905550600101612421565b5090565b600061245061244b84612d66565b612d41565b9050808382526020820190508285602086028201111561246f57600080fd5b60005b8581101561249f578161248588826124e7565b845260208401935060208301925050600181019050612472565b5050509392505050565b60006124bc6124b784612d92565b612d41565b9050828152602081018484840111156124d457600080fd5b6124df848285612ebe565b509392505050565b6000813590506124f681613407565b92915050565b600082601f83011261250d57600080fd5b813561251d84826020860161243d565b91505092915050565b600082601f83011261253757600080fd5b81356125478482602086016124a9565b91505092915050565b60008135905061255f8161341e565b92915050565b60006020828403121561257757600080fd5b6000612585848285016124e7565b91505092915050565b600080604083850312156125a157600080fd5b60006125af858286016124e7565b92505060206125c0858286016124e7565b9150509250929050565b6000806000606084860312156125df57600080fd5b60006125ed868287016124e7565b93505060206125fe868287016124e7565b925050604061260f86828701612550565b9150509250925092565b6000806040838503121561262c57600080fd5b600061263a858286016124e7565b925050602061264b85828601612550565b9150509250929050565b6000806000806080858703121561266b57600080fd5b600085013567ffffffffffffffff81111561268557600080fd5b612691878288016124fc565b945050602085013567ffffffffffffffff8111156126ae57600080fd5b6126ba878288016124fc565b935050604085013567ffffffffffffffff8111156126d757600080fd5b6126e3878288016124fc565b925050606085013567ffffffffffffffff81111561270057600080fd5b61270c878288016124fc565b91505092959194509250565b60006020828403121561272a57600080fd5b600082013567ffffffffffffffff81111561274457600080fd5b61275084828501612526565b91505092915050565b6000806000806080858703121561276f57600080fd5b600085013567ffffffffffffffff81111561278957600080fd5b61279587828801612526565b945050602085013567ffffffffffffffff8111156127b257600080fd5b6127be87828801612526565b93505060406127cf87828801612550565b92505060606127e087828801612550565b91505092959194509250565b6000602082840312156127fe57600080fd5b600061280c84828501612550565b91505092915050565b6000806040838503121561282857600080fd5b600061283685828601612550565b9250506020612847858286016124e7565b9150509250929050565b61285a81612e69565b82525050565b61286981612e7b565b82525050565b600061287a82612dc3565b6128848185612dce565b9350612894818560208601612ecd565b61289d81613039565b840191505092915050565b60006128b5602383612dce565b91506128c08261304a565b604082019050919050565b60006128d8601583612dce565b91506128e382613099565b602082019050919050565b60006128fb602683612dce565b9150612906826130c2565b604082019050919050565b600061291e602283612dce565b915061292982613111565b604082019050919050565b6000612941601d83612dce565b915061294c82613160565b602082019050919050565b6000612964602683612dce565b915061296f82613189565b604082019050919050565b6000612987601b83612dce565b9150612992826131d8565b602082019050919050565b60006129aa602e83612dce565b91506129b582613201565b604082019050919050565b60006129cd602083612dce565b91506129d882613250565b602082019050919050565b60006129f0602583612dce565b91506129fb82613279565b604082019050919050565b6000612a13601983612dce565b9150612a1e826132c8565b602082019050919050565b6000612a36602483612dce565b9150612a41826132f1565b604082019050919050565b6000612a59602b83612dce565b9150612a6482613340565b604082019050919050565b6000612a7c602583612dce565b9150612a878261338f565b604082019050919050565b6000612a9f601f83612dce565b9150612aaa826133de565b602082019050919050565b612abe81612ea7565b82525050565b612acd81612eb1565b82525050565b6000602082019050612ae86000830184612851565b92915050565b6000602082019050612b036000830184612860565b92915050565b60006020820190508181036000830152612b23818461286f565b905092915050565b60006020820190508181036000830152612b44816128a8565b9050919050565b60006020820190508181036000830152612b64816128cb565b9050919050565b60006020820190508181036000830152612b84816128ee565b9050919050565b60006020820190508181036000830152612ba481612911565b9050919050565b60006020820190508181036000830152612bc481612934565b9050919050565b60006020820190508181036000830152612be481612957565b9050919050565b60006020820190508181036000830152612c048161297a565b9050919050565b60006020820190508181036000830152612c248161299d565b9050919050565b60006020820190508181036000830152612c44816129c0565b9050919050565b60006020820190508181036000830152612c64816129e3565b9050919050565b60006020820190508181036000830152612c8481612a06565b9050919050565b60006020820190508181036000830152612ca481612a29565b9050919050565b60006020820190508181036000830152612cc481612a4c565b9050919050565b60006020820190508181036000830152612ce481612a6f565b9050919050565b60006020820190508181036000830152612d0481612a92565b9050919050565b6000602082019050612d206000830184612ab5565b92915050565b6000602082019050612d3b6000830184612ac4565b92915050565b6000612d4b612d5c565b9050612d578282612f32565b919050565b6000604051905090565b600067ffffffffffffffff821115612d8157612d8061300a565b5b602082029050602081019050919050565b600067ffffffffffffffff821115612dad57612dac61300a565b5b612db682613039565b9050602081019050919050565b600081519050919050565b600082825260208201905092915050565b6000612dea82612ea7565b9150612df583612ea7565b9250827fffffffffffffffffffffffffffffffffffffffffffffffffffffffffffffffff03821115612e2a57612e29612fac565b5b828201905092915050565b6000612e4082612ea7565b9150612e4b83612ea7565b925082821015612e5e57612e5d612fac565b5b828203905092915050565b6000612e7482612e87565b9050919050565b60008115159050919050565b600073ffffffffffffffffffffffffffffffffffffffff82169050919050565b6000819050919050565b600060ff82169050919050565b82818337600083830152505050565b60005b83811015612eeb578082015181840152602081019050612ed0565b83811115612efa576000848401525b50505050565b60006002820490506001821680612f1857607f821691505b60208210811415612f2c57612f2b612fdb565b5b50919050565b612f3b82613039565b810181811067ffffffffffffffff82111715612f5a57612f5961300a565b5b80604052505050565b6000612f6e82612ea7565b91507fffffffffffffffffffffffffffffffffffffffffffffffffffffffffffffffff821415612fa157612fa0612fac565b5b600182019050919050565b7f4e487b7100000000000000000000000000000000000000000000000000000000600052601160045260246000fd5b7f4e487b7100000000000000000000000000000000000000000000000000000000600052602260045260246000fd5b7f4e487b7100000000000000000000000000000000000000000000000000000000600052604160045260246000fd5b6000601f19601f8301169050919050565b7f45524332303a207472616e7366657220746f20746865207a65726f206164647260008201527f6573730000000000000000000000000000000000000000000000000000000000602082015250565b7f45524332304361707065643a2063617020697320300000000000000000000000600082015250565b7f4f776e61626c653a206e6577206f776e657220697320746865207a65726f206160008201527f6464726573730000000000000000000000000000000000000000000000000000602082015250565b7f45524332303a20617070726f766520746f20746865207a65726f20616464726560008201527f7373000000000000000000000000000000000000000000000000000000000000602082015250565b7f45524332303a20696e73756666696369656e7420616c6c6f77616e6365000000600082015250565b7f45524332303a207472616e7366657220616d6f756e742065786365656473206260008201527f616c616e63650000000000000000000000000000000000000000000000000000602082015250565b7f4163636f756e7420616c72656164792072656769737465726564210000000000600082015250565b7f496e697469616c697a61626c653a20636f6e747261637420697320616c72656160008201527f647920696e697469616c697a6564000000000000000000000000000000000000602082015250565b7f4f776e61626c653a2063616c6c6572206973206e6f7420746865206f776e6572600082015250565b7f45524332303a207472616e736665722066726f6d20746865207a65726f20616460008201527f6472657373000000000000000000000000000000000000000000000000000000602082015250565b7f45524332304361707065643a2063617020657863656564656400000000000000600082015250565b7f45524332303a20617070726f76652066726f6d20746865207a65726f2061646460008201527f7265737300000000000000000000000000000000000000000000000000000000602082015250565b7f496e697469616c697a61626c653a20636f6e7472616374206973206e6f74206960008201527f6e697469616c697a696e67000000000000000000000000000000000000000000602082015250565b7f45524332303a2064656372656173656420616c6c6f77616e63652062656c6f7760008201527f207a65726f000000000000000000000000000000000000000000000000000000602082015250565b7f45524332303a206d696e7420746f20746865207a65726f206164647265737300600082015250565b61341081612e69565b811461341b57600080fd5b50565b61342781612ea7565b811461343257600080fd5b5056fea264697066735822122072db977a79094877b3e89f3f409a9ad88e132ef3fed34ce95b59ed36206c6cc364736f6c63430008040033",
  "linkReferences": {},
  "deployedLinkReferences": {}
}