{
  "_format": "hh-sol-artifact-1",
  "contractName": "AnemonethV1",
  "sourceName": "contracts/anemonethV1.sol",
  "abi": [
    {
      "anonymous": false,
      "inputs": [
        {
          "indexed": true,
          "internalType": "address",
          "name": "owner",
          "type": "address"
        },
        {
          "indexed": true,
          "internalType": "address",
          "name": "spender",
          "type": "address"
        },
        {
          "indexed": false,
          "internalType": "uint256",
          "name": "value",
          "type": "uint256"
        }
      ],
      "name": "Approval",
      "type": "event"
    },
    {
      "anonymous": false,
      "inputs": [
        {
          "indexed": true,
          "internalType": "address",
          "name": "_addr",
          "type": "address"
        },
        {
          "indexed": false,
          "internalType": "uint256",
          "name": "_amount",
          "type": "uint256"
        }
      ],
      "name": "Distribution",
      "type": "event"
    },
    {
      "anonymous": false,
      "inputs": [
        {
          "indexed": true,
          "internalType": "address",
          "name": "previousOwner",
          "type": "address"
        },
        {
          "indexed": true,
          "internalType": "address",
          "name": "newOwner",
          "type": "address"
        }
      ],
      "name": "OwnershipTransferred",
      "type": "event"
    },
    {
      "anonymous": false,
      "inputs": [
        {
          "indexed": true,
          "internalType": "address",
          "name": "from",
          "type": "address"
        },
        {
          "indexed": true,
          "internalType": "address",
          "name": "to",
          "type": "address"
        },
        {
          "indexed": false,
          "internalType": "uint256",
          "name": "value",
          "type": "uint256"
        }
      ],
      "name": "Transfer",
      "type": "event"
    },
    {
      "stateMutability": "payable",
      "type": "fallback"
    },
    {
      "inputs": [
        {
          "internalType": "address",
          "name": "owner",
          "type": "address"
        },
        {
          "internalType": "address",
          "name": "spender",
          "type": "address"
        }
      ],
      "name": "allowance",
      "outputs": [
        {
          "internalType": "uint256",
          "name": "",
          "type": "uint256"
        }
      ],
      "stateMutability": "view",
      "type": "function"
    },
    {
      "inputs": [
        {
          "internalType": "address",
          "name": "spender",
          "type": "address"
        },
        {
          "internalType": "uint256",
          "name": "amount",
          "type": "uint256"
        }
      ],
      "name": "approve",
      "outputs": [
        {
          "internalType": "bool",
          "name": "",
          "type": "bool"
        }
      ],
      "stateMutability": "nonpayable",
      "type": "function"
    },
    {
      "inputs": [
        {
          "internalType": "address",
          "name": "account",
          "type": "address"
        }
      ],
      "name": "balanceOf",
      "outputs": [
        {
          "internalType": "uint256",
          "name": "",
          "type": "uint256"
        }
      ],
      "stateMutability": "view",
      "type": "function"
    },
    {
      "inputs": [],
      "name": "cap",
      "outputs": [
        {
          "internalType": "uint256",
          "name": "",
          "type": "uint256"
        }
      ],
      "stateMutability": "view",
      "type": "function"
    },
    {
      "inputs": [],
      "name": "decimals",
      "outputs": [
        {
          "internalType": "uint8",
          "name": "",
          "type": "uint8"
        }
      ],
      "stateMutability": "view",
      "type": "function"
    },
    {
      "inputs": [
        {
          "internalType": "address",
          "name": "spender",
          "type": "address"
        },
        {
          "internalType": "uint256",
          "name": "subtractedValue",
          "type": "uint256"
        }
      ],
      "name": "decreaseAllowance",
      "outputs": [
        {
          "internalType": "bool",
          "name": "",
          "type": "bool"
        }
      ],
      "stateMutability": "nonpayable",
      "type": "function"
    },
    {
      "inputs": [
        {
          "internalType": "uint256",
          "name": "index",
          "type": "uint256"
        }
      ],
      "name": "getUser",
      "outputs": [
        {
          "internalType": "address",
          "name": "",
          "type": "address"
        }
      ],
      "stateMutability": "view",
      "type": "function"
    },
    {
      "inputs": [],
      "name": "getUserCount",
      "outputs": [
        {
          "internalType": "uint256",
          "name": "",
          "type": "uint256"
        }
      ],
      "stateMutability": "view",
      "type": "function"
    },
    {
      "inputs": [],
      "name": "getWeeklyEarnersCount",
      "outputs": [
        {
          "internalType": "uint256",
          "name": "",
          "type": "uint256"
        }
      ],
      "stateMutability": "view",
      "type": "function"
    },
    {
      "inputs": [],
      "name": "getWeeklyInfoArrLength",
      "outputs": [
        {
          "internalType": "uint256",
          "name": "",
          "type": "uint256"
        }
      ],
      "stateMutability": "view",
      "type": "function"
    },
    {
      "inputs": [
        {
          "internalType": "uint256",
          "name": "_week",
          "type": "uint256"
        },
        {
          "internalType": "address",
          "name": "_addr",
          "type": "address"
        }
      ],
      "name": "gethistoricalEarnings",
      "outputs": [
        {
          "internalType": "uint256",
          "name": "",
          "type": "uint256"
        }
      ],
      "stateMutability": "view",
      "type": "function"
    },
    {
      "inputs": [
        {
          "internalType": "address",
          "name": "spender",
          "type": "address"
        },
        {
          "internalType": "uint256",
          "name": "addedValue",
          "type": "uint256"
        }
      ],
      "name": "increaseAllowance",
      "outputs": [
        {
          "internalType": "bool",
          "name": "",
          "type": "bool"
        }
      ],
      "stateMutability": "nonpayable",
      "type": "function"
    },
    {
      "inputs": [
        {
          "internalType": "string",
          "name": "name_",
          "type": "string"
        },
        {
          "internalType": "string",
          "name": "symbol_",
          "type": "string"
        },
        {
          "internalType": "uint256",
          "name": "cap_",
          "type": "uint256"
        },
        {
          "internalType": "uint256",
          "name": "initSupply",
          "type": "uint256"
        }
      ],
      "name": "initialize",
      "outputs": [],
      "stateMutability": "nonpayable",
      "type": "function"
    },
    {
      "inputs": [
        {
          "internalType": "address",
          "name": "addr",
          "type": "address"
        }
      ],
      "name": "isRegistered",
      "outputs": [
        {
          "internalType": "bool",
          "name": "",
          "type": "bool"
        }
      ],
      "stateMutability": "view",
      "type": "function"
    },
    {
      "inputs": [
        {
          "internalType": "uint256",
          "name": "_num",
          "type": "uint256"
        }
      ],
      "name": "mintViaOwner",
      "outputs": [],
      "stateMutability": "nonpayable",
      "type": "function"
    },
    {
      "inputs": [],
      "name": "name",
      "outputs": [
        {
          "internalType": "string",
          "name": "",
          "type": "string"
        }
      ],
      "stateMutability": "view",
      "type": "function"
    },
    {
      "inputs": [],
      "name": "owner",
      "outputs": [
        {
          "internalType": "address",
          "name": "",
          "type": "address"
        }
      ],
      "stateMutability": "view",
      "type": "function"
    },
    {
      "inputs": [
        {
          "internalType": "string",
          "name": "_username",
          "type": "string"
        }
      ],
      "name": "register",
      "outputs": [],
      "stateMutability": "payable",
      "type": "function"
    },
    {
      "inputs": [],
      "name": "renounceOwnership",
      "outputs": [],
      "stateMutability": "nonpayable",
      "type": "function"
    },
    {
      "inputs": [
        {
          "internalType": "address[]",
          "name": "_weeksLowEarners",
          "type": "address[]"
        },
        {
          "internalType": "address[]",
          "name": "_weeksMidEarners",
          "type": "address[]"
        },
        {
          "internalType": "address[]",
          "name": "_weeksHighEarners",
          "type": "address[]"
        },
        {
          "internalType": "address[]",
          "name": "_allEarners",
          "type": "address[]"
        }
      ],
      "name": "settleUp",
      "outputs": [],
      "stateMutability": "nonpayable",
      "type": "function"
    },
    {
      "inputs": [],
      "name": "symbol",
      "outputs": [
        {
          "internalType": "string",
          "name": "",
          "type": "string"
        }
      ],
      "stateMutability": "view",
      "type": "function"
    },
    {
      "inputs": [],
      "name": "totalSupply",
      "outputs": [
        {
          "internalType": "uint256",
          "name": "",
          "type": "uint256"
        }
      ],
      "stateMutability": "view",
      "type": "function"
    },
    {
      "inputs": [
        {
          "internalType": "address",
          "name": "to",
          "type": "address"
        },
        {
          "internalType": "uint256",
          "name": "amount",
          "type": "uint256"
        }
      ],
      "name": "transfer",
      "outputs": [
        {
          "internalType": "bool",
          "name": "",
          "type": "bool"
        }
      ],
      "stateMutability": "nonpayable",
      "type": "function"
    },
    {
      "inputs": [
        {
          "internalType": "address",
          "name": "from",
          "type": "address"
        },
        {
          "internalType": "address",
          "name": "to",
          "type": "address"
        },
        {
          "internalType": "uint256",
          "name": "amount",
          "type": "uint256"
        }
      ],
      "name": "transferFrom",
      "outputs": [
        {
          "internalType": "bool",
          "name": "",
          "type": "bool"
        }
      ],
      "stateMutability": "nonpayable",
      "type": "function"
    },
    {
      "inputs": [
        {
          "internalType": "address",
          "name": "newOwner",
          "type": "address"
        }
      ],
      "name": "transferOwnership",
      "outputs": [],
      "stateMutability": "nonpayable",
      "type": "function"
    },
    {
      "stateMutability": "payable",
      "type": "receive"
    }
  ],
  "bytecode": "0x608060405234801561001057600080fd5b5061333f806100206000396000f3fe60806040526004361061016a5760003560e01c80637adc2813116100d1578063b0467deb1161008a578063c3c5a54711610064578063c3c5a54714610570578063dd62ed3e146105ad578063f2c298be146105ea578063f2fde38b1461060657610171565b8063b0467deb146104df578063b5cb15f71461051c578063bf1960be1461054757610171565b80637adc2813146103a95780638a0a1831146103d25780638da5cb5b1461040f57806395d89b411461043a578063a457c2d714610465578063a9059cbb146104a257610171565b8063355274ea11610123578063355274ea1461029957806339509351146102c45780636a0962c9146103015780636fe0e3951461032c57806370a0823114610355578063715018a61461039257610171565b806306fdde0314610173578063095ea7b31461019e57806318160ddd146101db57806323b872dd1461020657806323f4aa5714610243578063313ce5671461026e57610171565b3661017157005b005b34801561017f57600080fd5b5061018861062f565b60405161019591906129dd565b60405180910390f35b3480156101aa57600080fd5b506101c560048036038101906101c091906124ed565b6106c1565b6040516101d291906129c2565b60405180910390f35b3480156101e757600080fd5b506101f06106e4565b6040516101fd9190612bdf565b60405180910390f35b34801561021257600080fd5b5061022d6004803603810190610228919061249e565b6106ee565b60405161023a91906129c2565b60405180910390f35b34801561024f57600080fd5b5061025861071d565b6040516102659190612bdf565b60405180910390f35b34801561027a57600080fd5b5061028361072a565b6040516102909190612bfa565b60405180910390f35b3480156102a557600080fd5b506102ae610733565b6040516102bb9190612bdf565b60405180910390f35b3480156102d057600080fd5b506102eb60048036038101906102e691906124ed565b61073d565b6040516102f891906129c2565b60405180910390f35b34801561030d57600080fd5b506103166107e7565b6040516103239190612bdf565b60405180910390f35b34801561033857600080fd5b50610353600480360381019061034e919061262d565b61084e565b005b34801561036157600080fd5b5061037c60048036038101906103779190612439565b61095b565b6040516103899190612bdf565b60405180910390f35b34801561039e57600080fd5b506103a76109a4565b005b3480156103b557600080fd5b506103d060048036038101906103cb91906126c0565b610a2c565b005b3480156103de57600080fd5b506103f960048036038101906103f491906126e9565b610ab5565b6040516104069190612bdf565b60405180910390f35b34801561041b57600080fd5b50610424610b10565b60405161043191906129a7565b60405180910390f35b34801561044657600080fd5b5061044f610b3a565b60405161045c91906129dd565b60405180910390f35b34801561047157600080fd5b5061048c600480360381019061048791906124ed565b610bcc565b60405161049991906129c2565b60405180910390f35b3480156104ae57600080fd5b506104c960048036038101906104c491906124ed565b610cb6565b6040516104d691906129c2565b60405180910390f35b3480156104eb57600080fd5b50610506600480360381019061050191906126c0565b610cd9565b60405161051391906129a7565b60405180910390f35b34801561052857600080fd5b50610531610d4e565b60405161053e9190612bdf565b60405180910390f35b34801561055357600080fd5b5061056e60048036038101906105699190612529565b610d5b565b005b34801561057c57600080fd5b5061059760048036038101906105929190612439565b610df9565b6040516105a491906129c2565b60405180910390f35b3480156105b957600080fd5b506105d460048036038101906105cf9190612462565b610e52565b6040516105e19190612bdf565b60405180910390f35b61060460048036038101906105ff91906125ec565b610ed9565b005b34801561061257600080fd5b5061062d60048036038101906106289190612439565b61115a565b005b60606036805461063e90612dd4565b80601f016020809104026020016040519081016040528092919081815260200182805461066a90612dd4565b80156106b75780601f1061068c576101008083540402835291602001916106b7565b820191906000526020600020905b81548152906001019060200180831161069a57829003601f168201915b5050505050905090565b6000806106cc611252565b90506106d981858561125a565b600191505092915050565b6000603554905090565b6000806106f9611252565b9050610706858285611425565b6107118585856114b1565b60019150509392505050565b600060cd80549050905090565b60006012905090565b6000606554905090565b600080610748611252565b90506107dc818585603460008673ffffffffffffffffffffffffffffffffffffffff1673ffffffffffffffffffffffffffffffffffffffff16815260200190815260200160002060008973ffffffffffffffffffffffffffffffffffffffff1673ffffffffffffffffffffffffffffffffffffffff168152602001908152602001600020546107d79190612cb3565b61125a565b600191505092915050565b600060cd600160cd805490506107fd9190612d09565b81548110610834577f4e487b7100000000000000000000000000000000000000000000000000000000600052603260045260246000fd5b906000526020600020906004020160030180549050905090565b600060019054906101000a900460ff166108765760008054906101000a900460ff161561087f565b61087e611735565b5b6108be576040517f08c379a00000000000000000000000000000000000000000000000000000000081526004016108b590612adf565b60405180910390fd5b60008060019054906101000a900460ff16159050801561090e576001600060016101000a81548160ff02191690831515021790555060016000806101000a81548160ff0219169083151502179055505b61091783611746565b61092185856117a1565b6109296117fe565b6109333083611857565b80156109545760008060016101000a81548160ff0219169083151502179055505b5050505050565b6000603360008373ffffffffffffffffffffffffffffffffffffffff1673ffffffffffffffffffffffffffffffffffffffff168152602001908152602001600020549050919050565b6109ac611252565b73ffffffffffffffffffffffffffffffffffffffff166109ca610b10565b73ffffffffffffffffffffffffffffffffffffffff1614610a20576040517f08c379a0000000000000000000000000000000000000000000000000000000008152600401610a1790612aff565b60405180910390fd5b610a2a60006118c1565b565b610a34611252565b73ffffffffffffffffffffffffffffffffffffffff16610a52610b10565b73ffffffffffffffffffffffffffffffffffffffff1614610aa8576040517f08c379a0000000000000000000000000000000000000000000000000000000008152600401610a9f90612aff565b60405180910390fd5b610ab23082611857565b50565b600060cc600084815260200190815260200160002060008373ffffffffffffffffffffffffffffffffffffffff1673ffffffffffffffffffffffffffffffffffffffff16815260200190815260200160002054905092915050565b6000609860009054906101000a900473ffffffffffffffffffffffffffffffffffffffff16905090565b606060378054610b4990612dd4565b80601f0160208091040260200160405190810160405280929190818152602001828054610b7590612dd4565b8015610bc25780601f10610b9757610100808354040283529160200191610bc2565b820191906000526020600020905b815481529060010190602001808311610ba557829003601f168201915b5050505050905090565b600080610bd7611252565b90506000603460008373ffffffffffffffffffffffffffffffffffffffff1673ffffffffffffffffffffffffffffffffffffffff16815260200190815260200160002060008673ffffffffffffffffffffffffffffffffffffffff1673ffffffffffffffffffffffffffffffffffffffff16815260200190815260200160002054905083811015610c9d576040517f08c379a0000000000000000000000000000000000000000000000000000000008152600401610c9490612b9f565b60405180910390fd5b610caa828686840361125a565b60019250505092915050565b600080610cc1611252565b9050610cce8185856114b1565b600191505092915050565b600060ca8281548110610d15577f4e487b7100000000000000000000000000000000000000000000000000000000600052603260045260246000fd5b906000526020600020906004020160000160009054906101000a900473ffffffffffffffffffffffffffffffffffffffff169050919050565b600060ca80549050905090565b610d63611252565b73ffffffffffffffffffffffffffffffffffffffff16610d81610b10565b73ffffffffffffffffffffffffffffffffffffffff1614610dd7576040517f08c379a0000000000000000000000000000000000000000000000000000000008152600401610dce90612aff565b60405180910390fd5b610de384848484611987565b610deb611c86565b610df3611cee565b50505050565b600060cb60008373ffffffffffffffffffffffffffffffffffffffff1673ffffffffffffffffffffffffffffffffffffffff16815260200190815260200160002060030160009054906101000a900460ff169050919050565b6000603460008473ffffffffffffffffffffffffffffffffffffffff1673ffffffffffffffffffffffffffffffffffffffff16815260200190815260200160002060008373ffffffffffffffffffffffffffffffffffffffff1673ffffffffffffffffffffffffffffffffffffffff16815260200190815260200160002054905092915050565b633b9aca003414610ee957600080fd5b6000151560cb60003373ffffffffffffffffffffffffffffffffffffffff1673ffffffffffffffffffffffffffffffffffffffff16815260200190815260200160002060030160009054906101000a900460ff16151514610f7f576040517f08c379a0000000000000000000000000000000000000000000000000000000008152600401610f7690612abf565b60405180910390fd5b610f8b303360016114b1565b600060405180608001604052803373ffffffffffffffffffffffffffffffffffffffff16815260200183815260200142815260200160011515815250905060ca81908060018154018082558091505060019003906000526020600020906004020160009091909190915060008201518160000160006101000a81548173ffffffffffffffffffffffffffffffffffffffff021916908373ffffffffffffffffffffffffffffffffffffffff16021790555060208201518160010190805190602001906110589291906121e4565b506040820151816002015560608201518160030160006101000a81548160ff02191690831515021790555050508060cb60003373ffffffffffffffffffffffffffffffffffffffff1673ffffffffffffffffffffffffffffffffffffffff16815260200190815260200160002060008201518160000160006101000a81548173ffffffffffffffffffffffffffffffffffffffff021916908373ffffffffffffffffffffffffffffffffffffffff16021790555060208201518160010190805190602001906111289291906121e4565b506040820151816002015560608201518160030160006101000a81548160ff0219169083151502179055509050505050565b611162611252565b73ffffffffffffffffffffffffffffffffffffffff16611180610b10565b73ffffffffffffffffffffffffffffffffffffffff16146111d6576040517f08c379a00000000000000000000000000000000000000000000000000000000081526004016111cd90612aff565b60405180910390fd5b600073ffffffffffffffffffffffffffffffffffffffff168173ffffffffffffffffffffffffffffffffffffffff161415611246576040517f08c379a000000000000000000000000000000000000000000000000000000000815260040161123d90612a3f565b60405180910390fd5b61124f816118c1565b50565b600033905090565b600073ffffffffffffffffffffffffffffffffffffffff168373ffffffffffffffffffffffffffffffffffffffff1614156112ca576040517f08c379a00000000000000000000000000000000000000000000000000000000081526004016112c190612b5f565b60405180910390fd5b600073ffffffffffffffffffffffffffffffffffffffff168273ffffffffffffffffffffffffffffffffffffffff16141561133a576040517f08c379a000000000000000000000000000000000000000000000000000000000815260040161133190612a5f565b60405180910390fd5b80603460008573ffffffffffffffffffffffffffffffffffffffff1673ffffffffffffffffffffffffffffffffffffffff16815260200190815260200160002060008473ffffffffffffffffffffffffffffffffffffffff1673ffffffffffffffffffffffffffffffffffffffff168152602001908152602001600020819055508173ffffffffffffffffffffffffffffffffffffffff168373ffffffffffffffffffffffffffffffffffffffff167f8c5be1e5ebec7d5bd14f71427d1e84f3dd0314c0f7b2291e5b200ac8c7c3b925836040516114189190612bdf565b60405180910390a3505050565b60006114318484610e52565b90507fffffffffffffffffffffffffffffffffffffffffffffffffffffffffffffffff81146114ab578181101561149d576040517f08c379a000000000000000000000000000000000000000000000000000000000815260040161149490612a7f565b60405180910390fd5b6114aa848484840361125a565b5b50505050565b600073ffffffffffffffffffffffffffffffffffffffff168373ffffffffffffffffffffffffffffffffffffffff161415611521576040517f08c379a000000000000000000000000000000000000000000000000000000000815260040161151890612b1f565b60405180910390fd5b600073ffffffffffffffffffffffffffffffffffffffff168273ffffffffffffffffffffffffffffffffffffffff161415611591576040517f08c379a0000000000000000000000000000000000000000000000000000000008152600401611588906129ff565b60405180910390fd5b61159c838383611ed8565b6000603360008573ffffffffffffffffffffffffffffffffffffffff1673ffffffffffffffffffffffffffffffffffffffff16815260200190815260200160002054905081811015611623576040517f08c379a000000000000000000000000000000000000000000000000000000000815260040161161a90612a9f565b60405180910390fd5b818103603360008673ffffffffffffffffffffffffffffffffffffffff1673ffffffffffffffffffffffffffffffffffffffff1681526020019081526020016000208190555081603360008573ffffffffffffffffffffffffffffffffffffffff1673ffffffffffffffffffffffffffffffffffffffff16815260200190815260200160002060008282546116b89190612cb3565b925050819055508273ffffffffffffffffffffffffffffffffffffffff168473ffffffffffffffffffffffffffffffffffffffff167fddf252ad1be2c89b69c2b068fc378daa952ba7f163c4a11628f55a4df523b3ef8460405161171c9190612bdf565b60405180910390a361172f848484611edd565b50505050565b600061174030611ee2565b15905090565b600060019054906101000a900460ff16611795576040517f08c379a000000000000000000000000000000000000000000000000000000000815260040161178c90612b7f565b60405180910390fd5b61179e81611f05565b50565b600060019054906101000a900460ff166117f0576040517f08c379a00000000000000000000000000000000000000000000000000000000081526004016117e790612b7f565b60405180910390fd5b6117fa8282611fa1565b5050565b600060019054906101000a900460ff1661184d576040517f08c379a000000000000000000000000000000000000000000000000000000000815260040161184490612b7f565b60405180910390fd5b611855612022565b565b61185f610733565b816118686106e4565b6118729190612cb3565b11156118b3576040517f08c379a00000000000000000000000000000000000000000000000000000000081526004016118aa90612b3f565b60405180910390fd5b6118bd8282612083565b5050565b6000609860009054906101000a900473ffffffffffffffffffffffffffffffffffffffff16905081609860006101000a81548173ffffffffffffffffffffffffffffffffffffffff021916908373ffffffffffffffffffffffffffffffffffffffff1602179055508173ffffffffffffffffffffffffffffffffffffffff168173ffffffffffffffffffffffffffffffffffffffff167f8be0079c531659141344cd1fd0a4f28419497f9722a3daafe3b4186f6b6457e060405160405180910390a35050565b600080600090505b8551811015611a5557600160cc600060cd80549050815260200190815260200160002060008884815181106119ed577f4e487b7100000000000000000000000000000000000000000000000000000000600052603260045260246000fd5b602002602001015173ffffffffffffffffffffffffffffffffffffffff1673ffffffffffffffffffffffffffffffffffffffff16815260200190815260200160002081905550600182611a409190612cb3565b91508080611a4d90612e37565b91505061198f565b5060005b8451811015611b1f57600260cc600060cd8054905081526020019081526020016000206000878481518110611ab7577f4e487b7100000000000000000000000000000000000000000000000000000000600052603260045260246000fd5b602002602001015173ffffffffffffffffffffffffffffffffffffffff1673ffffffffffffffffffffffffffffffffffffffff16815260200190815260200160002081905550600282611b0a9190612cb3565b91508080611b1790612e37565b915050611a59565b5060005b8351811015611be957600360cc600060cd8054905081526020019081526020016000206000868481518110611b81577f4e487b7100000000000000000000000000000000000000000000000000000000600052603260045260246000fd5b602002602001015173ffffffffffffffffffffffffffffffffffffffff1673ffffffffffffffffffffffffffffffffffffffff16815260200190815260200160002081905550600382611bd49190612cb3565b91508080611be190612e37565b915050611b23565b506000604051806080016040528060cd8054905081526020018451815260200183815260200184815250905060cd8190806001815401808255809150506001900390600052602060002090600402016000909190919091506000820151816000015560208201518160010155604082015181600201556060820151816003019080519060200190611c7b92919061226a565b505050505050505050565b611cec3060cd600160cd80549050611c9e9190612d09565b81548110611cd5577f4e487b7100000000000000000000000000000000000000000000000000000000600052603260045260246000fd5b906000526020600020906004020160020154611857565b565b600060cd600160cd80549050611d049190612d09565b81548110611d3b577f4e487b7100000000000000000000000000000000000000000000000000000000600052603260045260246000fd5b906000526020600020906004020160405180608001604052908160008201548152602001600182015481526020016002820154815260200160038201805480602002602001604051908101604052809291908181526020018280548015611df757602002820191906000526020600020905b8160009054906101000a900473ffffffffffffffffffffffffffffffffffffffff1673ffffffffffffffffffffffffffffffffffffffff1681526020019060010190808311611dad575b505050505081525050905060005b816060015151811015611ed457600082606001518281518110611e51577f4e487b7100000000000000000000000000000000000000000000000000000000600052603260045260246000fd5b60200260200101519050600060cc60008560000151815260200190815260200160002060008373ffffffffffffffffffffffffffffffffffffffff1673ffffffffffffffffffffffffffffffffffffffff168152602001908152602001600020549050611ebf3083836114b1565b50508080611ecc90612e37565b915050611e05565b5050565b505050565b505050565b6000808273ffffffffffffffffffffffffffffffffffffffff163b119050919050565b600060019054906101000a900460ff16611f54576040517f08c379a0000000000000000000000000000000000000000000000000000000008152600401611f4b90612b7f565b60405180910390fd5b60008111611f97576040517f08c379a0000000000000000000000000000000000000000000000000000000008152600401611f8e90612a1f565b60405180910390fd5b8060658190555050565b600060019054906101000a900460ff16611ff0576040517f08c379a0000000000000000000000000000000000000000000000000000000008152600401611fe790612b7f565b60405180910390fd5b81603690805190602001906120069291906121e4565b50806037908051906020019061201d9291906121e4565b505050565b600060019054906101000a900460ff16612071576040517f08c379a000000000000000000000000000000000000000000000000000000000815260040161206890612b7f565b60405180910390fd5b61208161207c611252565b6118c1565b565b600073ffffffffffffffffffffffffffffffffffffffff168273ffffffffffffffffffffffffffffffffffffffff1614156120f3576040517f08c379a00000000000000000000000000000000000000000000000000000000081526004016120ea90612bbf565b60405180910390fd5b6120ff60008383611ed8565b80603560008282546121119190612cb3565b9250508190555080603360008473ffffffffffffffffffffffffffffffffffffffff1673ffffffffffffffffffffffffffffffffffffffff16815260200190815260200160002060008282546121679190612cb3565b925050819055508173ffffffffffffffffffffffffffffffffffffffff16600073ffffffffffffffffffffffffffffffffffffffff167fddf252ad1be2c89b69c2b068fc378daa952ba7f163c4a11628f55a4df523b3ef836040516121cc9190612bdf565b60405180910390a36121e060008383611edd565b5050565b8280546121f090612dd4565b90600052602060002090601f0160209004810192826122125760008555612259565b82601f1061222b57805160ff1916838001178555612259565b82800160010185558215612259579182015b8281111561225857825182559160200191906001019061223d565b5b50905061226691906122f4565b5090565b8280548282559060005260206000209081019282156122e3579160200282015b828111156122e25782518260006101000a81548173ffffffffffffffffffffffffffffffffffffffff021916908373ffffffffffffffffffffffffffffffffffffffff1602179055509160200191906001019061228a565b5b5090506122f091906122f4565b5090565b5b8082111561230d5760008160009055506001016122f5565b5090565b600061232461231f84612c3a565b612c15565b9050808382526020820190508285602086028201111561234357600080fd5b60005b85811015612373578161235988826123bb565b845260208401935060208301925050600181019050612346565b5050509392505050565b600061239061238b84612c66565b612c15565b9050828152602081018484840111156123a857600080fd5b6123b3848285612d92565b509392505050565b6000813590506123ca816132db565b92915050565b600082601f8301126123e157600080fd5b81356123f1848260208601612311565b91505092915050565b600082601f83011261240b57600080fd5b813561241b84826020860161237d565b91505092915050565b600081359050612433816132f2565b92915050565b60006020828403121561244b57600080fd5b6000612459848285016123bb565b91505092915050565b6000806040838503121561247557600080fd5b6000612483858286016123bb565b9250506020612494858286016123bb565b9150509250929050565b6000806000606084860312156124b357600080fd5b60006124c1868287016123bb565b93505060206124d2868287016123bb565b92505060406124e386828701612424565b9150509250925092565b6000806040838503121561250057600080fd5b600061250e858286016123bb565b925050602061251f85828601612424565b9150509250929050565b6000806000806080858703121561253f57600080fd5b600085013567ffffffffffffffff81111561255957600080fd5b612565878288016123d0565b945050602085013567ffffffffffffffff81111561258257600080fd5b61258e878288016123d0565b935050604085013567ffffffffffffffff8111156125ab57600080fd5b6125b7878288016123d0565b925050606085013567ffffffffffffffff8111156125d457600080fd5b6125e0878288016123d0565b91505092959194509250565b6000602082840312156125fe57600080fd5b600082013567ffffffffffffffff81111561261857600080fd5b612624848285016123fa565b91505092915050565b6000806000806080858703121561264357600080fd5b600085013567ffffffffffffffff81111561265d57600080fd5b612669878288016123fa565b945050602085013567ffffffffffffffff81111561268657600080fd5b612692878288016123fa565b93505060406126a387828801612424565b92505060606126b487828801612424565b91505092959194509250565b6000602082840312156126d257600080fd5b60006126e084828501612424565b91505092915050565b600080604083850312156126fc57600080fd5b600061270a85828601612424565b925050602061271b858286016123bb565b9150509250929050565b61272e81612d3d565b82525050565b61273d81612d4f565b82525050565b600061274e82612c97565b6127588185612ca2565b9350612768818560208601612da1565b61277181612f0d565b840191505092915050565b6000612789602383612ca2565b915061279482612f1e565b604082019050919050565b60006127ac601583612ca2565b91506127b782612f6d565b602082019050919050565b60006127cf602683612ca2565b91506127da82612f96565b604082019050919050565b60006127f2602283612ca2565b91506127fd82612fe5565b604082019050919050565b6000612815601d83612ca2565b915061282082613034565b602082019050919050565b6000612838602683612ca2565b91506128438261305d565b604082019050919050565b600061285b601b83612ca2565b9150612866826130ac565b602082019050919050565b600061287e602e83612ca2565b9150612889826130d5565b604082019050919050565b60006128a1602083612ca2565b91506128ac82613124565b602082019050919050565b60006128c4602583612ca2565b91506128cf8261314d565b604082019050919050565b60006128e7601983612ca2565b91506128f28261319c565b602082019050919050565b600061290a602483612ca2565b9150612915826131c5565b604082019050919050565b600061292d602b83612ca2565b915061293882613214565b604082019050919050565b6000612950602583612ca2565b915061295b82613263565b604082019050919050565b6000612973601f83612ca2565b915061297e826132b2565b602082019050919050565b61299281612d7b565b82525050565b6129a181612d85565b82525050565b60006020820190506129bc6000830184612725565b92915050565b60006020820190506129d76000830184612734565b92915050565b600060208201905081810360008301526129f78184612743565b905092915050565b60006020820190508181036000830152612a188161277c565b9050919050565b60006020820190508181036000830152612a388161279f565b9050919050565b60006020820190508181036000830152612a58816127c2565b9050919050565b60006020820190508181036000830152612a78816127e5565b9050919050565b60006020820190508181036000830152612a9881612808565b9050919050565b60006020820190508181036000830152612ab88161282b565b9050919050565b60006020820190508181036000830152612ad88161284e565b9050919050565b60006020820190508181036000830152612af881612871565b9050919050565b60006020820190508181036000830152612b1881612894565b9050919050565b60006020820190508181036000830152612b38816128b7565b9050919050565b60006020820190508181036000830152612b58816128da565b9050919050565b60006020820190508181036000830152612b78816128fd565b9050919050565b60006020820190508181036000830152612b9881612920565b9050919050565b60006020820190508181036000830152612bb881612943565b9050919050565b60006020820190508181036000830152612bd881612966565b9050919050565b6000602082019050612bf46000830184612989565b92915050565b6000602082019050612c0f6000830184612998565b92915050565b6000612c1f612c30565b9050612c2b8282612e06565b919050565b6000604051905090565b600067ffffffffffffffff821115612c5557612c54612ede565b5b602082029050602081019050919050565b600067ffffffffffffffff821115612c8157612c80612ede565b5b612c8a82612f0d565b9050602081019050919050565b600081519050919050565b600082825260208201905092915050565b6000612cbe82612d7b565b9150612cc983612d7b565b9250827fffffffffffffffffffffffffffffffffffffffffffffffffffffffffffffffff03821115612cfe57612cfd612e80565b5b828201905092915050565b6000612d1482612d7b565b9150612d1f83612d7b565b925082821015612d3257612d31612e80565b5b828203905092915050565b6000612d4882612d5b565b9050919050565b60008115159050919050565b600073ffffffffffffffffffffffffffffffffffffffff82169050919050565b6000819050919050565b600060ff82169050919050565b82818337600083830152505050565b60005b83811015612dbf578082015181840152602081019050612da4565b83811115612dce576000848401525b50505050565b60006002820490506001821680612dec57607f821691505b60208210811415612e0057612dff612eaf565b5b50919050565b612e0f82612f0d565b810181811067ffffffffffffffff82111715612e2e57612e2d612ede565b5b80604052505050565b6000612e4282612d7b565b91507fffffffffffffffffffffffffffffffffffffffffffffffffffffffffffffffff821415612e7557612e74612e80565b5b600182019050919050565b7f4e487b7100000000000000000000000000000000000000000000000000000000600052601160045260246000fd5b7f4e487b7100000000000000000000000000000000000000000000000000000000600052602260045260246000fd5b7f4e487b7100000000000000000000000000000000000000000000000000000000600052604160045260246000fd5b6000601f19601f8301169050919050565b7f45524332303a207472616e7366657220746f20746865207a65726f206164647260008201527f6573730000000000000000000000000000000000000000000000000000000000602082015250565b7f45524332304361707065643a2063617020697320300000000000000000000000600082015250565b7f4f776e61626c653a206e6577206f776e657220697320746865207a65726f206160008201527f6464726573730000000000000000000000000000000000000000000000000000602082015250565b7f45524332303a20617070726f766520746f20746865207a65726f20616464726560008201527f7373000000000000000000000000000000000000000000000000000000000000602082015250565b7f45524332303a20696e73756666696369656e7420616c6c6f77616e6365000000600082015250565b7f45524332303a207472616e7366657220616d6f756e742065786365656473206260008201527f616c616e63650000000000000000000000000000000000000000000000000000602082015250565b7f4163636f756e7420616c72656164792072656769737465726564210000000000600082015250565b7f496e697469616c697a61626c653a20636f6e747261637420697320616c72656160008201527f647920696e697469616c697a6564000000000000000000000000000000000000602082015250565b7f4f776e61626c653a2063616c6c6572206973206e6f7420746865206f776e6572600082015250565b7f45524332303a207472616e736665722066726f6d20746865207a65726f20616460008201527f6472657373000000000000000000000000000000000000000000000000000000602082015250565b7f45524332304361707065643a2063617020657863656564656400000000000000600082015250565b7f45524332303a20617070726f76652066726f6d20746865207a65726f2061646460008201527f7265737300000000000000000000000000000000000000000000000000000000602082015250565b7f496e697469616c697a61626c653a20636f6e7472616374206973206e6f74206960008201527f6e697469616c697a696e67000000000000000000000000000000000000000000602082015250565b7f45524332303a2064656372656173656420616c6c6f77616e63652062656c6f7760008201527f207a65726f000000000000000000000000000000000000000000000000000000602082015250565b7f45524332303a206d696e7420746f20746865207a65726f206164647265737300600082015250565b6132e481612d3d565b81146132ef57600080fd5b50565b6132fb81612d7b565b811461330657600080fd5b5056fea264697066735822122049b846004505159c87b5c95533535c7360ca84a1224619121196ba4f776731f964736f6c63430008040033",
  "linkReferences": {},
  "deployedLinkReferences": {}
}