{
  "_format": "hh-sol-artifact-1",
  "contractName": "AnemonethV1",
  "sourceName": "contracts/anemonethV1.sol",
  "abi": [
    {
      "anonymous": false,
      "inputs": [
        {
          "indexed": true,
          "internalType": "address",
          "name": "owner",
          "type": "address"
        },
        {
          "indexed": true,
          "internalType": "address",
          "name": "spender",
          "type": "address"
        },
        {
          "indexed": false,
          "internalType": "uint256",
          "name": "value",
          "type": "uint256"
        }
      ],
      "name": "Approval",
      "type": "event"
    },
    {
      "anonymous": false,
      "inputs": [
        {
          "indexed": true,
          "internalType": "address",
          "name": "_addr",
          "type": "address"
        },
        {
          "indexed": false,
          "internalType": "uint256",
          "name": "_amount",
          "type": "uint256"
        }
      ],
      "name": "Distribution",
      "type": "event"
    },
    {
      "anonymous": false,
      "inputs": [
        {
          "indexed": true,
          "internalType": "address",
          "name": "previousOwner",
          "type": "address"
        },
        {
          "indexed": true,
          "internalType": "address",
          "name": "newOwner",
          "type": "address"
        }
      ],
      "name": "OwnershipTransferred",
      "type": "event"
    },
    {
      "anonymous": false,
      "inputs": [
        {
          "indexed": true,
          "internalType": "address",
          "name": "from",
          "type": "address"
        },
        {
          "indexed": true,
          "internalType": "address",
          "name": "to",
          "type": "address"
        },
        {
          "indexed": false,
          "internalType": "uint256",
          "name": "value",
          "type": "uint256"
        }
      ],
      "name": "Transfer",
      "type": "event"
    },
    {
      "stateMutability": "payable",
      "type": "fallback"
    },
    {
      "inputs": [
        {
          "internalType": "address",
          "name": "owner",
          "type": "address"
        },
        {
          "internalType": "address",
          "name": "spender",
          "type": "address"
        }
      ],
      "name": "allowance",
      "outputs": [
        {
          "internalType": "uint256",
          "name": "",
          "type": "uint256"
        }
      ],
      "stateMutability": "view",
      "type": "function"
    },
    {
      "inputs": [
        {
          "internalType": "address",
          "name": "spender",
          "type": "address"
        },
        {
          "internalType": "uint256",
          "name": "amount",
          "type": "uint256"
        }
      ],
      "name": "approve",
      "outputs": [
        {
          "internalType": "bool",
          "name": "",
          "type": "bool"
        }
      ],
      "stateMutability": "nonpayable",
      "type": "function"
    },
    {
      "inputs": [
        {
          "internalType": "address",
          "name": "account",
          "type": "address"
        }
      ],
      "name": "balanceOf",
      "outputs": [
        {
          "internalType": "uint256",
          "name": "",
          "type": "uint256"
        }
      ],
      "stateMutability": "view",
      "type": "function"
    },
    {
      "inputs": [],
      "name": "cap",
      "outputs": [
        {
          "internalType": "uint256",
          "name": "",
          "type": "uint256"
        }
      ],
      "stateMutability": "view",
      "type": "function"
    },
    {
      "inputs": [],
      "name": "decimals",
      "outputs": [
        {
          "internalType": "uint8",
          "name": "",
          "type": "uint8"
        }
      ],
      "stateMutability": "view",
      "type": "function"
    },
    {
      "inputs": [
        {
          "internalType": "address",
          "name": "spender",
          "type": "address"
        },
        {
          "internalType": "uint256",
          "name": "subtractedValue",
          "type": "uint256"
        }
      ],
      "name": "decreaseAllowance",
      "outputs": [
        {
          "internalType": "bool",
          "name": "",
          "type": "bool"
        }
      ],
      "stateMutability": "nonpayable",
      "type": "function"
    },
    {
      "inputs": [
        {
          "internalType": "address",
          "name": "spender",
          "type": "address"
        },
        {
          "internalType": "uint256",
          "name": "addedValue",
          "type": "uint256"
        }
      ],
      "name": "increaseAllowance",
      "outputs": [
        {
          "internalType": "bool",
          "name": "",
          "type": "bool"
        }
      ],
      "stateMutability": "nonpayable",
      "type": "function"
    },
    {
      "inputs": [
        {
          "internalType": "string",
          "name": "name_",
          "type": "string"
        },
        {
          "internalType": "string",
          "name": "symbol_",
          "type": "string"
        },
        {
          "internalType": "uint256",
          "name": "cap_",
          "type": "uint256"
        },
        {
          "internalType": "uint256",
          "name": "initSupply",
          "type": "uint256"
        }
      ],
      "name": "initialize",
      "outputs": [],
      "stateMutability": "nonpayable",
      "type": "function"
    },
    {
      "inputs": [],
      "name": "mintViaOwner",
      "outputs": [],
      "stateMutability": "nonpayable",
      "type": "function"
    },
    {
      "inputs": [],
      "name": "name",
      "outputs": [
        {
          "internalType": "string",
          "name": "",
          "type": "string"
        }
      ],
      "stateMutability": "view",
      "type": "function"
    },
    {
      "inputs": [],
      "name": "owner",
      "outputs": [
        {
          "internalType": "address",
          "name": "",
          "type": "address"
        }
      ],
      "stateMutability": "view",
      "type": "function"
    },
    {
      "inputs": [
        {
          "internalType": "string",
          "name": "_username",
          "type": "string"
        }
      ],
      "name": "register",
      "outputs": [],
      "stateMutability": "payable",
      "type": "function"
    },
    {
      "inputs": [],
      "name": "renounceOwnership",
      "outputs": [],
      "stateMutability": "nonpayable",
      "type": "function"
    },
    {
      "inputs": [],
      "name": "settleUP",
      "outputs": [],
      "stateMutability": "nonpayable",
      "type": "function"
    },
    {
      "inputs": [],
      "name": "symbol",
      "outputs": [
        {
          "internalType": "string",
          "name": "",
          "type": "string"
        }
      ],
      "stateMutability": "view",
      "type": "function"
    },
    {
      "inputs": [],
      "name": "totalSupply",
      "outputs": [
        {
          "internalType": "uint256",
          "name": "",
          "type": "uint256"
        }
      ],
      "stateMutability": "view",
      "type": "function"
    },
    {
      "inputs": [
        {
          "internalType": "address",
          "name": "to",
          "type": "address"
        },
        {
          "internalType": "uint256",
          "name": "amount",
          "type": "uint256"
        }
      ],
      "name": "transfer",
      "outputs": [
        {
          "internalType": "bool",
          "name": "",
          "type": "bool"
        }
      ],
      "stateMutability": "nonpayable",
      "type": "function"
    },
    {
      "inputs": [
        {
          "internalType": "address",
          "name": "from",
          "type": "address"
        },
        {
          "internalType": "address",
          "name": "to",
          "type": "address"
        },
        {
          "internalType": "uint256",
          "name": "amount",
          "type": "uint256"
        }
      ],
      "name": "transferFrom",
      "outputs": [
        {
          "internalType": "bool",
          "name": "",
          "type": "bool"
        }
      ],
      "stateMutability": "nonpayable",
      "type": "function"
    },
    {
      "inputs": [
        {
          "internalType": "address",
          "name": "newOwner",
          "type": "address"
        }
      ],
      "name": "transferOwnership",
      "outputs": [],
      "stateMutability": "nonpayable",
      "type": "function"
    },
    {
      "stateMutability": "payable",
      "type": "receive"
    }
  ],
  "bytecode": "0x608060405234801561001057600080fd5b50612a59806100206000396000f3fe6080604052600436106101185760003560e01c80636fe0e395116100a0578063a457c2d711610064578063a457c2d714610385578063a9059cbb146103c2578063dd62ed3e146103ff578063f2c298be1461043c578063f2fde38b146104585761011f565b80636fe0e395146102b257806370a08231146102db578063715018a6146103185780638da5cb5b1461032f57806395d89b411461035a5761011f565b806324f11b4b116100e757806324f11b4b146101f1578063313ce56714610208578063355274ea14610233578063395093511461025e5780635bb92c171461029b5761011f565b806306fdde0314610121578063095ea7b31461014c57806318160ddd1461018957806323b872dd146101b45761011f565b3661011f57005b005b34801561012d57600080fd5b50610136610481565b604051610143919061210c565b60405180910390f35b34801561015857600080fd5b50610173600480360381019061016e9190611d67565b610513565b60405161018091906120f1565b60405180910390f35b34801561019557600080fd5b5061019e610536565b6040516101ab91906122ee565b60405180910390f35b3480156101c057600080fd5b506101db60048036038101906101d69190611d18565b610540565b6040516101e891906120f1565b60405180910390f35b3480156101fd57600080fd5b5061020661056f565b005b34801561021457600080fd5b5061021d6105f9565b60405161022a9190612309565b60405180910390f35b34801561023f57600080fd5b50610248610602565b60405161025591906122ee565b60405180910390f35b34801561026a57600080fd5b5061028560048036038101906102809190611d67565b61060c565b60405161029291906120f1565b60405180910390f35b3480156102a757600080fd5b506102b06106b6565b005b3480156102be57600080fd5b506102d960048036038101906102d49190611de4565b61074c565b005b3480156102e757600080fd5b5061030260048036038101906102fd9190611cb3565b610859565b60405161030f91906122ee565b60405180910390f35b34801561032457600080fd5b5061032d6108a2565b005b34801561033b57600080fd5b5061034461092a565b60405161035191906120d6565b60405180910390f35b34801561036657600080fd5b5061036f610954565b60405161037c919061210c565b60405180910390f35b34801561039157600080fd5b506103ac60048036038101906103a79190611d67565b6109e6565b6040516103b991906120f1565b60405180910390f35b3480156103ce57600080fd5b506103e960048036038101906103e49190611d67565b610ad0565b6040516103f691906120f1565b60405180910390f35b34801561040b57600080fd5b5061042660048036038101906104219190611cdc565b610af3565b60405161043391906122ee565b60405180910390f35b61045660048036038101906104519190611da3565b610b7a565b005b34801561046457600080fd5b5061047f600480360381019061047a9190611cb3565b610c7a565b005b606060368054610490906124e8565b80601f01602080910402602001604051908101604052809291908181526020018280546104bc906124e8565b80156105095780601f106104de57610100808354040283529160200191610509565b820191906000526020600020905b8154815290600101906020018083116104ec57829003601f168201915b5050505050905090565b60008061051e610d72565b905061052b818585610d7a565b600191505092915050565b6000603554905090565b60008061054b610d72565b9050610558858285610f45565b610563858585610fd1565b60019150509392505050565b610577610d72565b73ffffffffffffffffffffffffffffffffffffffff1661059561092a565b73ffffffffffffffffffffffffffffffffffffffff16146105eb576040517f08c379a00000000000000000000000000000000000000000000000000000000081526004016105e29061220e565b60405180910390fd5b6105f730612710611255565b565b60006012905090565b6000606554905090565b600080610617610d72565b90506106ab818585603460008673ffffffffffffffffffffffffffffffffffffffff1673ffffffffffffffffffffffffffffffffffffffff16815260200190815260200160002060008973ffffffffffffffffffffffffffffffffffffffff1673ffffffffffffffffffffffffffffffffffffffff168152602001908152602001600020546106a69190612396565b610d7a565b600191505092915050565b6106be610d72565b73ffffffffffffffffffffffffffffffffffffffff166106dc61092a565b73ffffffffffffffffffffffffffffffffffffffff1614610732576040517f08c379a00000000000000000000000000000000000000000000000000000000081526004016107299061220e565b60405180910390fd5b61073a6112bf565b610742611477565b61074a6114d2565b565b600060019054906101000a900460ff166107745760008054906101000a900460ff161561077d565b61077c61168a565b5b6107bc576040517f08c379a00000000000000000000000000000000000000000000000000000000081526004016107b3906121ee565b60405180910390fd5b60008060019054906101000a900460ff16159050801561080c576001600060016101000a81548160ff02191690831515021790555060016000806101000a81548160ff0219169083151502179055505b6108158361169b565b61081f85856116f6565b610827611753565b6108313083611255565b80156108525760008060016101000a81548160ff0219169083151502179055505b5050505050565b6000603360008373ffffffffffffffffffffffffffffffffffffffff1673ffffffffffffffffffffffffffffffffffffffff168152602001908152602001600020549050919050565b6108aa610d72565b73ffffffffffffffffffffffffffffffffffffffff166108c861092a565b73ffffffffffffffffffffffffffffffffffffffff161461091e576040517f08c379a00000000000000000000000000000000000000000000000000000000081526004016109159061220e565b60405180910390fd5b61092860006117ac565b565b6000609860009054906101000a900473ffffffffffffffffffffffffffffffffffffffff16905090565b606060378054610963906124e8565b80601f016020809104026020016040519081016040528092919081815260200182805461098f906124e8565b80156109dc5780601f106109b1576101008083540402835291602001916109dc565b820191906000526020600020905b8154815290600101906020018083116109bf57829003601f168201915b5050505050905090565b6000806109f1610d72565b90506000603460008373ffffffffffffffffffffffffffffffffffffffff1673ffffffffffffffffffffffffffffffffffffffff16815260200190815260200160002060008673ffffffffffffffffffffffffffffffffffffffff1673ffffffffffffffffffffffffffffffffffffffff16815260200190815260200160002054905083811015610ab7576040517f08c379a0000000000000000000000000000000000000000000000000000000008152600401610aae906122ae565b60405180910390fd5b610ac48286868403610d7a565b60019250505092915050565b600080610adb610d72565b9050610ae8818585610fd1565b600191505092915050565b6000603460008473ffffffffffffffffffffffffffffffffffffffff1673ffffffffffffffffffffffffffffffffffffffff16815260200190815260200160002060008373ffffffffffffffffffffffffffffffffffffffff1673ffffffffffffffffffffffffffffffffffffffff16815260200190815260200160002054905092915050565b633b9aca00341015610b8b57600080fd5b6000633b9aca0034610b9d91906123ec565b9050610baa303383610fd1565b60ca60405180606001604052803373ffffffffffffffffffffffffffffffffffffffff16815260200184815260200142815250908060018154018082558091505060019003906000526020600020906003020160009091909190915060008201518160000160006101000a81548173ffffffffffffffffffffffffffffffffffffffff021916908373ffffffffffffffffffffffffffffffffffffffff1602179055506020820151816001019080519060200190610c69929190611b7e565b506040820151816002015550505050565b610c82610d72565b73ffffffffffffffffffffffffffffffffffffffff16610ca061092a565b73ffffffffffffffffffffffffffffffffffffffff1614610cf6576040517f08c379a0000000000000000000000000000000000000000000000000000000008152600401610ced9061220e565b60405180910390fd5b600073ffffffffffffffffffffffffffffffffffffffff168173ffffffffffffffffffffffffffffffffffffffff161415610d66576040517f08c379a0000000000000000000000000000000000000000000000000000000008152600401610d5d9061216e565b60405180910390fd5b610d6f816117ac565b50565b600033905090565b600073ffffffffffffffffffffffffffffffffffffffff168373ffffffffffffffffffffffffffffffffffffffff161415610dea576040517f08c379a0000000000000000000000000000000000000000000000000000000008152600401610de19061226e565b60405180910390fd5b600073ffffffffffffffffffffffffffffffffffffffff168273ffffffffffffffffffffffffffffffffffffffff161415610e5a576040517f08c379a0000000000000000000000000000000000000000000000000000000008152600401610e519061218e565b60405180910390fd5b80603460008573ffffffffffffffffffffffffffffffffffffffff1673ffffffffffffffffffffffffffffffffffffffff16815260200190815260200160002060008473ffffffffffffffffffffffffffffffffffffffff1673ffffffffffffffffffffffffffffffffffffffff168152602001908152602001600020819055508173ffffffffffffffffffffffffffffffffffffffff168373ffffffffffffffffffffffffffffffffffffffff167f8c5be1e5ebec7d5bd14f71427d1e84f3dd0314c0f7b2291e5b200ac8c7c3b92583604051610f3891906122ee565b60405180910390a3505050565b6000610f518484610af3565b90507fffffffffffffffffffffffffffffffffffffffffffffffffffffffffffffffff8114610fcb5781811015610fbd576040517f08c379a0000000000000000000000000000000000000000000000000000000008152600401610fb4906121ae565b60405180910390fd5b610fca8484848403610d7a565b5b50505050565b600073ffffffffffffffffffffffffffffffffffffffff168373ffffffffffffffffffffffffffffffffffffffff161415611041576040517f08c379a00000000000000000000000000000000000000000000000000000000081526004016110389061222e565b60405180910390fd5b600073ffffffffffffffffffffffffffffffffffffffff168273ffffffffffffffffffffffffffffffffffffffff1614156110b1576040517f08c379a00000000000000000000000000000000000000000000000000000000081526004016110a89061212e565b60405180910390fd5b6110bc838383611872565b6000603360008573ffffffffffffffffffffffffffffffffffffffff1673ffffffffffffffffffffffffffffffffffffffff16815260200190815260200160002054905081811015611143576040517f08c379a000000000000000000000000000000000000000000000000000000000815260040161113a906121ce565b60405180910390fd5b818103603360008673ffffffffffffffffffffffffffffffffffffffff1673ffffffffffffffffffffffffffffffffffffffff1681526020019081526020016000208190555081603360008573ffffffffffffffffffffffffffffffffffffffff1673ffffffffffffffffffffffffffffffffffffffff16815260200190815260200160002060008282546111d89190612396565b925050819055508273ffffffffffffffffffffffffffffffffffffffff168473ffffffffffffffffffffffffffffffffffffffff167fddf252ad1be2c89b69c2b068fc378daa952ba7f163c4a11628f55a4df523b3ef8460405161123c91906122ee565b60405180910390a361124f848484611877565b50505050565b61125d610602565b81611266610536565b6112709190612396565b11156112b1576040517f08c379a00000000000000000000000000000000000000000000000000000000081526004016112a89061224e565b60405180910390fd5b6112bb828261187c565b5050565b6000604051806040016040528060cc80549050815260200160008152509050600080600090505b60ca805490508110156113e657600060ca828154811061132f577f4e487b7100000000000000000000000000000000000000000000000000000000600052603260045260246000fd5b906000526020600020906003020160000160009054906101000a900473ffffffffffffffffffffffffffffffffffffffff16905060006103e890508060cb60008473ffffffffffffffffffffffffffffffffffffffff1673ffffffffffffffffffffffffffffffffffffffff1681526020019081526020016000206000876000015181526020019081526020016000208190555080846113cf9190612396565b9350505080806113de9061254b565b9150506112e6565b508082602001818152505062093a80600160cc80549050611407919061241d565b6114119190612396565b82600001511015806114285750600060cc80549050145b61143157600080fd5b60cc829080600181540180825580915050600190039060005260206000209060020201600090919091909150600082015181600001556020820151816001015550505050565b6114d03060cc8080549050815481106114b9577f4e487b7100000000000000000000000000000000000000000000000000000000600052603260045260246000fd5b906000526020600020906002020160010154611255565b565b60005b60ca8054905081101561168757600060ca828154811061151e577f4e487b7100000000000000000000000000000000000000000000000000000000600052603260045260246000fd5b906000526020600020906003020160000160009054906101000a900473ffffffffffffffffffffffffffffffffffffffff169050600060cc808054905081548110611592577f4e487b7100000000000000000000000000000000000000000000000000000000600052603260045260246000fd5b9060005260206000209060020201600001549050600060cb600060ca86815481106115e6577f4e487b7100000000000000000000000000000000000000000000000000000000600052603260045260246000fd5b906000526020600020906003020160000160009054906101000a900473ffffffffffffffffffffffffffffffffffffffff1673ffffffffffffffffffffffffffffffffffffffff1673ffffffffffffffffffffffffffffffffffffffff1681526020019081526020016000206000838152602001908152602001600020549050611671308483610fd1565b505050808061167f9061254b565b9150506114d5565b50565b6000611695306119dd565b15905090565b600060019054906101000a900460ff166116ea576040517f08c379a00000000000000000000000000000000000000000000000000000000081526004016116e19061228e565b60405180910390fd5b6116f381611a00565b50565b600060019054906101000a900460ff16611745576040517f08c379a000000000000000000000000000000000000000000000000000000000815260040161173c9061228e565b60405180910390fd5b61174f8282611a9c565b5050565b600060019054906101000a900460ff166117a2576040517f08c379a00000000000000000000000000000000000000000000000000000000081526004016117999061228e565b60405180910390fd5b6117aa611b1d565b565b6000609860009054906101000a900473ffffffffffffffffffffffffffffffffffffffff16905081609860006101000a81548173ffffffffffffffffffffffffffffffffffffffff021916908373ffffffffffffffffffffffffffffffffffffffff1602179055508173ffffffffffffffffffffffffffffffffffffffff168173ffffffffffffffffffffffffffffffffffffffff167f8be0079c531659141344cd1fd0a4f28419497f9722a3daafe3b4186f6b6457e060405160405180910390a35050565b505050565b505050565b600073ffffffffffffffffffffffffffffffffffffffff168273ffffffffffffffffffffffffffffffffffffffff1614156118ec576040517f08c379a00000000000000000000000000000000000000000000000000000000081526004016118e3906122ce565b60405180910390fd5b6118f860008383611872565b806035600082825461190a9190612396565b9250508190555080603360008473ffffffffffffffffffffffffffffffffffffffff1673ffffffffffffffffffffffffffffffffffffffff16815260200190815260200160002060008282546119609190612396565b925050819055508173ffffffffffffffffffffffffffffffffffffffff16600073ffffffffffffffffffffffffffffffffffffffff167fddf252ad1be2c89b69c2b068fc378daa952ba7f163c4a11628f55a4df523b3ef836040516119c591906122ee565b60405180910390a36119d960008383611877565b5050565b6000808273ffffffffffffffffffffffffffffffffffffffff163b119050919050565b600060019054906101000a900460ff16611a4f576040517f08c379a0000000000000000000000000000000000000000000000000000000008152600401611a469061228e565b60405180910390fd5b60008111611a92576040517f08c379a0000000000000000000000000000000000000000000000000000000008152600401611a899061214e565b60405180910390fd5b8060658190555050565b600060019054906101000a900460ff16611aeb576040517f08c379a0000000000000000000000000000000000000000000000000000000008152600401611ae29061228e565b60405180910390fd5b8160369080519060200190611b01929190611b7e565b508060379080519060200190611b18929190611b7e565b505050565b600060019054906101000a900460ff16611b6c576040517f08c379a0000000000000000000000000000000000000000000000000000000008152600401611b639061228e565b60405180910390fd5b611b7c611b77610d72565b6117ac565b565b828054611b8a906124e8565b90600052602060002090601f016020900481019282611bac5760008555611bf3565b82601f10611bc557805160ff1916838001178555611bf3565b82800160010185558215611bf3579182015b82811115611bf2578251825591602001919060010190611bd7565b5b509050611c009190611c04565b5090565b5b80821115611c1d576000816000905550600101611c05565b5090565b6000611c34611c2f84612349565b612324565b905082815260208101848484011115611c4c57600080fd5b611c578482856124a6565b509392505050565b600081359050611c6e816129f5565b92915050565b600082601f830112611c8557600080fd5b8135611c95848260208601611c21565b91505092915050565b600081359050611cad81612a0c565b92915050565b600060208284031215611cc557600080fd5b6000611cd384828501611c5f565b91505092915050565b60008060408385031215611cef57600080fd5b6000611cfd85828601611c5f565b9250506020611d0e85828601611c5f565b9150509250929050565b600080600060608486031215611d2d57600080fd5b6000611d3b86828701611c5f565b9350506020611d4c86828701611c5f565b9250506040611d5d86828701611c9e565b9150509250925092565b60008060408385031215611d7a57600080fd5b6000611d8885828601611c5f565b9250506020611d9985828601611c9e565b9150509250929050565b600060208284031215611db557600080fd5b600082013567ffffffffffffffff811115611dcf57600080fd5b611ddb84828501611c74565b91505092915050565b60008060008060808587031215611dfa57600080fd5b600085013567ffffffffffffffff811115611e1457600080fd5b611e2087828801611c74565b945050602085013567ffffffffffffffff811115611e3d57600080fd5b611e4987828801611c74565b9350506040611e5a87828801611c9e565b9250506060611e6b87828801611c9e565b91505092959194509250565b611e8081612451565b82525050565b611e8f81612463565b82525050565b6000611ea08261237a565b611eaa8185612385565b9350611eba8185602086016124b5565b611ec381612650565b840191505092915050565b6000611edb602383612385565b9150611ee682612661565b604082019050919050565b6000611efe601583612385565b9150611f09826126b0565b602082019050919050565b6000611f21602683612385565b9150611f2c826126d9565b604082019050919050565b6000611f44602283612385565b9150611f4f82612728565b604082019050919050565b6000611f67601d83612385565b9150611f7282612777565b602082019050919050565b6000611f8a602683612385565b9150611f95826127a0565b604082019050919050565b6000611fad602e83612385565b9150611fb8826127ef565b604082019050919050565b6000611fd0602083612385565b9150611fdb8261283e565b602082019050919050565b6000611ff3602583612385565b9150611ffe82612867565b604082019050919050565b6000612016601983612385565b9150612021826128b6565b602082019050919050565b6000612039602483612385565b9150612044826128df565b604082019050919050565b600061205c602b83612385565b91506120678261292e565b604082019050919050565b600061207f602583612385565b915061208a8261297d565b604082019050919050565b60006120a2601f83612385565b91506120ad826129cc565b602082019050919050565b6120c18161248f565b82525050565b6120d081612499565b82525050565b60006020820190506120eb6000830184611e77565b92915050565b60006020820190506121066000830184611e86565b92915050565b600060208201905081810360008301526121268184611e95565b905092915050565b6000602082019050818103600083015261214781611ece565b9050919050565b6000602082019050818103600083015261216781611ef1565b9050919050565b6000602082019050818103600083015261218781611f14565b9050919050565b600060208201905081810360008301526121a781611f37565b9050919050565b600060208201905081810360008301526121c781611f5a565b9050919050565b600060208201905081810360008301526121e781611f7d565b9050919050565b6000602082019050818103600083015261220781611fa0565b9050919050565b6000602082019050818103600083015261222781611fc3565b9050919050565b6000602082019050818103600083015261224781611fe6565b9050919050565b6000602082019050818103600083015261226781612009565b9050919050565b600060208201905081810360008301526122878161202c565b9050919050565b600060208201905081810360008301526122a78161204f565b9050919050565b600060208201905081810360008301526122c781612072565b9050919050565b600060208201905081810360008301526122e781612095565b9050919050565b600060208201905061230360008301846120b8565b92915050565b600060208201905061231e60008301846120c7565b92915050565b600061232e61233f565b905061233a828261251a565b919050565b6000604051905090565b600067ffffffffffffffff82111561236457612363612621565b5b61236d82612650565b9050602081019050919050565b600081519050919050565b600082825260208201905092915050565b60006123a18261248f565b91506123ac8361248f565b9250827fffffffffffffffffffffffffffffffffffffffffffffffffffffffffffffffff038211156123e1576123e0612594565b5b828201905092915050565b60006123f78261248f565b91506124028361248f565b925082612412576124116125c3565b5b828204905092915050565b60006124288261248f565b91506124338361248f565b92508282101561244657612445612594565b5b828203905092915050565b600061245c8261246f565b9050919050565b60008115159050919050565b600073ffffffffffffffffffffffffffffffffffffffff82169050919050565b6000819050919050565b600060ff82169050919050565b82818337600083830152505050565b60005b838110156124d35780820151818401526020810190506124b8565b838111156124e2576000848401525b50505050565b6000600282049050600182168061250057607f821691505b60208210811415612514576125136125f2565b5b50919050565b61252382612650565b810181811067ffffffffffffffff8211171561254257612541612621565b5b80604052505050565b60006125568261248f565b91507fffffffffffffffffffffffffffffffffffffffffffffffffffffffffffffffff82141561258957612588612594565b5b600182019050919050565b7f4e487b7100000000000000000000000000000000000000000000000000000000600052601160045260246000fd5b7f4e487b7100000000000000000000000000000000000000000000000000000000600052601260045260246000fd5b7f4e487b7100000000000000000000000000000000000000000000000000000000600052602260045260246000fd5b7f4e487b7100000000000000000000000000000000000000000000000000000000600052604160045260246000fd5b6000601f19601f8301169050919050565b7f45524332303a207472616e7366657220746f20746865207a65726f206164647260008201527f6573730000000000000000000000000000000000000000000000000000000000602082015250565b7f45524332304361707065643a2063617020697320300000000000000000000000600082015250565b7f4f776e61626c653a206e6577206f776e657220697320746865207a65726f206160008201527f6464726573730000000000000000000000000000000000000000000000000000602082015250565b7f45524332303a20617070726f766520746f20746865207a65726f20616464726560008201527f7373000000000000000000000000000000000000000000000000000000000000602082015250565b7f45524332303a20696e73756666696369656e7420616c6c6f77616e6365000000600082015250565b7f45524332303a207472616e7366657220616d6f756e742065786365656473206260008201527f616c616e63650000000000000000000000000000000000000000000000000000602082015250565b7f496e697469616c697a61626c653a20636f6e747261637420697320616c72656160008201527f647920696e697469616c697a6564000000000000000000000000000000000000602082015250565b7f4f776e61626c653a2063616c6c6572206973206e6f7420746865206f776e6572600082015250565b7f45524332303a207472616e736665722066726f6d20746865207a65726f20616460008201527f6472657373000000000000000000000000000000000000000000000000000000602082015250565b7f45524332304361707065643a2063617020657863656564656400000000000000600082015250565b7f45524332303a20617070726f76652066726f6d20746865207a65726f2061646460008201527f7265737300000000000000000000000000000000000000000000000000000000602082015250565b7f496e697469616c697a61626c653a20636f6e7472616374206973206e6f74206960008201527f6e697469616c697a696e67000000000000000000000000000000000000000000602082015250565b7f45524332303a2064656372656173656420616c6c6f77616e63652062656c6f7760008201527f207a65726f000000000000000000000000000000000000000000000000000000602082015250565b7f45524332303a206d696e7420746f20746865207a65726f206164647265737300600082015250565b6129fe81612451565b8114612a0957600080fd5b50565b612a158161248f565b8114612a2057600080fd5b5056fea26469706673582212202b5bffecf4ba7baf5c0b382e6241adde1881874ae43d209ca1d45b4f5af9c8a064736f6c63430008040033",
  "linkReferences": {},
  "deployedLinkReferences": {}
}